{
  "contractName": "Lottery",
  "abi": [
    {
      "inputs": [
        {
          "internalType": "address",
          "name": "_owner_contract",
          "type": "address"
        },
        {
          "internalType": "address",
          "name": "_owner_beneficiary",
          "type": "address"
        },
        {
          "internalType": "uint256",
          "name": "_enter_price",
          "type": "uint256"
        }
      ],
      "stateMutability": "nonpayable",
      "type": "constructor"
    },
    {
      "anonymous": false,
      "inputs": [
        {
          "indexed": false,
          "internalType": "uint256",
          "name": "startDate",
          "type": "uint256"
        },
        {
          "indexed": false,
          "internalType": "uint256",
          "name": "endDate",
          "type": "uint256"
        }
      ],
      "name": "CalculatingWinner",
      "type": "event"
    },
    {
      "anonymous": false,
      "inputs": [
        {
          "indexed": false,
          "internalType": "uint256",
          "name": "resultCount",
          "type": "uint256"
        }
      ],
      "name": "DebugPlayer",
      "type": "event"
    },
    {
      "anonymous": false,
      "inputs": [
        {
          "indexed": false,
          "internalType": "uint256",
          "name": "endDate",
          "type": "uint256"
        }
      ],
      "name": "LotteryHasEnded",
      "type": "event"
    },
    {
      "anonymous": false,
      "inputs": [
        {
          "indexed": false,
          "internalType": "uint256",
          "name": "enter_price",
          "type": "uint256"
        },
        {
          "indexed": false,
          "internalType": "uint256",
          "name": "startDate",
          "type": "uint256"
        },
        {
          "indexed": false,
          "internalType": "uint256",
          "name": "endDate",
          "type": "uint256"
        }
      ],
      "name": "LotteryHasStarted",
      "type": "event"
    },
    {
      "anonymous": false,
      "inputs": [
        {
          "indexed": false,
          "internalType": "uint128",
          "name": "fromBlock",
          "type": "uint128"
        },
        {
          "indexed": false,
          "internalType": "address",
          "name": "owner",
          "type": "address"
        },
        {
          "indexed": false,
          "internalType": "uint256",
          "name": "amount",
          "type": "uint256"
        }
      ],
      "name": "NewWinnerAdded",
      "type": "event"
    },
    {
      "anonymous": false,
      "inputs": [
        {
          "indexed": true,
          "internalType": "address",
          "name": "previousOwner",
          "type": "address"
        },
        {
          "indexed": true,
          "internalType": "address",
          "name": "newOwner",
          "type": "address"
        }
      ],
      "name": "OwnershipTransferred",
      "type": "event"
    },
    {
      "anonymous": false,
      "inputs": [
        {
          "indexed": false,
          "internalType": "uint256",
          "name": "resultCount",
          "type": "uint256"
        },
        {
          "indexed": false,
          "internalType": "uint256",
          "name": "_startDate",
          "type": "uint256"
        },
        {
          "indexed": false,
          "internalType": "uint256",
          "name": "_endDate",
          "type": "uint256"
        }
      ],
      "name": "PlayersFoundInRangeDate",
      "type": "event"
    },
    {
      "anonymous": false,
      "inputs": [
        {
          "indexed": true,
          "internalType": "bytes32",
          "name": "role",
          "type": "bytes32"
        },
        {
          "indexed": true,
          "internalType": "bytes32",
          "name": "previousAdminRole",
          "type": "bytes32"
        },
        {
          "indexed": true,
          "internalType": "bytes32",
          "name": "newAdminRole",
          "type": "bytes32"
        }
      ],
      "name": "RoleAdminChanged",
      "type": "event"
    },
    {
      "anonymous": false,
      "inputs": [
        {
          "indexed": true,
          "internalType": "bytes32",
          "name": "role",
          "type": "bytes32"
        },
        {
          "indexed": true,
          "internalType": "address",
          "name": "account",
          "type": "address"
        },
        {
          "indexed": true,
          "internalType": "address",
          "name": "sender",
          "type": "address"
        }
      ],
      "name": "RoleGranted",
      "type": "event"
    },
    {
      "anonymous": false,
      "inputs": [
        {
          "indexed": true,
          "internalType": "bytes32",
          "name": "role",
          "type": "bytes32"
        },
        {
          "indexed": true,
          "internalType": "address",
          "name": "account",
          "type": "address"
        },
        {
          "indexed": true,
          "internalType": "address",
          "name": "sender",
          "type": "address"
        }
      ],
      "name": "RoleRevoked",
      "type": "event"
    },
    {
      "anonymous": false,
      "inputs": [
        {
          "indexed": false,
          "internalType": "address",
          "name": "winner",
          "type": "address"
        },
        {
          "indexed": false,
          "internalType": "uint256",
          "name": "amount",
          "type": "uint256"
        },
        {
          "indexed": false,
          "internalType": "uint256",
          "name": "startDate",
          "type": "uint256"
        },
        {
          "indexed": false,
          "internalType": "uint256",
          "name": "endDate",
          "type": "uint256"
        }
      ],
      "name": "WinnerSelectedInDate",
      "type": "event"
    },
    {
      "inputs": [],
      "name": "DEFAULT_ADMIN_ROLE",
      "outputs": [
        {
          "internalType": "bytes32",
          "name": "",
          "type": "bytes32"
        }
      ],
      "stateMutability": "view",
      "type": "function",
      "constant": true
    },
    {
      "inputs": [],
      "name": "ENTER_PRICE",
      "outputs": [
        {
          "internalType": "uint256",
          "name": "",
          "type": "uint256"
        }
      ],
      "stateMutability": "view",
      "type": "function",
      "constant": true
    },
    {
      "inputs": [],
      "name": "LOTTERY_ROLE",
      "outputs": [
        {
          "internalType": "bytes32",
          "name": "",
          "type": "bytes32"
        }
      ],
      "stateMutability": "view",
      "type": "function",
      "constant": true
    },
    {
      "inputs": [
        {
          "internalType": "bytes32",
          "name": "role",
          "type": "bytes32"
        }
      ],
      "name": "getRoleAdmin",
      "outputs": [
        {
          "internalType": "bytes32",
          "name": "",
          "type": "bytes32"
        }
      ],
      "stateMutability": "view",
      "type": "function",
      "constant": true
    },
    {
      "inputs": [
        {
          "internalType": "bytes32",
          "name": "role",
          "type": "bytes32"
        },
        {
          "internalType": "uint256",
          "name": "index",
          "type": "uint256"
        }
      ],
      "name": "getRoleMember",
      "outputs": [
        {
          "internalType": "address",
          "name": "",
          "type": "address"
        }
      ],
      "stateMutability": "view",
      "type": "function",
      "constant": true
    },
    {
      "inputs": [
        {
          "internalType": "bytes32",
          "name": "role",
          "type": "bytes32"
        }
      ],
      "name": "getRoleMemberCount",
      "outputs": [
        {
          "internalType": "uint256",
          "name": "",
          "type": "uint256"
        }
      ],
      "stateMutability": "view",
      "type": "function",
      "constant": true
    },
    {
      "inputs": [
        {
          "internalType": "bytes32",
          "name": "role",
          "type": "bytes32"
        },
        {
          "internalType": "address",
          "name": "account",
          "type": "address"
        }
      ],
      "name": "grantRole",
      "outputs": [],
      "stateMutability": "nonpayable",
      "type": "function"
    },
    {
      "inputs": [
        {
          "internalType": "bytes32",
          "name": "role",
          "type": "bytes32"
        },
        {
          "internalType": "address",
          "name": "account",
          "type": "address"
        }
      ],
      "name": "hasRole",
      "outputs": [
        {
          "internalType": "bool",
          "name": "",
          "type": "bool"
        }
      ],
      "stateMutability": "view",
      "type": "function",
      "constant": true
    },
    {
      "inputs": [
        {
          "internalType": "uint256",
          "name": "",
          "type": "uint256"
        }
      ],
      "name": "lotery_players",
      "outputs": [
        {
          "internalType": "uint256",
          "name": "value",
          "type": "uint256"
        },
        {
          "internalType": "uint256",
          "name": "startDate",
          "type": "uint256"
        },
        {
          "internalType": "uint256",
          "name": "endDate",
          "type": "uint256"
        },
        {
          "internalType": "uint128",
          "name": "fromBlock",
          "type": "uint128"
        },
        {
          "internalType": "address",
          "name": "player",
          "type": "address"
        }
      ],
      "stateMutability": "view",
      "type": "function",
      "constant": true
    },
    {
      "inputs": [],
      "name": "lotteryId",
      "outputs": [
        {
          "internalType": "uint256",
          "name": "",
          "type": "uint256"
        }
      ],
      "stateMutability": "view",
      "type": "function",
      "constant": true
    },
    {
      "inputs": [],
      "name": "lottery_state",
      "outputs": [
        {
          "internalType": "enum Lottery.LOTTERY_STATE",
          "name": "",
          "type": "uint8"
        }
      ],
      "stateMutability": "view",
      "type": "function",
      "constant": true
    },
    {
      "inputs": [],
      "name": "owner",
      "outputs": [
        {
          "internalType": "address",
          "name": "",
          "type": "address"
        }
      ],
      "stateMutability": "view",
      "type": "function",
      "constant": true
    },
    {
      "inputs": [],
      "name": "percentageLessPriceResult",
      "outputs": [
        {
          "internalType": "uint256",
          "name": "",
          "type": "uint256"
        }
      ],
      "stateMutability": "view",
      "type": "function",
      "constant": true
    },
    {
      "inputs": [
        {
          "internalType": "uint256",
          "name": "",
          "type": "uint256"
        }
      ],
      "name": "players",
      "outputs": [
        {
          "internalType": "address payable",
          "name": "",
          "type": "address"
        }
      ],
      "stateMutability": "view",
      "type": "function",
      "constant": true
    },
    {
      "inputs": [],
      "name": "renounceOwnership",
      "outputs": [],
      "stateMutability": "nonpayable",
      "type": "function"
    },
    {
      "inputs": [
        {
          "internalType": "bytes32",
          "name": "role",
          "type": "bytes32"
        },
        {
          "internalType": "address",
          "name": "account",
          "type": "address"
        }
      ],
      "name": "renounceRole",
      "outputs": [],
      "stateMutability": "nonpayable",
      "type": "function"
    },
    {
      "inputs": [
        {
          "internalType": "bytes32",
          "name": "role",
          "type": "bytes32"
        },
        {
          "internalType": "address",
          "name": "account",
          "type": "address"
        }
      ],
      "name": "revokeRole",
      "outputs": [],
      "stateMutability": "nonpayable",
      "type": "function"
    },
    {
      "inputs": [
        {
          "internalType": "address",
          "name": "newOwner",
          "type": "address"
        }
      ],
      "name": "transferOwnership",
      "outputs": [],
      "stateMutability": "nonpayable",
      "type": "function"
    },
    {
      "inputs": [
        {
          "internalType": "uint256",
          "name": "_startDate",
          "type": "uint256"
        },
        {
          "internalType": "uint256",
          "name": "_endDate",
          "type": "uint256"
        }
      ],
      "name": "start_new_lottery",
      "outputs": [],
      "stateMutability": "nonpayable",
      "type": "function"
    },
    {
      "inputs": [
        {
          "internalType": "uint256",
          "name": "_startDate",
          "type": "uint256"
        },
        {
          "internalType": "uint256",
          "name": "_endDate",
          "type": "uint256"
        }
      ],
      "name": "start_new_lottery_with",
      "outputs": [],
      "stateMutability": "nonpayable",
      "type": "function"
    },
    {
      "inputs": [
        {
          "internalType": "address",
          "name": "user_with_role_to_add",
          "type": "address"
        }
      ],
      "name": "add_lottery_worker",
      "outputs": [],
      "stateMutability": "nonpayable",
      "type": "function"
    },
    {
      "inputs": [],
      "name": "enter",
      "outputs": [],
      "stateMutability": "payable",
      "type": "function",
      "payable": true
    },
    {
      "inputs": [
        {
          "internalType": "uint256",
          "name": "_saltRandomNumber",
          "type": "uint256"
        }
      ],
      "name": "pickWinner",
      "outputs": [],
      "stateMutability": "nonpayable",
      "type": "function"
    },
    {
      "inputs": [
        {
          "internalType": "uint256",
          "name": "_saltRandomNumber",
          "type": "uint256"
        }
      ],
      "name": "pick_winner_with",
      "outputs": [],
      "stateMutability": "nonpayable",
      "type": "function"
    },
    {
      "inputs": [],
      "name": "getLastWinner",
      "outputs": [
        {
          "internalType": "bool",
          "name": "",
          "type": "bool"
        },
        {
          "internalType": "uint128",
          "name": "",
          "type": "uint128"
        },
        {
          "internalType": "address",
          "name": "",
          "type": "address"
        },
        {
          "internalType": "uint256",
          "name": "",
          "type": "uint256"
        }
      ],
      "stateMutability": "view",
      "type": "function",
      "constant": true
    },
    {
      "inputs": [
        {
          "internalType": "uint128",
          "name": "_fromBlock",
          "type": "uint128"
        }
      ],
      "name": "getWinnerAtBlock",
      "outputs": [
        {
          "internalType": "bool",
          "name": "",
          "type": "bool"
        },
        {
          "internalType": "uint128",
          "name": "",
          "type": "uint128"
        },
        {
          "internalType": "address",
          "name": "",
          "type": "address"
        },
        {
          "internalType": "uint256",
          "name": "",
          "type": "uint256"
        }
      ],
      "stateMutability": "view",
      "type": "function",
      "constant": true
    },
    {
      "inputs": [],
      "name": "getMainBalance",
      "outputs": [
        {
          "internalType": "uint256",
          "name": "",
          "type": "uint256"
        }
      ],
      "stateMutability": "view",
      "type": "function",
      "constant": true
    },
    {
      "inputs": [],
      "name": "getStatus",
      "outputs": [
        {
          "internalType": "enum Lottery.LOTTERY_STATE",
          "name": "",
          "type": "uint8"
        }
      ],
      "stateMutability": "view",
      "type": "function",
      "constant": true
    }
  ],
  "bytecode": "0x60806040523480156200001157600080fd5b506040516200301a3803806200301a833981810160405260608110156200003757600080fd5b8101908080519060200190929190805190602001909291908051906020019092919050505060006200006e620001a360201b60201c565b9050806000806101000a81548173ffffffffffffffffffffffffffffffffffffffff021916908373ffffffffffffffffffffffffffffffffffffffff1602179055508073ffffffffffffffffffffffffffffffffffffffff16600073ffffffffffffffffffffffffffffffffffffffff167f8be0079c531659141344cd1fd0a4f28419497f9722a3daafe3b4186f6b6457e060405160405180910390a35081600560006101000a81548173ffffffffffffffffffffffffffffffffffffffff021916908373ffffffffffffffffffffffffffffffffffffffff16021790555060006008819055506001600260006101000a81548160ff021916908360028111156200017557fe5b0217905550806009819055506014600a819055506200019a83620001ab60201b60201c565b505050620003da565b600033905090565b620001bb620001a360201b60201c565b73ffffffffffffffffffffffffffffffffffffffff16620001e1620003b160201b60201c565b73ffffffffffffffffffffffffffffffffffffffff16146200026b576040517f08c379a00000000000000000000000000000000000000000000000000000000081526004018080602001828103825260208152602001807f4f776e61626c653a2063616c6c6572206973206e6f7420746865206f776e657281525060200191505060405180910390fd5b600073ffffffffffffffffffffffffffffffffffffffff168173ffffffffffffffffffffffffffffffffffffffff161415620002f3576040517f08c379a000000000000000000000000000000000000000000000000000000000815260040180806020018281038252602681526020018062002ff46026913960400191505060405180910390fd5b8073ffffffffffffffffffffffffffffffffffffffff166000809054906101000a900473ffffffffffffffffffffffffffffffffffffffff1673ffffffffffffffffffffffffffffffffffffffff167f8be0079c531659141344cd1fd0a4f28419497f9722a3daafe3b4186f6b6457e060405160405180910390a3806000806101000a81548173ffffffffffffffffffffffffffffffffffffffff021916908373ffffffffffffffffffffffffffffffffffffffff16021790555050565b60008060009054906101000a900473ffffffffffffffffffffffffffffffffffffffff16905090565b612c0a80620003ea6000396000f3fe6080604052600436106101b75760003560e01c8063a22dff2c116100ec578063dd90f0061161008a578063f2fde38b11610064578063f2fde38b146108ea578063f71d96cb1461093b578063f737d21d146109b6578063f88649a1146109f1576101b7565b8063dd90f0061461088a578063e580f47b146108b5578063e97dcb62146108e0576101b7565b8063ca15c873116100c6578063ca15c87314610756578063d547741f146107a5578063d7ce9b4014610800578063dd1ac6ee14610845576101b7565b8063a22dff2c14610626578063b218689414610651578063c5728aec1461071b576101b7565b8063715018a6116101595780639010d07c116101335780639010d07c146104b257806391d14854146105375780639dd85e89146105aa578063a217fddf146105fb576101b7565b8063715018a61461040b57806381447999146104225780638da5cb5b1461045b576101b7565b806338090ec61161019557806338090ec6146102c1578063390ed6a6146102ec57806346b62ae0146103175780634e69d560146103d2576101b7565b8063248a9ca3146101bc5780632f2ff15d1461020b57806336568abe14610266575b600080fd5b3480156101c857600080fd5b506101f5600480360360208110156101df57600080fd5b8101908080359060200190929190505050610a85565b6040518082815260200191505060405180910390f35b34801561021757600080fd5b506102646004803603604081101561022e57600080fd5b8101908080359060200190929190803573ffffffffffffffffffffffffffffffffffffffff169060200190929190505050610aa5565b005b34801561027257600080fd5b506102bf6004803603604081101561028957600080fd5b8101908080359060200190929190803573ffffffffffffffffffffffffffffffffffffffff169060200190929190505050610b2f565b005b3480156102cd57600080fd5b506102d6610bc8565b6040518082815260200191505060405180910390f35b3480156102f857600080fd5b50610301610c01565b6040518082815260200191505060405180910390f35b34801561032357600080fd5b506103506004803603602081101561033a57600080fd5b8101908080359060200190929190505050610c07565b60405180868152602001858152602001848152602001836fffffffffffffffffffffffffffffffff166fffffffffffffffffffffffffffffffff1681526020018273ffffffffffffffffffffffffffffffffffffffff1673ffffffffffffffffffffffffffffffffffffffff1681526020019550505050505060405180910390f35b3480156103de57600080fd5b506103e7610c86565b604051808260028111156103f757fe5b60ff16815260200191505060405180910390f35b34801561041757600080fd5b50610420610c9d565b005b34801561042e57600080fd5b50610437610e0b565b6040518082600281111561044757fe5b60ff16815260200191505060405180910390f35b34801561046757600080fd5b50610470610e1e565b604051808273ffffffffffffffffffffffffffffffffffffffff1673ffffffffffffffffffffffffffffffffffffffff16815260200191505060405180910390f35b3480156104be57600080fd5b506104f5600480360360408110156104d557600080fd5b810190808035906020019092919080359060200190929190505050610e47565b604051808273ffffffffffffffffffffffffffffffffffffffff1673ffffffffffffffffffffffffffffffffffffffff16815260200191505060405180910390f35b34801561054357600080fd5b506105906004803603604081101561055a57600080fd5b8101908080359060200190929190803573ffffffffffffffffffffffffffffffffffffffff169060200190929190505050610e79565b604051808215151515815260200191505060405180910390f35b3480156105b657600080fd5b506105f9600480360360208110156105cd57600080fd5b81019080803573ffffffffffffffffffffffffffffffffffffffff169060200190929190505050610eab565b005b34801561060757600080fd5b50610610610f9c565b6040518082815260200191505060405180910390f35b34801561063257600080fd5b5061063b610fa3565b6040518082815260200191505060405180910390f35b34801561065d57600080fd5b5061069c6004803603602081101561067457600080fd5b8101908080356fffffffffffffffffffffffffffffffff169060200190929190505050610fab565b6040518085151515158152602001846fffffffffffffffffffffffffffffffff166fffffffffffffffffffffffffffffffff1681526020018373ffffffffffffffffffffffffffffffffffffffff1673ffffffffffffffffffffffffffffffffffffffff16815260200182815260200194505050505060405180910390f35b34801561072757600080fd5b506107546004803603602081101561073e57600080fd5b81019080803590602001909291905050506110fa565b005b34801561076257600080fd5b5061078f6004803603602081101561077957600080fd5b81019080803590602001909291905050506111b7565b6040518082815260200191505060405180910390f35b3480156107b157600080fd5b506107fe600480360360408110156107c857600080fd5b8101908080359060200190929190803573ffffffffffffffffffffffffffffffffffffffff1690602001909291905050506111de565b005b34801561080c57600080fd5b506108436004803603604081101561082357600080fd5b810190808035906020019092919080359060200190929190505050611268565b005b34801561085157600080fd5b506108886004803603604081101561086857600080fd5b810190808035906020019092919080359060200190929190505050611327565b005b34801561089657600080fd5b5061089f6113e4565b6040518082815260200191505060405180910390f35b3480156108c157600080fd5b506108ca6113ea565b6040518082815260200191505060405180910390f35b6108e86113f0565b005b3480156108f657600080fd5b506109396004803603602081101561090d57600080fd5b81019080803573ffffffffffffffffffffffffffffffffffffffff16906020019092919050505061166e565b005b34801561094757600080fd5b506109746004803603602081101561095e57600080fd5b8101908080359060200190929190505050611861565b604051808273ffffffffffffffffffffffffffffffffffffffff1673ffffffffffffffffffffffffffffffffffffffff16815260200191505060405180910390f35b3480156109c257600080fd5b506109ef600480360360208110156109d957600080fd5b810190808035906020019092919050505061189d565b005b3480156109fd57600080fd5b50610a06611958565b6040518085151515158152602001846fffffffffffffffffffffffffffffffff166fffffffffffffffffffffffffffffffff1681526020018373ffffffffffffffffffffffffffffffffffffffff1673ffffffffffffffffffffffffffffffffffffffff16815260200182815260200194505050505060405180910390f35b600060016000838152602001908152602001600020600201549050919050565b610acc6001600084815260200190815260200160002060020154610ac7611a99565b610e79565b610b21576040517f08c379a000000000000000000000000000000000000000000000000000000000815260040180806020018281038252602f815260200180612abc602f913960400191505060405180910390fd5b610b2b8282611aa1565b5050565b610b37611a99565b73ffffffffffffffffffffffffffffffffffffffff168173ffffffffffffffffffffffffffffffffffffffff1614610bba576040517f08c379a000000000000000000000000000000000000000000000000000000000815260040180806020018281038252602f815260200180612ba6602f913960400191505060405180910390fd5b610bc48282611b35565b5050565b60405180807f4c4f54544552595f524f4c450000000000000000000000000000000000000000815250600c019050604051809103902081565b60095481565b60048181548110610c1457fe5b90600052602060002090600502016000915090508060000154908060010154908060020154908060030160009054906101000a90046fffffffffffffffffffffffffffffffff16908060040160009054906101000a900473ffffffffffffffffffffffffffffffffffffffff16905085565b6000600260009054906101000a900460ff16905090565b610ca5611a99565b73ffffffffffffffffffffffffffffffffffffffff16610cc3610e1e565b73ffffffffffffffffffffffffffffffffffffffff1614610d4c576040517f08c379a00000000000000000000000000000000000000000000000000000000081526004018080602001828103825260208152602001807f4f776e61626c653a2063616c6c6572206973206e6f7420746865206f776e657281525060200191505060405180910390fd5b600073ffffffffffffffffffffffffffffffffffffffff166000809054906101000a900473ffffffffffffffffffffffffffffffffffffffff1673ffffffffffffffffffffffffffffffffffffffff167f8be0079c531659141344cd1fd0a4f28419497f9722a3daafe3b4186f6b6457e060405160405180910390a360008060006101000a81548173ffffffffffffffffffffffffffffffffffffffff021916908373ffffffffffffffffffffffffffffffffffffffff160217905550565b600260009054906101000a900460ff1681565b60008060009054906101000a900473ffffffffffffffffffffffffffffffffffffffff16905090565b6000610e718260016000868152602001908152602001600020600001611bc990919063ffffffff16565b905092915050565b6000610ea38260016000868152602001908152602001600020600001611be390919063ffffffff16565b905092915050565b610eb3611a99565b73ffffffffffffffffffffffffffffffffffffffff16610ed1610e1e565b73ffffffffffffffffffffffffffffffffffffffff1614610f5a576040517f08c379a00000000000000000000000000000000000000000000000000000000081526004018080602001828103825260208152602001807f4f776e61626c653a2063616c6c6572206973206e6f7420746865206f776e657281525060200191505060405180910390fd5b610f9960405180807f4c4f54544552595f524f4c450000000000000000000000000000000000000000815250600c019050604051809103902082611c13565b50565b6000801b81565b600047905090565b60008060008060008090505b600b805490508110156110e057856fffffffffffffffffffffffffffffffff16600b8281548110610fe457fe5b906000526020600020906005020160030160009054906101000a90046fffffffffffffffffffffffffffffffff166fffffffffffffffffffffffffffffffff1614156110d3576001600b828154811061103957fe5b906000526020600020906005020160030160009054906101000a90046fffffffffffffffffffffffffffffffff16600b838154811061107457fe5b906000526020600020906005020160040160009054906101000a900473ffffffffffffffffffffffffffffffffffffffff16600b84815481106110b357fe5b9060005260206000209060050201600001549450945094509450506110f3565b8080600101915050610fb7565b5060008060008081915093509350935093505b9193509193565b61113960405180807f4c4f54544552595f524f4c450000000000000000000000000000000000000000815250600c019050604051809103902033610e79565b6111ab576040517f08c379a000000000000000000000000000000000000000000000000000000000815260040180806020018281038252601d8152602001807f43616c6c6572206973206e6f742061206c6f747465727920726f6c652e00000081525060200191505060405180910390fd5b6111b481611c21565b50565b60006111d760016000848152602001908152602001600020600001611fa9565b9050919050565b6112056001600084815260200190815260200160002060020154611200611a99565b610e79565b61125a576040517f08c379a0000000000000000000000000000000000000000000000000000000008152600401808060200182810382526030815260200180612b116030913960400191505060405180910390fd5b6112648282611b35565b5050565b6112a760405180807f4c4f54544552595f524f4c450000000000000000000000000000000000000000815250600c019050604051809103902033610e79565b611319576040517f08c379a000000000000000000000000000000000000000000000000000000000815260040180806020018281038252601d8152602001807f43616c6c6572206973206e6f742061206c6f747465727920726f6c652e00000081525060200191505060405180910390fd5b6113238282611fbe565b5050565b61132f611a99565b73ffffffffffffffffffffffffffffffffffffffff1661134d610e1e565b73ffffffffffffffffffffffffffffffffffffffff16146113d6576040517f08c379a00000000000000000000000000000000000000000000000000000000081526004018080602001828103825260208152602001807f4f776e61626c653a2063616c6c6572206973206e6f7420746865206f776e657281525060200191505060405180910390fd5b6113e08282611fbe565b5050565b600a5481565b60085481565b600954341461144a576040517f08c379a0000000000000000000000000000000000000000000000000000000008152600401808060200182810382526022815260200180612b626022913960400191505060405180910390fd5b6000600281111561145757fe5b600260009054906101000a900460ff16600281111561147257fe5b146114e5576040517f08c379a00000000000000000000000000000000000000000000000000000000081526004018080602001828103825260208152602001807f546865206c6f7474657279206861736e2774206576656e20737461727465642181525060200191505060405180910390fd5b6003339080600181540180825580915050600190039060005260206000200160009091909190916101000a81548173ffffffffffffffffffffffffffffffffffffffff021916908373ffffffffffffffffffffffffffffffffffffffff16021790555060046040518060a0016040528034815260200160065481526020016007548152602001436fffffffffffffffffffffffffffffffff1681526020013373ffffffffffffffffffffffffffffffffffffffff16815250908060018154018082558091505060019003906000526020600020906005020160009091909190915060008201518160000155602082015181600101556040820151816002015560608201518160030160006101000a8154816fffffffffffffffffffffffffffffffff02191690836fffffffffffffffffffffffffffffffff16021790555060808201518160040160006101000a81548173ffffffffffffffffffffffffffffffffffffffff021916908373ffffffffffffffffffffffffffffffffffffffff1602179055505050565b611676611a99565b73ffffffffffffffffffffffffffffffffffffffff16611694610e1e565b73ffffffffffffffffffffffffffffffffffffffff161461171d576040517f08c379a00000000000000000000000000000000000000000000000000000000081526004018080602001828103825260208152602001807f4f776e61626c653a2063616c6c6572206973206e6f7420746865206f776e657281525060200191505060405180910390fd5b600073ffffffffffffffffffffffffffffffffffffffff168173ffffffffffffffffffffffffffffffffffffffff1614156117a3576040517f08c379a0000000000000000000000000000000000000000000000000000000008152600401808060200182810382526026815260200180612aeb6026913960400191505060405180910390fd5b8073ffffffffffffffffffffffffffffffffffffffff166000809054906101000a900473ffffffffffffffffffffffffffffffffffffffff1673ffffffffffffffffffffffffffffffffffffffff167f8be0079c531659141344cd1fd0a4f28419497f9722a3daafe3b4186f6b6457e060405160405180910390a3806000806101000a81548173ffffffffffffffffffffffffffffffffffffffff021916908373ffffffffffffffffffffffffffffffffffffffff16021790555050565b6003818154811061186e57fe5b906000526020600020016000915054906101000a900473ffffffffffffffffffffffffffffffffffffffff1681565b6118a5611a99565b73ffffffffffffffffffffffffffffffffffffffff166118c3610e1e565b73ffffffffffffffffffffffffffffffffffffffff161461194c576040517f08c379a00000000000000000000000000000000000000000000000000000000081526004018080602001828103825260208152602001807f4f776e61626c653a2063616c6c6572206973206e6f7420746865206f776e657281525060200191505060405180910390fd5b61195581611c21565b50565b6000806000806000600b805490501115611a8157611974612994565b600b6001600b80549050038154811061198957fe5b90600052602060002090600502016040518060a00160405290816000820154815260200160018201548152602001600282015481526020016003820160009054906101000a90046fffffffffffffffffffffffffffffffff166fffffffffffffffffffffffffffffffff166fffffffffffffffffffffffffffffffff1681526020016004820160009054906101000a900473ffffffffffffffffffffffffffffffffffffffff1673ffffffffffffffffffffffffffffffffffffffff1673ffffffffffffffffffffffffffffffffffffffff168152505090506001816060015182608001518360000151945094509450945050611a93565b60008060008081915093509350935093505b90919293565b600033905090565b611ac981600160008581526020019081526020016000206000016120dc90919063ffffffff16565b15611b3157611ad6611a99565b73ffffffffffffffffffffffffffffffffffffffff168173ffffffffffffffffffffffffffffffffffffffff16837f2f8788117e7eff1d82e926ec794901d17c78024a50270940304540a733656f0d60405160405180910390a45b5050565b611b5d816001600085815260200190815260200160002060000161210c90919063ffffffff16565b15611bc557611b6a611a99565b73ffffffffffffffffffffffffffffffffffffffff168173ffffffffffffffffffffffffffffffffffffffff16837ff6391f5c32d9c69d2a47ea670b442974b53935d1edc7fd64eb21e047a839171b60405160405180910390a45b5050565b6000611bd8836000018361213c565b60001c905092915050565b6000611c0b836000018373ffffffffffffffffffffffffffffffffffffffff1660001b6121bf565b905092915050565b611c1d8282611aa1565b5050565b60006002811115611c2e57fe5b600260009054906101000a900460ff166002811115611c4957fe5b14611cbc576040517f08c379a00000000000000000000000000000000000000000000000000000000081526004018080602001828103825260208152602001807f546865206c6f7474657279206861736e2774206576656e20737461727465642181525060200191505060405180910390fd5b600280811115611cc857fe5b600260009054906101000a900460ff166002811115611ce357fe5b1415611d3a576040517f08c379a0000000000000000000000000000000000000000000000000000000008152600401808060200182810382526022815260200180612b846022913960400191505060405180910390fd5b60028060006101000a81548160ff02191690836002811115611d5857fe5b02179055507f4909f6329a582e86a81d1f0a21d9a6444c05e80f5d7fe983f89490645a5e1543600654600754604051808381526020018281526020019250505060405180910390a16060611db06006546007546121e2565b9050611dc06001825103836123b1565b600881905550611dce6129eb565b8160085481518110611ddc57fe5b60200260200101519050600560009054906101000a900473ffffffffffffffffffffffffffffffffffffffff1673ffffffffffffffffffffffffffffffffffffffff166108fc611e2a61242d565b9081150290604051600060405180830381858888f19350505050158015611e55573d6000803e3d6000fd5b50611e6b8160800151611e66612447565b61244f565b7f7187cdfe23735dcb26032ab8143903c4825da0e90fc54c079ff191e396398ff78160800151611e99612447565b600654600754604051808573ffffffffffffffffffffffffffffffffffffffff1673ffffffffffffffffffffffffffffffffffffffff16815260200184815260200183815260200182815260200194505050505060405180910390a1806080015173ffffffffffffffffffffffffffffffffffffffff166108fc611f1b612447565b9081150290604051600060405180830381858888f19350505050158015611f46573d6000803e3d6000fd5b506001600260006101000a81548160ff02191690836002811115611f6657fe5b02179055507f4e6364ba131593b08a3a1d651d77997d48a9df9c40bb681c8fb1088caa10acca6007546040518082815260200191505060405180910390a1505050565b6000611fb782600001612614565b9050919050565b60016002811115611fcb57fe5b600260009054906101000a900460ff166002811115611fe657fe5b14612059576040517f08c379a000000000000000000000000000000000000000000000000000000000815260040180806020018281038252601d8152602001807f43616e27742073746172742061206e6577206c6f74746572792079657400000081525060200191505060405180910390fd5b6000600260006101000a81548160ff0219169083600281111561207857fe5b021790555081600681905550806007819055507ff0543a89795cff517d42c396ed640669ebd342bcc948898dfbfec95ee2b5266760095460065460075460405180848152602001838152602001828152602001935050505060405180910390a15050565b6000612104836000018373ffffffffffffffffffffffffffffffffffffffff1660001b612625565b905092915050565b6000612134836000018373ffffffffffffffffffffffffffffffffffffffff1660001b612695565b905092915050565b60008183600001805490501161219d576040517f08c379a0000000000000000000000000000000000000000000000000000000008152600401808060200182810382526022815260200180612a9a6022913960400191505060405180910390fd5b8260000182815481106121ac57fe5b9060005260206000200154905092915050565b600080836001016000848152602001908152602001600020541415905092915050565b6060806121ef848461277d565b60405190808252806020026020018201604052801561222857816020015b612215612a42565b81526020019060019003908161220d5790505b509050600080905060008090505b6004805490508110156123a557856004828154811061225157fe5b9060005260206000209060050201600101541015801561228f5750846004828154811061227a57fe5b90600052602060002090600502016002015411155b1561239857600481815481106122a157fe5b90600052602060002090600502016040518060a00160405290816000820154815260200160018201548152602001600282015481526020016003820160009054906101000a90046fffffffffffffffffffffffffffffffff166fffffffffffffffffffffffffffffffff166fffffffffffffffffffffffffffffffff1681526020016004820160009054906101000a900473ffffffffffffffffffffffffffffffffffffffff1673ffffffffffffffffffffffffffffffffffffffff1673ffffffffffffffffffffffffffffffffffffffff168152505083838151811061238457fe5b602002602001018190525081806001019250505b8080600101915050612236565b50819250505092915050565b600082423384604051602001808481526020018373ffffffffffffffffffffffffffffffffffffffff1673ffffffffffffffffffffffffffffffffffffffff1660601b815260140182815260200193505050506040516020818303038152906040528051906020012060001c8161242457fe5b06905092915050565b6000612442600a5461243d612447565b612850565b905090565b600047905090565b600b6040518060a0016040528083815260200160065481526020016007548152602001600143036fffffffffffffffffffffffffffffffff1681526020018473ffffffffffffffffffffffffffffffffffffffff16815250908060018154018082558091505060019003906000526020600020906005020160009091909190915060008201518160000155602082015181600101556040820151816002015560608201518160030160006101000a8154816fffffffffffffffffffffffffffffffff02191690836fffffffffffffffffffffffffffffffff16021790555060808201518160040160006101000a81548173ffffffffffffffffffffffffffffffffffffffff021916908373ffffffffffffffffffffffffffffffffffffffff16021790555050507faa17b54b0149ffcb9131f40d990c831b0614d347cfbf00f9eb541b772a417ecd60014303838360405180846fffffffffffffffffffffffffffffffff166fffffffffffffffffffffffffffffffff1681526020018373ffffffffffffffffffffffffffffffffffffffff1673ffffffffffffffffffffffffffffffffffffffff168152602001828152602001935050505060405180910390a15050565b600081600001805490509050919050565b600061263183836121bf565b61268a57826000018290806001815401808255809150506001900390600052602060002001600090919091909150558260000180549050836001016000848152602001908152602001600020819055506001905061268f565b600090505b92915050565b6000808360010160008481526020019081526020016000205490506000811461277157600060018203905060006001866000018054905003905060008660000182815481106126e057fe5b90600052602060002001549050808760000184815481106126fd57fe5b906000526020600020018190555060018301876001016000838152602001908152602001600020819055508660000180548061273557fe5b60019003818190600052602060002001600090559055866001016000878152602001908152602001600020600090556001945050505050612777565b60009150505b92915050565b6000806000905060008090505b6004805490508110156127fe5784600482815481106127a557fe5b906000526020600020906005020160010154101580156127e3575083600482815481106127ce57fe5b90600052602060002090600502016002015411155b156127f15781806001019250505b808060010191505061278a565b507f6f23683476c583c75f779c888c65cb8aeeb07d114d6226e0d7d6cbb782c50abf81858560405180848152602001838152602001828152602001935050505060405180910390a18091505092915050565b600080612866848461288590919063ffffffff16565b905061287c60648261290b90919063ffffffff16565b91505092915050565b6000808314156128985760009050612905565b60008284029050828482816128a957fe5b0414612900576040517f08c379a0000000000000000000000000000000000000000000000000000000008152600401808060200182810382526021815260200180612b416021913960400191505060405180910390fd5b809150505b92915050565b6000808211612982576040517f08c379a000000000000000000000000000000000000000000000000000000000815260040180806020018281038252601a8152602001807f536166654d6174683a206469766973696f6e206279207a65726f00000000000081525060200191505060405180910390fd5b81838161298b57fe5b04905092915050565b6040518060a0016040528060008152602001600081526020016000815260200160006fffffffffffffffffffffffffffffffff168152602001600073ffffffffffffffffffffffffffffffffffffffff1681525090565b6040518060a0016040528060008152602001600081526020016000815260200160006fffffffffffffffffffffffffffffffff168152602001600073ffffffffffffffffffffffffffffffffffffffff1681525090565b6040518060a0016040528060008152602001600081526020016000815260200160006fffffffffffffffffffffffffffffffff168152602001600073ffffffffffffffffffffffffffffffffffffffff168152509056fe456e756d657261626c655365743a20696e646578206f7574206f6620626f756e6473416363657373436f6e74726f6c3a2073656e646572206d75737420626520616e2061646d696e20746f206772616e744f776e61626c653a206e6577206f776e657220697320746865207a65726f2061646472657373416363657373436f6e74726f6c3a2073656e646572206d75737420626520616e2061646d696e20746f207265766f6b65536166654d6174683a206d756c7469706c69636174696f6e206f766572666c6f7754686520707269636520746f20656e746572206973206e6f7420636f72726563742e497320616c72656164792063616c63756c6174696e67207468652077696e6e65722e416363657373436f6e74726f6c3a2063616e206f6e6c792072656e6f756e636520726f6c657320666f722073656c66a2646970667358221220eedbb5e97541b38f2b0ffa699433914c5c9d4f405a2930ff8f11aeef2cc5023964736f6c634300060200334f776e61626c653a206e6577206f776e657220697320746865207a65726f2061646472657373",
  "source": "// SPDX-License-Identifier: MIT\npragma solidity >=0.6.0 <0.8.0;\nimport \"@openzeppelin/contracts/math/SafeMath.sol\";\nimport \"@openzeppelin/contracts/access/Ownable.sol\";\nimport \"@openzeppelin/contracts/access/AccessControl.sol\";\n\ncontract Lottery is Ownable, AccessControl {\n    enum LOTTERY_STATE { OPEN, CLOSED, CALCULATING_WINNER }\n    LOTTERY_STATE public lottery_state;\n    address payable[] public players;\n    CheckpointLotteryPlayer[] public lotery_players;\n    address payable private owner_beneficiary;\n    uint256 startDate;\n    uint256 endDate; \n    uint256 public lotteryId;\n    uint256 public ENTER_PRICE;\n    uint256 public percentageLessPriceResult;\n    bytes32 public constant LOTTERY_ROLE = keccak256(\"LOTTERY_ROLE\");\n    using SafeMath for uint256;\n\n    struct  CheckpointWinner {\n        uint256 value;\n        uint256 startDate;\n        uint256 endDate; \n        uint128 fromBlock;\n        address winner;\n        \n    }\n\n    struct CheckpointLotteryPlayer {\n        uint256 value;\n        uint256 startDate;\n        uint256 endDate; \n        uint128 fromBlock;\n        address player;\n    }\n    event NewWinnerAdded(uint128 fromBlock, address owner, uint amount);\n    event LotteryHasEnded(uint256 endDate);\n    event CalculatingWinner( uint256 startDate, uint256 endDate);\n    event LotteryHasStarted(uint256 enter_price, uint256 startDate, uint256 endDate);\n    event WinnerSelectedInDate(address winner, uint256 amount, uint256 startDate, uint256 endDate);\n    event PlayersFoundInRangeDate( uint256 resultCount, uint256 _startDate,  uint256 _endDate);\n    event DebugPlayer( uint256 resultCount);\n    CheckpointWinner[] winnersHistory;\n\n    constructor(address _owner_contract, address _owner_beneficiary, uint256 _enter_price) public {\n        owner_beneficiary = payable(address(_owner_beneficiary));\n        lotteryId = 0;\n        lottery_state = LOTTERY_STATE.CLOSED;  \n        ENTER_PRICE = _enter_price;\n        percentageLessPriceResult = uint256(20);\n        transferOwnership(_owner_contract);\n    }\n    \n    function start_new_lottery(uint256 _startDate, uint256 _endDate) external onlyOwner {\n        start_lottery(_startDate, _endDate);       \n    }\n\n    function start_new_lottery_with(uint256 _startDate, uint256 _endDate) external {\n        require(hasRole(LOTTERY_ROLE, msg.sender), \"Caller is not a lottery role.\");\n        start_lottery(_startDate, _endDate);\n    }\n    \n    function start_lottery(uint256 _startDate, uint256 _endDate) private {\n        require(lottery_state == LOTTERY_STATE.CLOSED, \"Can't start a new lottery yet\");\n        lottery_state = LOTTERY_STATE.OPEN;\n        startDate = _startDate;\n        endDate = _endDate; \n        emit LotteryHasStarted(ENTER_PRICE, startDate, endDate);\n    }\n\n    function add_lottery_worker(address user_with_role_to_add) external onlyOwner {\n        _setupRole(LOTTERY_ROLE, user_with_role_to_add);\n    }\n\n    function enter() external payable {\n        require(uint256(msg.value) == ENTER_PRICE, \"The price to enter is not correct.\");\n        require(lottery_state == LOTTERY_STATE.OPEN, \"The lottery hasn't even started!\");\n        players.push(msg.sender);\n        lotery_players.push(CheckpointLotteryPlayer({\n            value: uint256(msg.value),\n            fromBlock: uint128(block.number),\n            player: msg.sender,\n            startDate: startDate,\n            endDate: endDate\n        }));\n    } \n    \n    function pickWinner(uint _saltRandomNumber) external onlyOwner {\n        pick_winner_action(_saltRandomNumber);\n    }\n\n    function pick_winner_with(uint _saltRandomNumber) external {\n        require(hasRole(LOTTERY_ROLE, msg.sender), \"Caller is not a lottery role.\");\n        pick_winner_action(_saltRandomNumber);\n    }\n\n    function pick_winner_action(uint _saltRandomNumber) private {\n        require(lottery_state == LOTTERY_STATE.OPEN, \"The lottery hasn't even started!\");\n        require(lottery_state != LOTTERY_STATE.CALCULATING_WINNER, \"Is already calculating the winner.\");\n        lottery_state = LOTTERY_STATE.CALCULATING_WINNER;\n        emit CalculatingWinner( startDate, endDate);\n        CheckpointLotteryPlayer[] memory playersFounded = getPlayersFromToDate( startDate, endDate);\n        lotteryId = getRandomWinner(playersFounded.length - 1, _saltRandomNumber);\n        CheckpointLotteryPlayer memory winnerSelected = playersFounded[lotteryId];\n        payable(owner_beneficiary).transfer(calculateBenefitResult());\n        updateWinnerHistory(winnerSelected.player, getBalance());\n        emit WinnerSelectedInDate(winnerSelected.player, getBalance(), startDate, endDate);\n        payable(winnerSelected.player).transfer(getBalance());\n        lottery_state = LOTTERY_STATE.CLOSED;\n        emit LotteryHasEnded(endDate);\n    }\n\n    function getLastWinner() external view returns( bool, uint128, address, uint256){\n        if(winnersHistory.length > 0){\n            CheckpointWinner memory winner = winnersHistory[winnersHistory.length - 1];\n            return (true, winner.fromBlock, winner.winner, winner.value);\n        }\n        return(false, uint128(0), address(0),uint256(0));\n    }\n\n    function getWinnerAtBlock(uint128 _fromBlock) external view returns(bool,uint128, address, uint256){\n        for(uint i = 0; i<winnersHistory.length; i++){\n            if(winnersHistory[i].fromBlock == _fromBlock){\n                return (true,winnersHistory[i].fromBlock, winnersHistory[i].winner, winnersHistory[i].value);\n            }\n        }\n        return(false, uint128(0), address(0),uint256(0));\n    }\n\n    function getPlayersFromToDate( uint256 _startDate, uint256 _endDate) private returns(CheckpointLotteryPlayer[] memory){\n        CheckpointLotteryPlayer[] memory playersFound =  new CheckpointLotteryPlayer[](getPlayersFromToDateCount(\n            _startDate, \n            _endDate \n        ));\n        uint j = 0;\n        for(uint i = 0; i < lotery_players.length; i++) {\n            if(lotery_players[i].startDate >= _startDate && lotery_players[i].endDate <= _endDate){\n                playersFound[j] = lotery_players[i];\n                j++;\n            }\n        }\n        return playersFound;\n    }\n\n    function getPlayersFromToDateCount( uint256 _startDate, uint256 _endDate) private returns(uint256){\n        uint256 resultCount = 0;\n        for(uint i = 0; i < lotery_players.length; i++){\n            if(lotery_players[i].startDate >= _startDate && lotery_players[i].endDate <= _endDate){\n                resultCount++;\n            }\n        }\n        emit PlayersFoundInRangeDate( resultCount, _startDate,  _endDate);\n        return resultCount;\n    }\n\n    function getMainBalance() external view returns (uint){\n        return address(this).balance;\n    }\n\n    function getStatus() external view returns (LOTTERY_STATE){\n        return lottery_state;\n    }\n\n    // TODO: In the future could use Chainlink VRF to generate decentralize random numbers, on this implementation is solydity but needs to go Chainlink VRF some day is just a suggestion.\n    function getRandomWinner(uint _modulus, uint randNonce) private view returns (uint256) {\n        return uint256(keccak256(abi.encodePacked(block.timestamp,  \n                                          msg.sender,  \n                                          randNonce))) % _modulus;\n    }\n\n    function updateWinnerHistory(address _address, uint256 _amount) private {\n        winnersHistory.push(CheckpointWinner(\n            {\n                fromBlock: uint128(block.number - 1),\n                value: _amount,\n                winner: _address,\n                startDate: startDate,\n                endDate: endDate\n            }\n        ));\n        emit NewWinnerAdded(uint128(block.number - 1), _address, _amount);\n    }\n\n    function calculateBenefitResult() private view returns(uint256) {\n        return getPercentageValueOf(percentageLessPriceResult, getBalance());\n    }\n\n    function getPercentageValueOf(uint256 _percentageNumber, uint256 _totalNumber) private pure returns(uint256){\n        uint256 result = _totalNumber.mul(_percentageNumber);\n        return result.div(uint256(100)) ;\n    }\n\n    function getBalance() private view returns (uint256){\n        return address(this).balance;\n    }\n\n}",
  "sourcePath": "/Users/ismaelterreno/Documents/Repository/lottery/contracts/Lottery.sol",
  "compiler": {
    "name": "solc",
    "version": "0.6.2+commit.bacdbe57.Emscripten.clang"
  },
  "schemaVersion": "3.3.4",
  "updatedAt": "2021-02-26T18:29:10.247Z",
  "networkType": "ethereum",
  "devdoc": {
    "methods": {
      "getRoleAdmin(bytes32)": {
        "details": "Returns the admin role that controls `role`. See {grantRole} and {revokeRole}.     * To change a role's admin, use {_setRoleAdmin}."
      },
      "getRoleMember(bytes32,uint256)": {
        "details": "Returns one of the accounts that have `role`. `index` must be a value between 0 and {getRoleMemberCount}, non-inclusive.     * Role bearers are not sorted in any particular way, and their ordering may change at any point.     * WARNING: When using {getRoleMember} and {getRoleMemberCount}, make sure you perform all queries on the same block. See the following https://forum.openzeppelin.com/t/iterating-over-elements-on-enumerableset-in-openzeppelin-contracts/2296[forum post] for more information."
      },
      "getRoleMemberCount(bytes32)": {
        "details": "Returns the number of accounts that have `role`. Can be used together with {getRoleMember} to enumerate all bearers of a role."
      },
      "grantRole(bytes32,address)": {
        "details": "Grants `role` to `account`.     * If `account` had not been already granted `role`, emits a {RoleGranted} event.     * Requirements:     * - the caller must have ``role``'s admin role."
      },
      "hasRole(bytes32,address)": {
        "details": "Returns `true` if `account` has been granted `role`."
      },
      "owner()": {
        "details": "Returns the address of the current owner."
      },
      "renounceOwnership()": {
        "details": "Leaves the contract without owner. It will not be possible to call `onlyOwner` functions anymore. Can only be called by the current owner.     * NOTE: Renouncing ownership will leave the contract without an owner, thereby removing any functionality that is only available to the owner."
      },
      "renounceRole(bytes32,address)": {
        "details": "Revokes `role` from the calling account.     * Roles are often managed via {grantRole} and {revokeRole}: this function's purpose is to provide a mechanism for accounts to lose their privileges if they are compromised (such as when a trusted device is misplaced).     * If the calling account had been granted `role`, emits a {RoleRevoked} event.     * Requirements:     * - the caller must be `account`."
      },
      "revokeRole(bytes32,address)": {
        "details": "Revokes `role` from `account`.     * If `account` had been granted `role`, emits a {RoleRevoked} event.     * Requirements:     * - the caller must have ``role``'s admin role."
      },
      "transferOwnership(address)": {
        "details": "Transfers ownership of the contract to a new account (`newOwner`). Can only be called by the current owner."
      }
    }
  },
  "userdoc": {
    "methods": {}
  }
}