{
  "contractName": "Lottery",
  "abi": [
    {
      "inputs": [
        {
          "internalType": "address",
          "name": "_owner_contract",
          "type": "address"
        },
        {
          "internalType": "address",
          "name": "_owner_beneficiary",
          "type": "address"
        },
        {
          "internalType": "uint256",
          "name": "_enter_price",
          "type": "uint256"
        }
      ],
      "stateMutability": "nonpayable",
      "type": "constructor"
    },
    {
      "anonymous": false,
      "inputs": [
        {
          "indexed": false,
          "internalType": "uint256",
          "name": "startDate",
          "type": "uint256"
        },
        {
          "indexed": false,
          "internalType": "uint256",
          "name": "endDate",
          "type": "uint256"
        }
      ],
      "name": "CalculatingWinner",
      "type": "event"
    },
    {
      "anonymous": false,
      "inputs": [
        {
          "indexed": false,
          "internalType": "uint256",
          "name": "resultCount",
          "type": "uint256"
        }
      ],
      "name": "DebugValue",
      "type": "event"
    },
    {
      "anonymous": false,
      "inputs": [
        {
          "indexed": false,
          "internalType": "uint256",
          "name": "endDate",
          "type": "uint256"
        }
      ],
      "name": "LotteryHasEnded",
      "type": "event"
    },
    {
      "anonymous": false,
      "inputs": [
        {
          "indexed": false,
          "internalType": "uint256",
          "name": "enter_price",
          "type": "uint256"
        },
        {
          "indexed": false,
          "internalType": "uint256",
          "name": "startDate",
          "type": "uint256"
        },
        {
          "indexed": false,
          "internalType": "uint256",
          "name": "endDate",
          "type": "uint256"
        }
      ],
      "name": "LotteryHasStarted",
      "type": "event"
    },
    {
      "anonymous": false,
      "inputs": [
        {
          "indexed": false,
          "internalType": "uint128",
          "name": "fromBlock",
          "type": "uint128"
        },
        {
          "indexed": false,
          "internalType": "address",
          "name": "owner",
          "type": "address"
        },
        {
          "indexed": false,
          "internalType": "uint256",
          "name": "amount",
          "type": "uint256"
        }
      ],
      "name": "NewWinnerAdded",
      "type": "event"
    },
    {
      "anonymous": false,
      "inputs": [
        {
          "indexed": true,
          "internalType": "address",
          "name": "previousOwner",
          "type": "address"
        },
        {
          "indexed": true,
          "internalType": "address",
          "name": "newOwner",
          "type": "address"
        }
      ],
      "name": "OwnershipTransferred",
      "type": "event"
    },
    {
      "anonymous": false,
      "inputs": [
        {
          "indexed": false,
          "internalType": "uint256",
          "name": "resultCount",
          "type": "uint256"
        },
        {
          "indexed": false,
          "internalType": "uint256",
          "name": "_startDate",
          "type": "uint256"
        },
        {
          "indexed": false,
          "internalType": "uint256",
          "name": "_endDate",
          "type": "uint256"
        }
      ],
      "name": "PlayersFoundInRangeDate",
      "type": "event"
    },
    {
      "anonymous": false,
      "inputs": [
        {
          "indexed": true,
          "internalType": "bytes32",
          "name": "role",
          "type": "bytes32"
        },
        {
          "indexed": true,
          "internalType": "bytes32",
          "name": "previousAdminRole",
          "type": "bytes32"
        },
        {
          "indexed": true,
          "internalType": "bytes32",
          "name": "newAdminRole",
          "type": "bytes32"
        }
      ],
      "name": "RoleAdminChanged",
      "type": "event"
    },
    {
      "anonymous": false,
      "inputs": [
        {
          "indexed": true,
          "internalType": "bytes32",
          "name": "role",
          "type": "bytes32"
        },
        {
          "indexed": true,
          "internalType": "address",
          "name": "account",
          "type": "address"
        },
        {
          "indexed": true,
          "internalType": "address",
          "name": "sender",
          "type": "address"
        }
      ],
      "name": "RoleGranted",
      "type": "event"
    },
    {
      "anonymous": false,
      "inputs": [
        {
          "indexed": true,
          "internalType": "bytes32",
          "name": "role",
          "type": "bytes32"
        },
        {
          "indexed": true,
          "internalType": "address",
          "name": "account",
          "type": "address"
        },
        {
          "indexed": true,
          "internalType": "address",
          "name": "sender",
          "type": "address"
        }
      ],
      "name": "RoleRevoked",
      "type": "event"
    },
    {
      "anonymous": false,
      "inputs": [
        {
          "indexed": false,
          "internalType": "address",
          "name": "winner",
          "type": "address"
        },
        {
          "indexed": false,
          "internalType": "uint256",
          "name": "amount",
          "type": "uint256"
        },
        {
          "indexed": false,
          "internalType": "uint256",
          "name": "startDate",
          "type": "uint256"
        },
        {
          "indexed": false,
          "internalType": "uint256",
          "name": "endDate",
          "type": "uint256"
        }
      ],
      "name": "WinnerSelectedInDate",
      "type": "event"
    },
    {
      "inputs": [],
      "name": "DEFAULT_ADMIN_ROLE",
      "outputs": [
        {
          "internalType": "bytes32",
          "name": "",
          "type": "bytes32"
        }
      ],
      "stateMutability": "view",
      "type": "function",
      "constant": true
    },
    {
      "inputs": [
        {
          "internalType": "bytes32",
          "name": "role",
          "type": "bytes32"
        }
      ],
      "name": "getRoleAdmin",
      "outputs": [
        {
          "internalType": "bytes32",
          "name": "",
          "type": "bytes32"
        }
      ],
      "stateMutability": "view",
      "type": "function",
      "constant": true
    },
    {
      "inputs": [
        {
          "internalType": "bytes32",
          "name": "role",
          "type": "bytes32"
        },
        {
          "internalType": "uint256",
          "name": "index",
          "type": "uint256"
        }
      ],
      "name": "getRoleMember",
      "outputs": [
        {
          "internalType": "address",
          "name": "",
          "type": "address"
        }
      ],
      "stateMutability": "view",
      "type": "function",
      "constant": true
    },
    {
      "inputs": [
        {
          "internalType": "bytes32",
          "name": "role",
          "type": "bytes32"
        }
      ],
      "name": "getRoleMemberCount",
      "outputs": [
        {
          "internalType": "uint256",
          "name": "",
          "type": "uint256"
        }
      ],
      "stateMutability": "view",
      "type": "function",
      "constant": true
    },
    {
      "inputs": [
        {
          "internalType": "bytes32",
          "name": "role",
          "type": "bytes32"
        },
        {
          "internalType": "address",
          "name": "account",
          "type": "address"
        }
      ],
      "name": "grantRole",
      "outputs": [],
      "stateMutability": "nonpayable",
      "type": "function"
    },
    {
      "inputs": [
        {
          "internalType": "bytes32",
          "name": "role",
          "type": "bytes32"
        },
        {
          "internalType": "address",
          "name": "account",
          "type": "address"
        }
      ],
      "name": "hasRole",
      "outputs": [
        {
          "internalType": "bool",
          "name": "",
          "type": "bool"
        }
      ],
      "stateMutability": "view",
      "type": "function",
      "constant": true
    },
    {
      "inputs": [],
      "name": "owner",
      "outputs": [
        {
          "internalType": "address",
          "name": "",
          "type": "address"
        }
      ],
      "stateMutability": "view",
      "type": "function",
      "constant": true
    },
    {
      "inputs": [],
      "name": "renounceOwnership",
      "outputs": [],
      "stateMutability": "nonpayable",
      "type": "function"
    },
    {
      "inputs": [
        {
          "internalType": "bytes32",
          "name": "role",
          "type": "bytes32"
        },
        {
          "internalType": "address",
          "name": "account",
          "type": "address"
        }
      ],
      "name": "renounceRole",
      "outputs": [],
      "stateMutability": "nonpayable",
      "type": "function"
    },
    {
      "inputs": [
        {
          "internalType": "bytes32",
          "name": "role",
          "type": "bytes32"
        },
        {
          "internalType": "address",
          "name": "account",
          "type": "address"
        }
      ],
      "name": "revokeRole",
      "outputs": [],
      "stateMutability": "nonpayable",
      "type": "function"
    },
    {
      "inputs": [
        {
          "internalType": "address",
          "name": "newOwner",
          "type": "address"
        }
      ],
      "name": "transferOwnership",
      "outputs": [],
      "stateMutability": "nonpayable",
      "type": "function"
    },
    {
      "inputs": [
        {
          "internalType": "uint256",
          "name": "_startDate",
          "type": "uint256"
        },
        {
          "internalType": "uint256",
          "name": "_endDate",
          "type": "uint256"
        }
      ],
      "name": "start_new_lottery",
      "outputs": [],
      "stateMutability": "nonpayable",
      "type": "function"
    },
    {
      "inputs": [
        {
          "internalType": "uint256",
          "name": "_startDate",
          "type": "uint256"
        },
        {
          "internalType": "uint256",
          "name": "_endDate",
          "type": "uint256"
        }
      ],
      "name": "start_new_lottery_with",
      "outputs": [],
      "stateMutability": "nonpayable",
      "type": "function"
    },
    {
      "inputs": [
        {
          "internalType": "address",
          "name": "user_with_role_to_add",
          "type": "address"
        }
      ],
      "name": "add_lottery_worker",
      "outputs": [],
      "stateMutability": "nonpayable",
      "type": "function"
    },
    {
      "inputs": [],
      "name": "enter",
      "outputs": [],
      "stateMutability": "payable",
      "type": "function",
      "payable": true
    },
    {
      "inputs": [
        {
          "internalType": "uint256",
          "name": "_saltRandomNumber",
          "type": "uint256"
        }
      ],
      "name": "pickWinner",
      "outputs": [],
      "stateMutability": "nonpayable",
      "type": "function"
    },
    {
      "inputs": [
        {
          "internalType": "uint256",
          "name": "_saltRandomNumber",
          "type": "uint256"
        }
      ],
      "name": "pick_winner_with",
      "outputs": [],
      "stateMutability": "nonpayable",
      "type": "function"
    },
    {
      "inputs": [],
      "name": "getLastWinner",
      "outputs": [
        {
          "internalType": "bool",
          "name": "",
          "type": "bool"
        },
        {
          "internalType": "uint128",
          "name": "",
          "type": "uint128"
        },
        {
          "internalType": "address",
          "name": "",
          "type": "address"
        },
        {
          "internalType": "uint256",
          "name": "",
          "type": "uint256"
        }
      ],
      "stateMutability": "view",
      "type": "function",
      "constant": true
    },
    {
      "inputs": [],
      "name": "getLast40Winners",
      "outputs": [
        {
          "internalType": "uint256[]",
          "name": "",
          "type": "uint256[]"
        },
        {
          "internalType": "uint256[]",
          "name": "",
          "type": "uint256[]"
        },
        {
          "internalType": "uint256[]",
          "name": "",
          "type": "uint256[]"
        },
        {
          "internalType": "uint128[]",
          "name": "",
          "type": "uint128[]"
        },
        {
          "internalType": "address[]",
          "name": "",
          "type": "address[]"
        }
      ],
      "stateMutability": "view",
      "type": "function",
      "constant": true
    },
    {
      "inputs": [
        {
          "internalType": "uint128",
          "name": "_fromBlock",
          "type": "uint128"
        }
      ],
      "name": "getWinnerAtBlock",
      "outputs": [
        {
          "internalType": "bool",
          "name": "",
          "type": "bool"
        },
        {
          "internalType": "uint128",
          "name": "",
          "type": "uint128"
        },
        {
          "internalType": "address",
          "name": "",
          "type": "address"
        },
        {
          "internalType": "uint256",
          "name": "",
          "type": "uint256"
        }
      ],
      "stateMutability": "view",
      "type": "function",
      "constant": true
    },
    {
      "inputs": [],
      "name": "getMainBalance",
      "outputs": [
        {
          "internalType": "uint256",
          "name": "",
          "type": "uint256"
        }
      ],
      "stateMutability": "view",
      "type": "function",
      "constant": true
    },
    {
      "inputs": [],
      "name": "getStatus",
      "outputs": [
        {
          "internalType": "enum Lottery.LOTTERY_STATE",
          "name": "",
          "type": "uint8"
        }
      ],
      "stateMutability": "view",
      "type": "function",
      "constant": true
    },
    {
      "inputs": [],
      "name": "getLotteryInfo",
      "outputs": [
        {
          "internalType": "uint256",
          "name": "",
          "type": "uint256"
        },
        {
          "internalType": "uint256",
          "name": "",
          "type": "uint256"
        },
        {
          "internalType": "uint256",
          "name": "",
          "type": "uint256"
        },
        {
          "internalType": "uint256",
          "name": "",
          "type": "uint256"
        },
        {
          "internalType": "uint256",
          "name": "",
          "type": "uint256"
        }
      ],
      "stateMutability": "view",
      "type": "function",
      "constant": true
    },
    {
      "inputs": [],
      "name": "countCurrentAddressLotteryPositions",
      "outputs": [
        {
          "internalType": "uint256",
          "name": "",
          "type": "uint256"
        }
      ],
      "stateMutability": "nonpayable",
      "type": "function"
    },
    {
      "inputs": [],
      "name": "countAllCurrentLotteryPositions",
      "outputs": [
        {
          "internalType": "uint256",
          "name": "",
          "type": "uint256"
        }
      ],
      "stateMutability": "nonpayable",
      "type": "function"
    }
  ],
  "bytecode": "0x60806040523480156200001157600080fd5b506040516200339d3803806200339d833981810160405260608110156200003757600080fd5b8101908080519060200190929190805190602001909291908051906020019092919050505060006200006e620001a360201b60201c565b9050806000806101000a81548173ffffffffffffffffffffffffffffffffffffffff021916908373ffffffffffffffffffffffffffffffffffffffff1602179055508073ffffffffffffffffffffffffffffffffffffffff16600073ffffffffffffffffffffffffffffffffffffffff167f8be0079c531659141344cd1fd0a4f28419497f9722a3daafe3b4186f6b6457e060405160405180910390a35081600560006101000a81548173ffffffffffffffffffffffffffffffffffffffff021916908373ffffffffffffffffffffffffffffffffffffffff16021790555060006008819055506001600260006101000a81548160ff021916908360028111156200017557fe5b0217905550806009819055506014600a819055506200019a83620001ab60201b60201c565b505050620003da565b600033905090565b620001bb620001a360201b60201c565b73ffffffffffffffffffffffffffffffffffffffff16620001e1620003b160201b60201c565b73ffffffffffffffffffffffffffffffffffffffff16146200026b576040517f08c379a00000000000000000000000000000000000000000000000000000000081526004018080602001828103825260208152602001807f4f776e61626c653a2063616c6c6572206973206e6f7420746865206f776e657281525060200191505060405180910390fd5b600073ffffffffffffffffffffffffffffffffffffffff168173ffffffffffffffffffffffffffffffffffffffff161415620002f3576040517f08c379a0000000000000000000000000000000000000000000000000000000008152600401808060200182810382526026815260200180620033776026913960400191505060405180910390fd5b8073ffffffffffffffffffffffffffffffffffffffff166000809054906101000a900473ffffffffffffffffffffffffffffffffffffffff1673ffffffffffffffffffffffffffffffffffffffff167f8be0079c531659141344cd1fd0a4f28419497f9722a3daafe3b4186f6b6457e060405160405180910390a3806000806101000a81548173ffffffffffffffffffffffffffffffffffffffff021916908373ffffffffffffffffffffffffffffffffffffffff16021790555050565b60008060009054906101000a900473ffffffffffffffffffffffffffffffffffffffff16905090565b612f8d80620003ea6000396000f3fe6080604052600436106101665760003560e01c8063a217fddf116100d1578063d547741f1161008a578063e97dcb6211610064578063e97dcb6214610918578063f2fde38b14610922578063f737d21d14610973578063f88649a1146109ae57610166565b8063d547741f14610833578063d7ce9b401461088e578063dd1ac6ee146108d357610166565b8063a217fddf1461065e578063a22dff2c14610689578063b2186894146106b4578063b50159441461077e578063c5728aec146107a9578063ca15c873146107e457610166565b8063715018a611610123578063715018a61461047c5780637f0d72e5146104935780638da5cb5b146104be5780639010d07c1461051557806391d148541461059a5780639dd85e891461060d57610166565b8063101c5ce91461016b578063248a9ca3146101b25780632f2ff15d1461020157806336568abe1461025c5780634e69d560146102b75780634fff6d25146102f0575b600080fd5b34801561017757600080fd5b50610180610a42565b604051808681526020018581526020018481526020018381526020018281526020019550505050505060405180910390f35b3480156101be57600080fd5b506101eb600480360360208110156101d557600080fd5b8101908080359060200190929190505050610a80565b6040518082815260200191505060405180910390f35b34801561020d57600080fd5b5061025a6004803603604081101561022457600080fd5b8101908080359060200190929190803573ffffffffffffffffffffffffffffffffffffffff169060200190929190505050610aa0565b005b34801561026857600080fd5b506102b56004803603604081101561027f57600080fd5b8101908080359060200190929190803573ffffffffffffffffffffffffffffffffffffffff169060200190929190505050610b2a565b005b3480156102c357600080fd5b506102cc610bc3565b604051808260028111156102dc57fe5b60ff16815260200191505060405180910390f35b3480156102fc57600080fd5b50610305610bda565b60405180806020018060200180602001806020018060200186810386528b818151815260200191508051906020019060200280838360005b8381101561035857808201518184015260208101905061033d565b5050505090500186810385528a818151815260200191508051906020019060200280838360005b8381101561039a57808201518184015260208101905061037f565b50505050905001868103845289818151815260200191508051906020019060200280838360005b838110156103dc5780820151818401526020810190506103c1565b50505050905001868103835288818151815260200191508051906020019060200280838360005b8381101561041e578082015181840152602081019050610403565b50505050905001868103825287818151815260200191508051906020019060200280838360005b83811015610460578082015181840152602081019050610445565b505050509050019a505050505050505050505060405180910390f35b34801561048857600080fd5b50610491610f0a565b005b34801561049f57600080fd5b506104a8611078565b6040518082815260200191505060405180910390f35b3480156104ca57600080fd5b506104d361108e565b604051808273ffffffffffffffffffffffffffffffffffffffff1673ffffffffffffffffffffffffffffffffffffffff16815260200191505060405180910390f35b34801561052157600080fd5b506105586004803603604081101561053857600080fd5b8101908080359060200190929190803590602001909291905050506110b7565b604051808273ffffffffffffffffffffffffffffffffffffffff1673ffffffffffffffffffffffffffffffffffffffff16815260200191505060405180910390f35b3480156105a657600080fd5b506105f3600480360360408110156105bd57600080fd5b8101908080359060200190929190803573ffffffffffffffffffffffffffffffffffffffff1690602001909291905050506110e9565b604051808215151515815260200191505060405180910390f35b34801561061957600080fd5b5061065c6004803603602081101561063057600080fd5b81019080803573ffffffffffffffffffffffffffffffffffffffff16906020019092919050505061111b565b005b34801561066a57600080fd5b5061067361120c565b6040518082815260200191505060405180910390f35b34801561069557600080fd5b5061069e611213565b6040518082815260200191505060405180910390f35b3480156106c057600080fd5b506106ff600480360360208110156106d757600080fd5b8101908080356fffffffffffffffffffffffffffffffff16906020019092919050505061121b565b6040518085151515158152602001846fffffffffffffffffffffffffffffffff166fffffffffffffffffffffffffffffffff1681526020018373ffffffffffffffffffffffffffffffffffffffff1673ffffffffffffffffffffffffffffffffffffffff16815260200182815260200194505050505060405180910390f35b34801561078a57600080fd5b5061079361136a565b6040518082815260200191505060405180910390f35b3480156107b557600080fd5b506107e2600480360360208110156107cc57600080fd5b810190808035906020019092919050505061137f565b005b3480156107f057600080fd5b5061081d6004803603602081101561080757600080fd5b810190808035906020019092919050505061143c565b6040518082815260200191505060405180910390f35b34801561083f57600080fd5b5061088c6004803603604081101561085657600080fd5b8101908080359060200190929190803573ffffffffffffffffffffffffffffffffffffffff169060200190929190505050611463565b005b34801561089a57600080fd5b506108d1600480360360408110156108b157600080fd5b8101908080359060200190929190803590602001909291905050506114ed565b005b3480156108df57600080fd5b50610916600480360360408110156108f657600080fd5b8101908080359060200190929190803590602001909291905050506115ac565b005b610920611669565b005b34801561092e57600080fd5b506109716004803603602081101561094557600080fd5b81019080803573ffffffffffffffffffffffffffffffffffffffff1690602001909291905050506118e7565b005b34801561097f57600080fd5b506109ac6004803603602081101561099657600080fd5b8101908080359060200190929190505050611ada565b005b3480156109ba57600080fd5b506109c3611b95565b6040518085151515158152602001846fffffffffffffffffffffffffffffffff166fffffffffffffffffffffffffffffffff1681526020018373ffffffffffffffffffffffffffffffffffffffff1673ffffffffffffffffffffffffffffffffffffffff16815260200182815260200194505050505060405180910390f35b6000806000806000600260009054906101000a900460ff166002811115610a6557fe5b60065460075460095447945094509450945094509091929394565b600060016000838152602001908152602001600020600201549050919050565b610ac76001600084815260200190815260200160002060020154610ac2611cd6565b6110e9565b610b1c576040517f08c379a000000000000000000000000000000000000000000000000000000000815260040180806020018281038252602f815260200180612e3f602f913960400191505060405180910390fd5b610b268282611cde565b5050565b610b32611cd6565b73ffffffffffffffffffffffffffffffffffffffff168173ffffffffffffffffffffffffffffffffffffffff1614610bb5576040517f08c379a000000000000000000000000000000000000000000000000000000000815260040180806020018281038252602f815260200180612f29602f913960400191505060405180910390fd5b610bbf8282611d72565b5050565b6000600260009054906101000a900460ff16905090565b6060806060806060600060289050606081604051908082528060200260200182016040528015610c195781602001602082028038833980820191505090505b509050606082604051908082528060200260200182016040528015610c4d5781602001602082028038833980820191505090505b509050606083604051908082528060200260200182016040528015610c815781602001602082028038833980820191505090505b509050606084604051908082528060200260200182016040528015610cb55781602001602082028038833980820191505090505b509050606085604051908082528060200260200182016040528015610ce95781602001602082028038833980820191505090505b5090506000600b805490501115610eee57600080905060006001600b805490500390505b60008110158015610d225750600b8054905081105b8015610d2d57508782105b15610eeb57600b8181548110610d3f57fe5b906000526020600020906005020160000154878381518110610d5d57fe5b602002602001018181525050600b8181548110610d7657fe5b906000526020600020906005020160010154868381518110610d9457fe5b602002602001018181525050600b8181548110610dad57fe5b906000526020600020906005020160020154858381518110610dcb57fe5b602002602001018181525050600b8181548110610de457fe5b906000526020600020906005020160030160009054906101000a90046fffffffffffffffffffffffffffffffff16848381518110610e1e57fe5b60200260200101906fffffffffffffffffffffffffffffffff1690816fffffffffffffffffffffffffffffffff1681525050600b8181548110610e5d57fe5b906000526020600020906005020160040160009054906101000a900473ffffffffffffffffffffffffffffffffffffffff16838381518110610e9b57fe5b602002602001019073ffffffffffffffffffffffffffffffffffffffff16908173ffffffffffffffffffffffffffffffffffffffff16815250508180600101925050808060019003915050610d0d565b50505b84848484849a509a509a509a509a505050505050509091929394565b610f12611cd6565b73ffffffffffffffffffffffffffffffffffffffff16610f3061108e565b73ffffffffffffffffffffffffffffffffffffffff1614610fb9576040517f08c379a00000000000000000000000000000000000000000000000000000000081526004018080602001828103825260208152602001807f4f776e61626c653a2063616c6c6572206973206e6f7420746865206f776e657281525060200191505060405180910390fd5b600073ffffffffffffffffffffffffffffffffffffffff166000809054906101000a900473ffffffffffffffffffffffffffffffffffffffff1673ffffffffffffffffffffffffffffffffffffffff167f8be0079c531659141344cd1fd0a4f28419497f9722a3daafe3b4186f6b6457e060405160405180910390a360008060006101000a81548173ffffffffffffffffffffffffffffffffffffffff021916908373ffffffffffffffffffffffffffffffffffffffff160217905550565b600061108933600654600754611e06565b905090565b60008060009054906101000a900473ffffffffffffffffffffffffffffffffffffffff16905090565b60006110e18260016000868152602001908152602001600020600001611f4f90919063ffffffff16565b905092915050565b60006111138260016000868152602001908152602001600020600001611f6990919063ffffffff16565b905092915050565b611123611cd6565b73ffffffffffffffffffffffffffffffffffffffff1661114161108e565b73ffffffffffffffffffffffffffffffffffffffff16146111ca576040517f08c379a00000000000000000000000000000000000000000000000000000000081526004018080602001828103825260208152602001807f4f776e61626c653a2063616c6c6572206973206e6f7420746865206f776e657281525060200191505060405180910390fd5b61120960405180807f4c4f54544552595f524f4c450000000000000000000000000000000000000000815250600c019050604051809103902082611f99565b50565b6000801b81565b600047905090565b60008060008060008090505b600b8054905081101561135057856fffffffffffffffffffffffffffffffff16600b828154811061125457fe5b906000526020600020906005020160030160009054906101000a90046fffffffffffffffffffffffffffffffff166fffffffffffffffffffffffffffffffff161415611343576001600b82815481106112a957fe5b906000526020600020906005020160030160009054906101000a90046fffffffffffffffffffffffffffffffff16600b83815481106112e457fe5b906000526020600020906005020160040160009054906101000a900473ffffffffffffffffffffffffffffffffffffffff16600b848154811061132357fe5b906000526020600020906005020160000154945094509450945050611363565b8080600101915050611227565b5060008060008081915093509350935093505b9193509193565b600061137a600654600754611fa7565b905090565b6113be60405180807f4c4f54544552595f524f4c450000000000000000000000000000000000000000815250600c0190506040518091039020336110e9565b611430576040517f08c379a000000000000000000000000000000000000000000000000000000000815260040180806020018281038252601d8152602001807f43616c6c6572206973206e6f742061206c6f747465727920726f6c652e00000081525060200191505060405180910390fd5b6114398161207a565b50565b600061145c60016000848152602001908152602001600020600001612402565b9050919050565b61148a6001600084815260200190815260200160002060020154611485611cd6565b6110e9565b6114df576040517f08c379a0000000000000000000000000000000000000000000000000000000008152600401808060200182810382526030815260200180612e946030913960400191505060405180910390fd5b6114e98282611d72565b5050565b61152c60405180807f4c4f54544552595f524f4c450000000000000000000000000000000000000000815250600c0190506040518091039020336110e9565b61159e576040517f08c379a000000000000000000000000000000000000000000000000000000000815260040180806020018281038252601d8152602001807f43616c6c6572206973206e6f742061206c6f747465727920726f6c652e00000081525060200191505060405180910390fd5b6115a88282612417565b5050565b6115b4611cd6565b73ffffffffffffffffffffffffffffffffffffffff166115d261108e565b73ffffffffffffffffffffffffffffffffffffffff161461165b576040517f08c379a00000000000000000000000000000000000000000000000000000000081526004018080602001828103825260208152602001807f4f776e61626c653a2063616c6c6572206973206e6f7420746865206f776e657281525060200191505060405180910390fd5b6116658282612417565b5050565b60095434146116c3576040517f08c379a0000000000000000000000000000000000000000000000000000000008152600401808060200182810382526022815260200180612ee56022913960400191505060405180910390fd5b600060028111156116d057fe5b600260009054906101000a900460ff1660028111156116eb57fe5b1461175e576040517f08c379a00000000000000000000000000000000000000000000000000000000081526004018080602001828103825260208152602001807f546865206c6f7474657279206861736e2774206576656e20737461727465642181525060200191505060405180910390fd5b6003339080600181540180825580915050600190039060005260206000200160009091909190916101000a81548173ffffffffffffffffffffffffffffffffffffffff021916908373ffffffffffffffffffffffffffffffffffffffff16021790555060046040518060a0016040528034815260200160065481526020016007548152602001436fffffffffffffffffffffffffffffffff1681526020013373ffffffffffffffffffffffffffffffffffffffff16815250908060018154018082558091505060019003906000526020600020906005020160009091909190915060008201518160000155602082015181600101556040820151816002015560608201518160030160006101000a8154816fffffffffffffffffffffffffffffffff02191690836fffffffffffffffffffffffffffffffff16021790555060808201518160040160006101000a81548173ffffffffffffffffffffffffffffffffffffffff021916908373ffffffffffffffffffffffffffffffffffffffff1602179055505050565b6118ef611cd6565b73ffffffffffffffffffffffffffffffffffffffff1661190d61108e565b73ffffffffffffffffffffffffffffffffffffffff1614611996576040517f08c379a00000000000000000000000000000000000000000000000000000000081526004018080602001828103825260208152602001807f4f776e61626c653a2063616c6c6572206973206e6f7420746865206f776e657281525060200191505060405180910390fd5b600073ffffffffffffffffffffffffffffffffffffffff168173ffffffffffffffffffffffffffffffffffffffff161415611a1c576040517f08c379a0000000000000000000000000000000000000000000000000000000008152600401808060200182810382526026815260200180612e6e6026913960400191505060405180910390fd5b8073ffffffffffffffffffffffffffffffffffffffff166000809054906101000a900473ffffffffffffffffffffffffffffffffffffffff1673ffffffffffffffffffffffffffffffffffffffff167f8be0079c531659141344cd1fd0a4f28419497f9722a3daafe3b4186f6b6457e060405160405180910390a3806000806101000a81548173ffffffffffffffffffffffffffffffffffffffff021916908373ffffffffffffffffffffffffffffffffffffffff16021790555050565b611ae2611cd6565b73ffffffffffffffffffffffffffffffffffffffff16611b0061108e565b73ffffffffffffffffffffffffffffffffffffffff1614611b89576040517f08c379a00000000000000000000000000000000000000000000000000000000081526004018080602001828103825260208152602001807f4f776e61626c653a2063616c6c6572206973206e6f7420746865206f776e657281525060200191505060405180910390fd5b611b928161207a565b50565b6000806000806000600b805490501115611cbe57611bb1612d17565b600b6001600b805490500381548110611bc657fe5b90600052602060002090600502016040518060a00160405290816000820154815260200160018201548152602001600282015481526020016003820160009054906101000a90046fffffffffffffffffffffffffffffffff166fffffffffffffffffffffffffffffffff166fffffffffffffffffffffffffffffffff1681526020016004820160009054906101000a900473ffffffffffffffffffffffffffffffffffffffff1673ffffffffffffffffffffffffffffffffffffffff1673ffffffffffffffffffffffffffffffffffffffff168152505090506001816060015182608001518360000151945094509450945050611cd0565b60008060008081915093509350935093505b90919293565b600033905090565b611d06816001600085815260200190815260200160002060000161253590919063ffffffff16565b15611d6e57611d13611cd6565b73ffffffffffffffffffffffffffffffffffffffff168173ffffffffffffffffffffffffffffffffffffffff16837f2f8788117e7eff1d82e926ec794901d17c78024a50270940304540a733656f0d60405160405180910390a45b5050565b611d9a816001600085815260200190815260200160002060000161256590919063ffffffff16565b15611e0257611da7611cd6565b73ffffffffffffffffffffffffffffffffffffffff168173ffffffffffffffffffffffffffffffffffffffff16837ff6391f5c32d9c69d2a47ea670b442974b53935d1edc7fd64eb21e047a839171b60405160405180910390a45b5050565b6000806000905060008090505b600480549050811015611efc578460048281548110611e2e57fe5b90600052602060002090600502016001015410158015611e6c57508360048281548110611e5757fe5b90600052602060002090600502016002015411155b8015611ee157508573ffffffffffffffffffffffffffffffffffffffff1660048281548110611e9757fe5b906000526020600020906005020160040160009054906101000a900473ffffffffffffffffffffffffffffffffffffffff1673ffffffffffffffffffffffffffffffffffffffff16145b15611eef5781806001019250505b8080600101915050611e13565b507f6f23683476c583c75f779c888c65cb8aeeb07d114d6226e0d7d6cbb782c50abf81858560405180848152602001838152602001828152602001935050505060405180910390a1809150509392505050565b6000611f5e8360000183612595565b60001c905092915050565b6000611f91836000018373ffffffffffffffffffffffffffffffffffffffff1660001b612618565b905092915050565b611fa38282611cde565b5050565b6000806000905060008090505b600480549050811015612028578460048281548110611fcf57fe5b9060005260206000209060050201600101541015801561200d57508360048281548110611ff857fe5b90600052602060002090600502016002015411155b1561201b5781806001019250505b8080600101915050611fb4565b507f6f23683476c583c75f779c888c65cb8aeeb07d114d6226e0d7d6cbb782c50abf81858560405180848152602001838152602001828152602001935050505060405180910390a18091505092915050565b6000600281111561208757fe5b600260009054906101000a900460ff1660028111156120a257fe5b14612115576040517f08c379a00000000000000000000000000000000000000000000000000000000081526004018080602001828103825260208152602001807f546865206c6f7474657279206861736e2774206576656e20737461727465642181525060200191505060405180910390fd5b60028081111561212157fe5b600260009054906101000a900460ff16600281111561213c57fe5b1415612193576040517f08c379a0000000000000000000000000000000000000000000000000000000008152600401808060200182810382526022815260200180612f076022913960400191505060405180910390fd5b60028060006101000a81548160ff021916908360028111156121b157fe5b02179055507f4909f6329a582e86a81d1f0a21d9a6444c05e80f5d7fe983f89490645a5e1543600654600754604051808381526020018281526020019250505060405180910390a1606061220960065460075461263b565b905061221960018251038361280a565b600881905550612227612d6e565b816008548151811061223557fe5b60200260200101519050600560009054906101000a900473ffffffffffffffffffffffffffffffffffffffff1673ffffffffffffffffffffffffffffffffffffffff166108fc612283612886565b9081150290604051600060405180830381858888f193505050501580156122ae573d6000803e3d6000fd5b506122c481608001516122bf6128a0565b6128a8565b7f7187cdfe23735dcb26032ab8143903c4825da0e90fc54c079ff191e396398ff781608001516122f26128a0565b600654600754604051808573ffffffffffffffffffffffffffffffffffffffff1673ffffffffffffffffffffffffffffffffffffffff16815260200184815260200183815260200182815260200194505050505060405180910390a1806080015173ffffffffffffffffffffffffffffffffffffffff166108fc6123746128a0565b9081150290604051600060405180830381858888f1935050505015801561239f573d6000803e3d6000fd5b506001600260006101000a81548160ff021916908360028111156123bf57fe5b02179055507f4e6364ba131593b08a3a1d651d77997d48a9df9c40bb681c8fb1088caa10acca6007546040518082815260200191505060405180910390a1505050565b600061241082600001612a6a565b9050919050565b6001600281111561242457fe5b600260009054906101000a900460ff16600281111561243f57fe5b146124b2576040517f08c379a000000000000000000000000000000000000000000000000000000000815260040180806020018281038252601d8152602001807f43616e27742073746172742061206e6577206c6f74746572792079657400000081525060200191505060405180910390fd5b6000600260006101000a81548160ff021916908360028111156124d157fe5b021790555081600681905550806007819055507ff0543a89795cff517d42c396ed640669ebd342bcc948898dfbfec95ee2b5266760095460065460075460405180848152602001838152602001828152602001935050505060405180910390a15050565b600061255d836000018373ffffffffffffffffffffffffffffffffffffffff1660001b612a7b565b905092915050565b600061258d836000018373ffffffffffffffffffffffffffffffffffffffff1660001b612aeb565b905092915050565b6000818360000180549050116125f6576040517f08c379a0000000000000000000000000000000000000000000000000000000008152600401808060200182810382526022815260200180612e1d6022913960400191505060405180910390fd5b82600001828154811061260557fe5b9060005260206000200154905092915050565b600080836001016000848152602001908152602001600020541415905092915050565b6060806126488484611fa7565b60405190808252806020026020018201604052801561268157816020015b61266e612dc5565b8152602001906001900390816126665790505b509050600080905060008090505b6004805490508110156127fe5785600482815481106126aa57fe5b906000526020600020906005020160010154101580156126e8575084600482815481106126d357fe5b90600052602060002090600502016002015411155b156127f157600481815481106126fa57fe5b90600052602060002090600502016040518060a00160405290816000820154815260200160018201548152602001600282015481526020016003820160009054906101000a90046fffffffffffffffffffffffffffffffff166fffffffffffffffffffffffffffffffff166fffffffffffffffffffffffffffffffff1681526020016004820160009054906101000a900473ffffffffffffffffffffffffffffffffffffffff1673ffffffffffffffffffffffffffffffffffffffff1673ffffffffffffffffffffffffffffffffffffffff16815250508383815181106127dd57fe5b602002602001018190525081806001019250505b808060010191505061268f565b50819250505092915050565b600082423384604051602001808481526020018373ffffffffffffffffffffffffffffffffffffffff1673ffffffffffffffffffffffffffffffffffffffff1660601b815260140182815260200193505050506040516020818303038152906040528051906020012060001c8161287d57fe5b06905092915050565b600061289b600a546128966128a0565b612bd3565b905090565b600047905090565b600b6040518060a0016040528083815260200160065481526020016007548152602001436fffffffffffffffffffffffffffffffff1681526020018473ffffffffffffffffffffffffffffffffffffffff16815250908060018154018082558091505060019003906000526020600020906005020160009091909190915060008201518160000155602082015181600101556040820151816002015560608201518160030160006101000a8154816fffffffffffffffffffffffffffffffff02191690836fffffffffffffffffffffffffffffffff16021790555060808201518160040160006101000a81548173ffffffffffffffffffffffffffffffffffffffff021916908373ffffffffffffffffffffffffffffffffffffffff16021790555050507faa17b54b0149ffcb9131f40d990c831b0614d347cfbf00f9eb541b772a417ecd60014303838360405180846fffffffffffffffffffffffffffffffff166fffffffffffffffffffffffffffffffff1681526020018373ffffffffffffffffffffffffffffffffffffffff1673ffffffffffffffffffffffffffffffffffffffff168152602001828152602001935050505060405180910390a15050565b600081600001805490509050919050565b6000612a878383612618565b612ae0578260000182908060018154018082558091505060019003906000526020600020016000909190919091505582600001805490508360010160008481526020019081526020016000208190555060019050612ae5565b600090505b92915050565b60008083600101600084815260200190815260200160002054905060008114612bc75760006001820390506000600186600001805490500390506000866000018281548110612b3657fe5b9060005260206000200154905080876000018481548110612b5357fe5b9060005260206000200181905550600183018760010160008381526020019081526020016000208190555086600001805480612b8b57fe5b60019003818190600052602060002001600090559055866001016000878152602001908152602001600020600090556001945050505050612bcd565b60009150505b92915050565b600080612be98484612c0890919063ffffffff16565b9050612bff606482612c8e90919063ffffffff16565b91505092915050565b600080831415612c1b5760009050612c88565b6000828402905082848281612c2c57fe5b0414612c83576040517f08c379a0000000000000000000000000000000000000000000000000000000008152600401808060200182810382526021815260200180612ec46021913960400191505060405180910390fd5b809150505b92915050565b6000808211612d05576040517f08c379a000000000000000000000000000000000000000000000000000000000815260040180806020018281038252601a8152602001807f536166654d6174683a206469766973696f6e206279207a65726f00000000000081525060200191505060405180910390fd5b818381612d0e57fe5b04905092915050565b6040518060a0016040528060008152602001600081526020016000815260200160006fffffffffffffffffffffffffffffffff168152602001600073ffffffffffffffffffffffffffffffffffffffff1681525090565b6040518060a0016040528060008152602001600081526020016000815260200160006fffffffffffffffffffffffffffffffff168152602001600073ffffffffffffffffffffffffffffffffffffffff1681525090565b6040518060a0016040528060008152602001600081526020016000815260200160006fffffffffffffffffffffffffffffffff168152602001600073ffffffffffffffffffffffffffffffffffffffff168152509056fe456e756d657261626c655365743a20696e646578206f7574206f6620626f756e6473416363657373436f6e74726f6c3a2073656e646572206d75737420626520616e2061646d696e20746f206772616e744f776e61626c653a206e6577206f776e657220697320746865207a65726f2061646472657373416363657373436f6e74726f6c3a2073656e646572206d75737420626520616e2061646d696e20746f207265766f6b65536166654d6174683a206d756c7469706c69636174696f6e206f766572666c6f7754686520707269636520746f20656e746572206973206e6f7420636f72726563742e497320616c72656164792063616c63756c6174696e67207468652077696e6e65722e416363657373436f6e74726f6c3a2063616e206f6e6c792072656e6f756e636520726f6c657320666f722073656c66a2646970667358221220b5710c59defb3e3b94456c5d2c537f14d4711cfc25237afda2807938ed84028764736f6c634300060200334f776e61626c653a206e6577206f776e657220697320746865207a65726f2061646472657373",
  "source": "// SPDX-License-Identifier: MIT\npragma solidity >=0.6.0 <0.8.0;\nimport \"@openzeppelin/contracts/math/SafeMath.sol\";\nimport \"@openzeppelin/contracts/access/Ownable.sol\";\nimport \"@openzeppelin/contracts/access/AccessControl.sol\";\n\ncontract Lottery is Ownable, AccessControl {\n    enum LOTTERY_STATE { OPEN, CLOSED, CALCULATING_WINNER }\n    LOTTERY_STATE private lottery_state;\n    address payable[] private players;\n    CheckpointLotteryPlayer[] private lotery_players;\n    address payable private owner_beneficiary;\n    uint256 private startDate;\n    uint256 private endDate; \n    uint256 private lotteryId;\n    uint256 private ENTER_PRICE;\n    uint256 private percentageLessPriceResult;\n    bytes32 private constant LOTTERY_ROLE = keccak256(\"LOTTERY_ROLE\");\n    using SafeMath for uint256;\n\n    struct  CheckpointWinner {\n        uint256 value;\n        uint256 startDate;\n        uint256 endDate; \n        uint128 fromBlock;\n        address winner;\n        \n    }\n\n    struct CheckpointLotteryPlayer {\n        uint256 value;\n        uint256 startDate;\n        uint256 endDate; \n        uint128 fromBlock;\n        address player;\n    }\n    event NewWinnerAdded(uint128 fromBlock, address owner, uint amount);\n    event LotteryHasEnded(uint256 endDate);\n    event CalculatingWinner( uint256 startDate, uint256 endDate);\n    event LotteryHasStarted(uint256 enter_price, uint256 startDate, uint256 endDate);\n    event WinnerSelectedInDate(address winner, uint256 amount, uint256 startDate, uint256 endDate);\n    event PlayersFoundInRangeDate( uint256 resultCount, uint256 _startDate,  uint256 _endDate);\n    event DebugValue( uint256 resultCount );\n    CheckpointWinner[] private winnersHistory;\n\n    constructor(address _owner_contract, address _owner_beneficiary, uint256 _enter_price) public {\n        owner_beneficiary = payable(address(_owner_beneficiary));\n        lotteryId = 0;\n        lottery_state = LOTTERY_STATE.CLOSED;  \n        ENTER_PRICE = _enter_price;\n        percentageLessPriceResult = uint256(20);\n        transferOwnership(_owner_contract);\n    }\n    \n    function start_new_lottery(uint256 _startDate, uint256 _endDate) external onlyOwner {\n        start_lottery(_startDate, _endDate);       \n    }\n\n    function start_new_lottery_with(uint256 _startDate, uint256 _endDate) external {\n        require(hasRole(LOTTERY_ROLE, msg.sender), \"Caller is not a lottery role.\");\n        start_lottery(_startDate, _endDate);\n    }\n    \n    function start_lottery(uint256 _startDate, uint256 _endDate) private {\n        require(lottery_state == LOTTERY_STATE.CLOSED, \"Can't start a new lottery yet\");\n        lottery_state = LOTTERY_STATE.OPEN;\n        startDate = _startDate;\n        endDate = _endDate; \n        emit LotteryHasStarted(ENTER_PRICE, startDate, endDate);\n    }\n\n    function add_lottery_worker(address user_with_role_to_add) external onlyOwner {\n        _setupRole(LOTTERY_ROLE, user_with_role_to_add);\n    }\n\n    function enter() external payable {\n        require(uint256(msg.value) == ENTER_PRICE, \"The price to enter is not correct.\");\n        require(lottery_state == LOTTERY_STATE.OPEN, \"The lottery hasn't even started!\");\n        players.push(msg.sender);\n        lotery_players.push(CheckpointLotteryPlayer({\n            value: uint256(msg.value),\n            fromBlock: uint128(block.number),\n            player: msg.sender,\n            startDate: startDate,\n            endDate: endDate\n        }));\n    } \n    \n    function pickWinner(uint _saltRandomNumber) external onlyOwner {\n        pick_winner_action(_saltRandomNumber);\n    }\n\n    function pick_winner_with(uint _saltRandomNumber) external {\n        require(hasRole(LOTTERY_ROLE, msg.sender), \"Caller is not a lottery role.\");\n        pick_winner_action(_saltRandomNumber);\n    }\n\n    function pick_winner_action(uint _saltRandomNumber) private {\n        require(lottery_state == LOTTERY_STATE.OPEN, \"The lottery hasn't even started!\");\n        require(lottery_state != LOTTERY_STATE.CALCULATING_WINNER, \"Is already calculating the winner.\");\n        lottery_state = LOTTERY_STATE.CALCULATING_WINNER;\n        emit CalculatingWinner( startDate, endDate);\n        CheckpointLotteryPlayer[] memory playersFounded = getPlayersFromToDate( startDate, endDate);\n        lotteryId = getRandomWinner(playersFounded.length - 1, _saltRandomNumber);\n        CheckpointLotteryPlayer memory winnerSelected = playersFounded[lotteryId];\n        payable(owner_beneficiary).transfer(calculateBenefitResult());\n        updateWinnerHistory(winnerSelected.player, getBalance());\n        emit WinnerSelectedInDate(winnerSelected.player, getBalance(), startDate, endDate);\n        payable(winnerSelected.player).transfer(getBalance());\n        lottery_state = LOTTERY_STATE.CLOSED;\n        emit LotteryHasEnded(endDate);\n    }\n\n    function getLastWinner() external view returns( bool, uint128, address, uint256){\n        if(winnersHistory.length > 0){\n            CheckpointWinner memory winner = winnersHistory[winnersHistory.length - 1];\n            return (true, winner.fromBlock, winner.winner, winner.value);\n        }\n        return(false, uint128(0), address(0),uint256(0));\n    }\n    function debugValue(uint256 valueDebug) private {\n        emit DebugValue(valueDebug);\n    }\n\n    function getLast40Winners() external view returns( \n        uint256 [] memory,\n        uint256 [] memory,\n        uint256 [] memory,\n        uint128 [] memory,\n        address [] memory\n        ){\n        uint limit = 40;\n        uint256 [] memory value_r = new uint256[](limit);\n        uint256 [] memory startDate_r = new uint256[](limit);\n        uint256 [] memory endDate_r = new uint256[](limit); \n        uint128 [] memory fromBlock_r = new uint128[](limit);\n        address [] memory winner_r = new address[](limit);\n        \n        if(winnersHistory.length > 0){\n            uint j = 0;\n            for(uint i = winnersHistory.length - 1; (i >= 0 && i < winnersHistory.length) && (j < limit ); i--) {\n                value_r[j] = winnersHistory[i].value;\n                startDate_r[j] = winnersHistory[i].startDate;\n                endDate_r[j] = winnersHistory[i].endDate;\n                fromBlock_r[j] = winnersHistory[i].fromBlock;\n                winner_r[j] = winnersHistory[i].winner;\n                j++;\n            }\n        }\n        return (value_r, startDate_r, endDate_r, fromBlock_r, winner_r);\n    }\n\n    function getWinnerAtBlock(uint128 _fromBlock) external view returns(bool,uint128, address, uint256){\n        for(uint i = 0; i<winnersHistory.length; i++){\n            if(winnersHistory[i].fromBlock == _fromBlock){\n                return (true,winnersHistory[i].fromBlock, winnersHistory[i].winner, winnersHistory[i].value);\n            }\n        }\n        return(false, uint128(0), address(0),uint256(0));\n    }\n\n    function getPlayersFromToDate( uint256 _startDate, uint256 _endDate) private returns(CheckpointLotteryPlayer[] memory){\n        CheckpointLotteryPlayer[] memory playersFound =  new CheckpointLotteryPlayer[](getPlayersFromToDateCount(\n            _startDate, \n            _endDate \n        ));\n        uint j = 0;\n        for(uint i = 0; i < lotery_players.length; i++) {\n            if(lotery_players[i].startDate >= _startDate && lotery_players[i].endDate <= _endDate){\n                playersFound[j] = lotery_players[i];\n                j++;\n            }\n        }\n        return playersFound;\n    }\n\n    function getPlayersFromToDateCount( uint256 _startDate, uint256 _endDate) private returns(uint256){\n        uint256 resultCount = 0;\n        for(uint i = 0; i < lotery_players.length; i++){\n            if(lotery_players[i].startDate >= _startDate && lotery_players[i].endDate <= _endDate){\n                resultCount++;\n            }\n        }\n        emit PlayersFoundInRangeDate( resultCount, _startDate,  _endDate);\n        return resultCount;\n    }\n\n    function getMainBalance() external view returns (uint){\n        return address(this).balance;\n    }\n\n    function getStatus() external view returns (LOTTERY_STATE){\n        return lottery_state;\n    }\n\n    // TODO: In the future could use Chainlink VRF to generate decentralize random numbers, on this implementation is solydity but needs to go Chainlink VRF some day is just a suggestion.\n    function getRandomWinner(uint _modulus, uint randNonce) private view returns (uint256) {\n        return uint256(keccak256(abi.encodePacked(block.timestamp,  \n                                          msg.sender,  \n                                          randNonce))) % _modulus;\n    }\n\n    function updateWinnerHistory(address _address, uint256 _amount) private {\n        winnersHistory.push(CheckpointWinner(\n            {\n                fromBlock: uint128(block.number),\n                value: _amount,\n                winner: _address,\n                startDate: startDate,\n                endDate: endDate\n            }\n        ));\n        emit NewWinnerAdded(uint128(block.number - 1), _address, _amount);\n    }\n\n    function calculateBenefitResult() private view returns(uint256) {\n        return getPercentageValueOf(percentageLessPriceResult, getBalance());\n    }\n\n    function getPercentageValueOf(uint256 _percentageNumber, uint256 _totalNumber) private pure returns(uint256){\n        uint256 result = _totalNumber.mul(_percentageNumber);\n        return result.div(uint256(100)) ;\n    }\n\n    function getBalance() private view returns (uint256){\n        return address(this).balance;\n    }\n\n    function getLotteryInfo() public view returns (uint256, uint256, uint256, uint256, uint256){    \n        return (\n            uint256(lottery_state),\n            startDate,\n            endDate,\n            ENTER_PRICE,\n            address(this).balance\n        );  \n    }\n\n    function getPositionsFromToDateCount( address _address, uint256 _startDate, uint256 _endDate) private returns(uint256){\n        uint256 resultCount = 0;\n        for(uint i = 0; i < lotery_players.length; i++){\n            if(\n                lotery_players[i].startDate >= _startDate && \n                lotery_players[i].endDate <= _endDate &&\n                lotery_players[i].player == _address\n            ){\n                resultCount++;\n            }\n        }\n        emit PlayersFoundInRangeDate( resultCount, _startDate,  _endDate);\n        return resultCount;\n    }\n\n    function countCurrentAddressLotteryPositions() public returns (uint256){\n        return getPositionsFromToDateCount( msg.sender,  startDate, endDate );\n    }\n\n    function countAllCurrentLotteryPositions() public returns (uint256) {\n        return getPlayersFromToDateCount(\n            startDate, \n            endDate \n        );\n    }\n\n}",
  "sourcePath": "/Users/ismaelterreno/Documents/Repository/lottery/contracts/Lottery.sol",
  "compiler": {
    "name": "solc",
    "version": "0.6.2+commit.bacdbe57.Emscripten.clang"
  },
  "schemaVersion": "3.3.4",
  "updatedAt": "2021-03-29T15:16:43.104Z",
  "networkType": "ethereum",
  "devdoc": {
    "methods": {
      "getRoleAdmin(bytes32)": {
        "details": "Returns the admin role that controls `role`. See {grantRole} and {revokeRole}.     * To change a role's admin, use {_setRoleAdmin}."
      },
      "getRoleMember(bytes32,uint256)": {
        "details": "Returns one of the accounts that have `role`. `index` must be a value between 0 and {getRoleMemberCount}, non-inclusive.     * Role bearers are not sorted in any particular way, and their ordering may change at any point.     * WARNING: When using {getRoleMember} and {getRoleMemberCount}, make sure you perform all queries on the same block. See the following https://forum.openzeppelin.com/t/iterating-over-elements-on-enumerableset-in-openzeppelin-contracts/2296[forum post] for more information."
      },
      "getRoleMemberCount(bytes32)": {
        "details": "Returns the number of accounts that have `role`. Can be used together with {getRoleMember} to enumerate all bearers of a role."
      },
      "grantRole(bytes32,address)": {
        "details": "Grants `role` to `account`.     * If `account` had not been already granted `role`, emits a {RoleGranted} event.     * Requirements:     * - the caller must have ``role``'s admin role."
      },
      "hasRole(bytes32,address)": {
        "details": "Returns `true` if `account` has been granted `role`."
      },
      "owner()": {
        "details": "Returns the address of the current owner."
      },
      "renounceOwnership()": {
        "details": "Leaves the contract without owner. It will not be possible to call `onlyOwner` functions anymore. Can only be called by the current owner.     * NOTE: Renouncing ownership will leave the contract without an owner, thereby removing any functionality that is only available to the owner."
      },
      "renounceRole(bytes32,address)": {
        "details": "Revokes `role` from the calling account.     * Roles are often managed via {grantRole} and {revokeRole}: this function's purpose is to provide a mechanism for accounts to lose their privileges if they are compromised (such as when a trusted device is misplaced).     * If the calling account had been granted `role`, emits a {RoleRevoked} event.     * Requirements:     * - the caller must be `account`."
      },
      "revokeRole(bytes32,address)": {
        "details": "Revokes `role` from `account`.     * If `account` had been granted `role`, emits a {RoleRevoked} event.     * Requirements:     * - the caller must have ``role``'s admin role."
      },
      "transferOwnership(address)": {
        "details": "Transfers ownership of the contract to a new account (`newOwner`). Can only be called by the current owner."
      }
    }
  },
  "userdoc": {
    "methods": {}
  }
}