{
  "contractName": "Lottery",
  "abi": [
    {
      "inputs": [
        {
          "internalType": "address",
          "name": "_owner_contract",
          "type": "address"
        },
        {
          "internalType": "address",
          "name": "_owner_beneficiary",
          "type": "address"
        },
        {
          "internalType": "uint256",
          "name": "_enter_price",
          "type": "uint256"
        }
      ],
      "stateMutability": "nonpayable",
      "type": "constructor"
    },
    {
      "anonymous": false,
      "inputs": [
        {
          "indexed": false,
          "internalType": "uint256",
          "name": "startDate",
          "type": "uint256"
        },
        {
          "indexed": false,
          "internalType": "uint256",
          "name": "endDate",
          "type": "uint256"
        }
      ],
      "name": "CalculatingWinner",
      "type": "event"
    },
    {
      "anonymous": false,
      "inputs": [
        {
          "indexed": false,
          "internalType": "uint256",
          "name": "resultCount",
          "type": "uint256"
        }
      ],
      "name": "DebugValue",
      "type": "event"
    },
    {
      "anonymous": false,
      "inputs": [
        {
          "indexed": false,
          "internalType": "uint256",
          "name": "endDate",
          "type": "uint256"
        }
      ],
      "name": "LotteryHasEnded",
      "type": "event"
    },
    {
      "anonymous": false,
      "inputs": [
        {
          "indexed": false,
          "internalType": "uint256",
          "name": "enter_price",
          "type": "uint256"
        },
        {
          "indexed": false,
          "internalType": "uint256",
          "name": "startDate",
          "type": "uint256"
        },
        {
          "indexed": false,
          "internalType": "uint256",
          "name": "endDate",
          "type": "uint256"
        }
      ],
      "name": "LotteryHasStarted",
      "type": "event"
    },
    {
      "anonymous": false,
      "inputs": [
        {
          "indexed": false,
          "internalType": "uint128",
          "name": "fromBlock",
          "type": "uint128"
        },
        {
          "indexed": false,
          "internalType": "address",
          "name": "owner",
          "type": "address"
        },
        {
          "indexed": false,
          "internalType": "uint256",
          "name": "amount",
          "type": "uint256"
        }
      ],
      "name": "NewWinnerAdded",
      "type": "event"
    },
    {
      "anonymous": false,
      "inputs": [
        {
          "indexed": true,
          "internalType": "address",
          "name": "previousOwner",
          "type": "address"
        },
        {
          "indexed": true,
          "internalType": "address",
          "name": "newOwner",
          "type": "address"
        }
      ],
      "name": "OwnershipTransferred",
      "type": "event"
    },
    {
      "anonymous": false,
      "inputs": [
        {
          "indexed": false,
          "internalType": "uint256",
          "name": "resultCount",
          "type": "uint256"
        },
        {
          "indexed": false,
          "internalType": "uint256",
          "name": "_startDate",
          "type": "uint256"
        },
        {
          "indexed": false,
          "internalType": "uint256",
          "name": "_endDate",
          "type": "uint256"
        }
      ],
      "name": "PlayersFoundInRangeDate",
      "type": "event"
    },
    {
      "anonymous": false,
      "inputs": [
        {
          "indexed": true,
          "internalType": "bytes32",
          "name": "role",
          "type": "bytes32"
        },
        {
          "indexed": true,
          "internalType": "bytes32",
          "name": "previousAdminRole",
          "type": "bytes32"
        },
        {
          "indexed": true,
          "internalType": "bytes32",
          "name": "newAdminRole",
          "type": "bytes32"
        }
      ],
      "name": "RoleAdminChanged",
      "type": "event"
    },
    {
      "anonymous": false,
      "inputs": [
        {
          "indexed": true,
          "internalType": "bytes32",
          "name": "role",
          "type": "bytes32"
        },
        {
          "indexed": true,
          "internalType": "address",
          "name": "account",
          "type": "address"
        },
        {
          "indexed": true,
          "internalType": "address",
          "name": "sender",
          "type": "address"
        }
      ],
      "name": "RoleGranted",
      "type": "event"
    },
    {
      "anonymous": false,
      "inputs": [
        {
          "indexed": true,
          "internalType": "bytes32",
          "name": "role",
          "type": "bytes32"
        },
        {
          "indexed": true,
          "internalType": "address",
          "name": "account",
          "type": "address"
        },
        {
          "indexed": true,
          "internalType": "address",
          "name": "sender",
          "type": "address"
        }
      ],
      "name": "RoleRevoked",
      "type": "event"
    },
    {
      "anonymous": false,
      "inputs": [
        {
          "indexed": false,
          "internalType": "address",
          "name": "winner",
          "type": "address"
        },
        {
          "indexed": false,
          "internalType": "uint256",
          "name": "amount",
          "type": "uint256"
        },
        {
          "indexed": false,
          "internalType": "uint256",
          "name": "startDate",
          "type": "uint256"
        },
        {
          "indexed": false,
          "internalType": "uint256",
          "name": "endDate",
          "type": "uint256"
        }
      ],
      "name": "WinnerSelectedInDate",
      "type": "event"
    },
    {
      "inputs": [],
      "name": "DEFAULT_ADMIN_ROLE",
      "outputs": [
        {
          "internalType": "bytes32",
          "name": "",
          "type": "bytes32"
        }
      ],
      "stateMutability": "view",
      "type": "function",
      "constant": true
    },
    {
      "inputs": [],
      "name": "ENTER_PRICE",
      "outputs": [
        {
          "internalType": "uint256",
          "name": "",
          "type": "uint256"
        }
      ],
      "stateMutability": "view",
      "type": "function",
      "constant": true
    },
    {
      "inputs": [],
      "name": "LOTTERY_ROLE",
      "outputs": [
        {
          "internalType": "bytes32",
          "name": "",
          "type": "bytes32"
        }
      ],
      "stateMutability": "view",
      "type": "function",
      "constant": true
    },
    {
      "inputs": [
        {
          "internalType": "bytes32",
          "name": "role",
          "type": "bytes32"
        }
      ],
      "name": "getRoleAdmin",
      "outputs": [
        {
          "internalType": "bytes32",
          "name": "",
          "type": "bytes32"
        }
      ],
      "stateMutability": "view",
      "type": "function",
      "constant": true
    },
    {
      "inputs": [
        {
          "internalType": "bytes32",
          "name": "role",
          "type": "bytes32"
        },
        {
          "internalType": "uint256",
          "name": "index",
          "type": "uint256"
        }
      ],
      "name": "getRoleMember",
      "outputs": [
        {
          "internalType": "address",
          "name": "",
          "type": "address"
        }
      ],
      "stateMutability": "view",
      "type": "function",
      "constant": true
    },
    {
      "inputs": [
        {
          "internalType": "bytes32",
          "name": "role",
          "type": "bytes32"
        }
      ],
      "name": "getRoleMemberCount",
      "outputs": [
        {
          "internalType": "uint256",
          "name": "",
          "type": "uint256"
        }
      ],
      "stateMutability": "view",
      "type": "function",
      "constant": true
    },
    {
      "inputs": [
        {
          "internalType": "bytes32",
          "name": "role",
          "type": "bytes32"
        },
        {
          "internalType": "address",
          "name": "account",
          "type": "address"
        }
      ],
      "name": "grantRole",
      "outputs": [],
      "stateMutability": "nonpayable",
      "type": "function"
    },
    {
      "inputs": [
        {
          "internalType": "bytes32",
          "name": "role",
          "type": "bytes32"
        },
        {
          "internalType": "address",
          "name": "account",
          "type": "address"
        }
      ],
      "name": "hasRole",
      "outputs": [
        {
          "internalType": "bool",
          "name": "",
          "type": "bool"
        }
      ],
      "stateMutability": "view",
      "type": "function",
      "constant": true
    },
    {
      "inputs": [
        {
          "internalType": "uint256",
          "name": "",
          "type": "uint256"
        }
      ],
      "name": "lotery_players",
      "outputs": [
        {
          "internalType": "uint256",
          "name": "value",
          "type": "uint256"
        },
        {
          "internalType": "uint256",
          "name": "startDate",
          "type": "uint256"
        },
        {
          "internalType": "uint256",
          "name": "endDate",
          "type": "uint256"
        },
        {
          "internalType": "uint128",
          "name": "fromBlock",
          "type": "uint128"
        },
        {
          "internalType": "address",
          "name": "player",
          "type": "address"
        }
      ],
      "stateMutability": "view",
      "type": "function",
      "constant": true
    },
    {
      "inputs": [],
      "name": "lotteryId",
      "outputs": [
        {
          "internalType": "uint256",
          "name": "",
          "type": "uint256"
        }
      ],
      "stateMutability": "view",
      "type": "function",
      "constant": true
    },
    {
      "inputs": [],
      "name": "lottery_state",
      "outputs": [
        {
          "internalType": "enum Lottery.LOTTERY_STATE",
          "name": "",
          "type": "uint8"
        }
      ],
      "stateMutability": "view",
      "type": "function",
      "constant": true
    },
    {
      "inputs": [],
      "name": "owner",
      "outputs": [
        {
          "internalType": "address",
          "name": "",
          "type": "address"
        }
      ],
      "stateMutability": "view",
      "type": "function",
      "constant": true
    },
    {
      "inputs": [],
      "name": "percentageLessPriceResult",
      "outputs": [
        {
          "internalType": "uint256",
          "name": "",
          "type": "uint256"
        }
      ],
      "stateMutability": "view",
      "type": "function",
      "constant": true
    },
    {
      "inputs": [
        {
          "internalType": "uint256",
          "name": "",
          "type": "uint256"
        }
      ],
      "name": "players",
      "outputs": [
        {
          "internalType": "address payable",
          "name": "",
          "type": "address"
        }
      ],
      "stateMutability": "view",
      "type": "function",
      "constant": true
    },
    {
      "inputs": [],
      "name": "renounceOwnership",
      "outputs": [],
      "stateMutability": "nonpayable",
      "type": "function"
    },
    {
      "inputs": [
        {
          "internalType": "bytes32",
          "name": "role",
          "type": "bytes32"
        },
        {
          "internalType": "address",
          "name": "account",
          "type": "address"
        }
      ],
      "name": "renounceRole",
      "outputs": [],
      "stateMutability": "nonpayable",
      "type": "function"
    },
    {
      "inputs": [
        {
          "internalType": "bytes32",
          "name": "role",
          "type": "bytes32"
        },
        {
          "internalType": "address",
          "name": "account",
          "type": "address"
        }
      ],
      "name": "revokeRole",
      "outputs": [],
      "stateMutability": "nonpayable",
      "type": "function"
    },
    {
      "inputs": [
        {
          "internalType": "address",
          "name": "newOwner",
          "type": "address"
        }
      ],
      "name": "transferOwnership",
      "outputs": [],
      "stateMutability": "nonpayable",
      "type": "function"
    },
    {
      "inputs": [
        {
          "internalType": "uint256",
          "name": "",
          "type": "uint256"
        }
      ],
      "name": "winnersHistory",
      "outputs": [
        {
          "internalType": "uint256",
          "name": "value",
          "type": "uint256"
        },
        {
          "internalType": "uint256",
          "name": "startDate",
          "type": "uint256"
        },
        {
          "internalType": "uint256",
          "name": "endDate",
          "type": "uint256"
        },
        {
          "internalType": "uint128",
          "name": "fromBlock",
          "type": "uint128"
        },
        {
          "internalType": "address",
          "name": "winner",
          "type": "address"
        }
      ],
      "stateMutability": "view",
      "type": "function",
      "constant": true
    },
    {
      "inputs": [
        {
          "internalType": "uint256",
          "name": "_startDate",
          "type": "uint256"
        },
        {
          "internalType": "uint256",
          "name": "_endDate",
          "type": "uint256"
        }
      ],
      "name": "start_new_lottery",
      "outputs": [],
      "stateMutability": "nonpayable",
      "type": "function"
    },
    {
      "inputs": [
        {
          "internalType": "uint256",
          "name": "_startDate",
          "type": "uint256"
        },
        {
          "internalType": "uint256",
          "name": "_endDate",
          "type": "uint256"
        }
      ],
      "name": "start_new_lottery_with",
      "outputs": [],
      "stateMutability": "nonpayable",
      "type": "function"
    },
    {
      "inputs": [
        {
          "internalType": "address",
          "name": "user_with_role_to_add",
          "type": "address"
        }
      ],
      "name": "add_lottery_worker",
      "outputs": [],
      "stateMutability": "nonpayable",
      "type": "function"
    },
    {
      "inputs": [],
      "name": "enter",
      "outputs": [],
      "stateMutability": "payable",
      "type": "function",
      "payable": true
    },
    {
      "inputs": [
        {
          "internalType": "uint256",
          "name": "_saltRandomNumber",
          "type": "uint256"
        }
      ],
      "name": "pickWinner",
      "outputs": [],
      "stateMutability": "nonpayable",
      "type": "function"
    },
    {
      "inputs": [
        {
          "internalType": "uint256",
          "name": "_saltRandomNumber",
          "type": "uint256"
        }
      ],
      "name": "pick_winner_with",
      "outputs": [],
      "stateMutability": "nonpayable",
      "type": "function"
    },
    {
      "inputs": [],
      "name": "getLastWinner",
      "outputs": [
        {
          "internalType": "bool",
          "name": "",
          "type": "bool"
        },
        {
          "internalType": "uint128",
          "name": "",
          "type": "uint128"
        },
        {
          "internalType": "address",
          "name": "",
          "type": "address"
        },
        {
          "internalType": "uint256",
          "name": "",
          "type": "uint256"
        }
      ],
      "stateMutability": "view",
      "type": "function",
      "constant": true
    },
    {
      "inputs": [],
      "name": "getLast40Winners",
      "outputs": [
        {
          "internalType": "uint256[]",
          "name": "",
          "type": "uint256[]"
        },
        {
          "internalType": "uint256[]",
          "name": "",
          "type": "uint256[]"
        },
        {
          "internalType": "uint256[]",
          "name": "",
          "type": "uint256[]"
        },
        {
          "internalType": "uint128[]",
          "name": "",
          "type": "uint128[]"
        },
        {
          "internalType": "address[]",
          "name": "",
          "type": "address[]"
        }
      ],
      "stateMutability": "view",
      "type": "function",
      "constant": true
    },
    {
      "inputs": [
        {
          "internalType": "uint128",
          "name": "_fromBlock",
          "type": "uint128"
        }
      ],
      "name": "getWinnerAtBlock",
      "outputs": [
        {
          "internalType": "bool",
          "name": "",
          "type": "bool"
        },
        {
          "internalType": "uint128",
          "name": "",
          "type": "uint128"
        },
        {
          "internalType": "address",
          "name": "",
          "type": "address"
        },
        {
          "internalType": "uint256",
          "name": "",
          "type": "uint256"
        }
      ],
      "stateMutability": "view",
      "type": "function",
      "constant": true
    },
    {
      "inputs": [],
      "name": "getMainBalance",
      "outputs": [
        {
          "internalType": "uint256",
          "name": "",
          "type": "uint256"
        }
      ],
      "stateMutability": "view",
      "type": "function",
      "constant": true
    },
    {
      "inputs": [],
      "name": "getStatus",
      "outputs": [
        {
          "internalType": "enum Lottery.LOTTERY_STATE",
          "name": "",
          "type": "uint8"
        }
      ],
      "stateMutability": "view",
      "type": "function",
      "constant": true
    }
  ],
  "bytecode": "0x60806040523480156200001157600080fd5b506040516200362638038062003626833981810160405260608110156200003757600080fd5b8101908080519060200190929190805190602001909291908051906020019092919050505060006200006e620001a360201b60201c565b9050806000806101000a81548173ffffffffffffffffffffffffffffffffffffffff021916908373ffffffffffffffffffffffffffffffffffffffff1602179055508073ffffffffffffffffffffffffffffffffffffffff16600073ffffffffffffffffffffffffffffffffffffffff167f8be0079c531659141344cd1fd0a4f28419497f9722a3daafe3b4186f6b6457e060405160405180910390a35081600560006101000a81548173ffffffffffffffffffffffffffffffffffffffff021916908373ffffffffffffffffffffffffffffffffffffffff16021790555060006008819055506001600260006101000a81548160ff021916908360028111156200017557fe5b0217905550806009819055506014600a819055506200019a83620001ab60201b60201c565b505050620003da565b600033905090565b620001bb620001a360201b60201c565b73ffffffffffffffffffffffffffffffffffffffff16620001e1620003b160201b60201c565b73ffffffffffffffffffffffffffffffffffffffff16146200026b576040517f08c379a00000000000000000000000000000000000000000000000000000000081526004018080602001828103825260208152602001807f4f776e61626c653a2063616c6c6572206973206e6f7420746865206f776e657281525060200191505060405180910390fd5b600073ffffffffffffffffffffffffffffffffffffffff168173ffffffffffffffffffffffffffffffffffffffff161415620002f3576040517f08c379a0000000000000000000000000000000000000000000000000000000008152600401808060200182810382526026815260200180620036006026913960400191505060405180910390fd5b8073ffffffffffffffffffffffffffffffffffffffff166000809054906101000a900473ffffffffffffffffffffffffffffffffffffffff1673ffffffffffffffffffffffffffffffffffffffff167f8be0079c531659141344cd1fd0a4f28419497f9722a3daafe3b4186f6b6457e060405160405180910390a3806000806101000a81548173ffffffffffffffffffffffffffffffffffffffff021916908373ffffffffffffffffffffffffffffffffffffffff16021790555050565b60008060009054906101000a900473ffffffffffffffffffffffffffffffffffffffff16905090565b61321680620003ea6000396000f3fe6080604052600436106101cd5760003560e01c8063a217fddf116100f7578063dd1ac6ee11610095578063f2fde38b11610064578063f2fde38b14610b47578063f71d96cb14610b98578063f737d21d14610c13578063f88649a114610c4e576101cd565b8063dd1ac6ee14610aa2578063dd90f00614610ae7578063e580f47b14610b12578063e97dcb6214610b3d576101cd565b8063c5728aec116100d1578063c5728aec14610978578063ca15c873146109b3578063d547741f14610a02578063d7ce9b4014610a5d576101cd565b8063a217fddf14610858578063a22dff2c14610883578063b2186894146108ae576101cd565b80634fff6d251161016f5780638da5cb5b1161013e5780638da5cb5b146106b85780639010d07c1461070f57806391d14854146107945780639dd85e8914610807576101cd565b80634fff6d2514610421578063715018a6146105ad57806381447999146105c45780638456704e146105fd576101cd565b806338090ec6116101ab57806338090ec6146102d7578063390ed6a61461030257806346b62ae01461032d5780634e69d560146103e8576101cd565b8063248a9ca3146101d25780632f2ff15d1461022157806336568abe1461027c575b600080fd5b3480156101de57600080fd5b5061020b600480360360208110156101f557600080fd5b8101908080359060200190929190505050610ce2565b6040518082815260200191505060405180910390f35b34801561022d57600080fd5b5061027a6004803603604081101561024457600080fd5b8101908080359060200190929190803573ffffffffffffffffffffffffffffffffffffffff169060200190929190505050610d02565b005b34801561028857600080fd5b506102d56004803603604081101561029f57600080fd5b8101908080359060200190929190803573ffffffffffffffffffffffffffffffffffffffff169060200190929190505050610d8c565b005b3480156102e357600080fd5b506102ec610e25565b6040518082815260200191505060405180910390f35b34801561030e57600080fd5b50610317610e5e565b6040518082815260200191505060405180910390f35b34801561033957600080fd5b506103666004803603602081101561035057600080fd5b8101908080359060200190929190505050610e64565b60405180868152602001858152602001848152602001836fffffffffffffffffffffffffffffffff166fffffffffffffffffffffffffffffffff1681526020018273ffffffffffffffffffffffffffffffffffffffff1673ffffffffffffffffffffffffffffffffffffffff1681526020019550505050505060405180910390f35b3480156103f457600080fd5b506103fd610ee3565b6040518082600281111561040d57fe5b60ff16815260200191505060405180910390f35b34801561042d57600080fd5b50610436610efa565b60405180806020018060200180602001806020018060200186810386528b818151815260200191508051906020019060200280838360005b8381101561048957808201518184015260208101905061046e565b5050505090500186810385528a818151815260200191508051906020019060200280838360005b838110156104cb5780820151818401526020810190506104b0565b50505050905001868103845289818151815260200191508051906020019060200280838360005b8381101561050d5780820151818401526020810190506104f2565b50505050905001868103835288818151815260200191508051906020019060200280838360005b8381101561054f578082015181840152602081019050610534565b50505050905001868103825287818151815260200191508051906020019060200280838360005b83811015610591578082015181840152602081019050610576565b505050509050019a505050505050505050505060405180910390f35b3480156105b957600080fd5b506105c261122a565b005b3480156105d057600080fd5b506105d9611398565b604051808260028111156105e957fe5b60ff16815260200191505060405180910390f35b34801561060957600080fd5b506106366004803603602081101561062057600080fd5b81019080803590602001909291905050506113ab565b60405180868152602001858152602001848152602001836fffffffffffffffffffffffffffffffff166fffffffffffffffffffffffffffffffff1681526020018273ffffffffffffffffffffffffffffffffffffffff1673ffffffffffffffffffffffffffffffffffffffff1681526020019550505050505060405180910390f35b3480156106c457600080fd5b506106cd61142a565b604051808273ffffffffffffffffffffffffffffffffffffffff1673ffffffffffffffffffffffffffffffffffffffff16815260200191505060405180910390f35b34801561071b57600080fd5b506107526004803603604081101561073257600080fd5b810190808035906020019092919080359060200190929190505050611453565b604051808273ffffffffffffffffffffffffffffffffffffffff1673ffffffffffffffffffffffffffffffffffffffff16815260200191505060405180910390f35b3480156107a057600080fd5b506107ed600480360360408110156107b757600080fd5b8101908080359060200190929190803573ffffffffffffffffffffffffffffffffffffffff169060200190929190505050611485565b604051808215151515815260200191505060405180910390f35b34801561081357600080fd5b506108566004803603602081101561082a57600080fd5b81019080803573ffffffffffffffffffffffffffffffffffffffff1690602001909291905050506114b7565b005b34801561086457600080fd5b5061086d6115a8565b6040518082815260200191505060405180910390f35b34801561088f57600080fd5b506108986115af565b6040518082815260200191505060405180910390f35b3480156108ba57600080fd5b506108f9600480360360208110156108d157600080fd5b8101908080356fffffffffffffffffffffffffffffffff1690602001909291905050506115b7565b6040518085151515158152602001846fffffffffffffffffffffffffffffffff166fffffffffffffffffffffffffffffffff1681526020018373ffffffffffffffffffffffffffffffffffffffff1673ffffffffffffffffffffffffffffffffffffffff16815260200182815260200194505050505060405180910390f35b34801561098457600080fd5b506109b16004803603602081101561099b57600080fd5b8101908080359060200190929190505050611706565b005b3480156109bf57600080fd5b506109ec600480360360208110156109d657600080fd5b81019080803590602001909291905050506117c3565b6040518082815260200191505060405180910390f35b348015610a0e57600080fd5b50610a5b60048036036040811015610a2557600080fd5b8101908080359060200190929190803573ffffffffffffffffffffffffffffffffffffffff1690602001909291905050506117ea565b005b348015610a6957600080fd5b50610aa060048036036040811015610a8057600080fd5b810190808035906020019092919080359060200190929190505050611874565b005b348015610aae57600080fd5b50610ae560048036036040811015610ac557600080fd5b810190808035906020019092919080359060200190929190505050611933565b005b348015610af357600080fd5b50610afc6119f0565b6040518082815260200191505060405180910390f35b348015610b1e57600080fd5b50610b276119f6565b6040518082815260200191505060405180910390f35b610b456119fc565b005b348015610b5357600080fd5b50610b9660048036036020811015610b6a57600080fd5b81019080803573ffffffffffffffffffffffffffffffffffffffff169060200190929190505050611c7a565b005b348015610ba457600080fd5b50610bd160048036036020811015610bbb57600080fd5b8101908080359060200190929190505050611e6d565b604051808273ffffffffffffffffffffffffffffffffffffffff1673ffffffffffffffffffffffffffffffffffffffff16815260200191505060405180910390f35b348015610c1f57600080fd5b50610c4c60048036036020811015610c3657600080fd5b8101908080359060200190929190505050611ea9565b005b348015610c5a57600080fd5b50610c63611f64565b6040518085151515158152602001846fffffffffffffffffffffffffffffffff166fffffffffffffffffffffffffffffffff1681526020018373ffffffffffffffffffffffffffffffffffffffff1673ffffffffffffffffffffffffffffffffffffffff16815260200182815260200194505050505060405180910390f35b600060016000838152602001908152602001600020600201549050919050565b610d296001600084815260200190815260200160002060020154610d246120a5565b611485565b610d7e576040517f08c379a000000000000000000000000000000000000000000000000000000000815260040180806020018281038252602f8152602001806130c8602f913960400191505060405180910390fd5b610d8882826120ad565b5050565b610d946120a5565b73ffffffffffffffffffffffffffffffffffffffff168173ffffffffffffffffffffffffffffffffffffffff1614610e17576040517f08c379a000000000000000000000000000000000000000000000000000000000815260040180806020018281038252602f8152602001806131b2602f913960400191505060405180910390fd5b610e218282612141565b5050565b60405180807f4c4f54544552595f524f4c450000000000000000000000000000000000000000815250600c019050604051809103902081565b60095481565b60048181548110610e7157fe5b90600052602060002090600502016000915090508060000154908060010154908060020154908060030160009054906101000a90046fffffffffffffffffffffffffffffffff16908060040160009054906101000a900473ffffffffffffffffffffffffffffffffffffffff16905085565b6000600260009054906101000a900460ff16905090565b6060806060806060600060289050606081604051908082528060200260200182016040528015610f395781602001602082028038833980820191505090505b509050606082604051908082528060200260200182016040528015610f6d5781602001602082028038833980820191505090505b509050606083604051908082528060200260200182016040528015610fa15781602001602082028038833980820191505090505b509050606084604051908082528060200260200182016040528015610fd55781602001602082028038833980820191505090505b5090506060856040519080825280602002602001820160405280156110095781602001602082028038833980820191505090505b5090506000600b80549050111561120e57600080905060006001600b805490500390505b600081101580156110425750600b8054905081105b801561104d57508782105b1561120b57600b818154811061105f57fe5b90600052602060002090600502016000015487838151811061107d57fe5b602002602001018181525050600b818154811061109657fe5b9060005260206000209060050201600101548683815181106110b457fe5b602002602001018181525050600b81815481106110cd57fe5b9060005260206000209060050201600201548583815181106110eb57fe5b602002602001018181525050600b818154811061110457fe5b906000526020600020906005020160030160009054906101000a90046fffffffffffffffffffffffffffffffff1684838151811061113e57fe5b60200260200101906fffffffffffffffffffffffffffffffff1690816fffffffffffffffffffffffffffffffff1681525050600b818154811061117d57fe5b906000526020600020906005020160040160009054906101000a900473ffffffffffffffffffffffffffffffffffffffff168383815181106111bb57fe5b602002602001019073ffffffffffffffffffffffffffffffffffffffff16908173ffffffffffffffffffffffffffffffffffffffff1681525050818060010192505080806001900391505061102d565b50505b84848484849a509a509a509a509a505050505050509091929394565b6112326120a5565b73ffffffffffffffffffffffffffffffffffffffff1661125061142a565b73ffffffffffffffffffffffffffffffffffffffff16146112d9576040517f08c379a00000000000000000000000000000000000000000000000000000000081526004018080602001828103825260208152602001807f4f776e61626c653a2063616c6c6572206973206e6f7420746865206f776e657281525060200191505060405180910390fd5b600073ffffffffffffffffffffffffffffffffffffffff166000809054906101000a900473ffffffffffffffffffffffffffffffffffffffff1673ffffffffffffffffffffffffffffffffffffffff167f8be0079c531659141344cd1fd0a4f28419497f9722a3daafe3b4186f6b6457e060405160405180910390a360008060006101000a81548173ffffffffffffffffffffffffffffffffffffffff021916908373ffffffffffffffffffffffffffffffffffffffff160217905550565b600260009054906101000a900460ff1681565b600b81815481106113b857fe5b90600052602060002090600502016000915090508060000154908060010154908060020154908060030160009054906101000a90046fffffffffffffffffffffffffffffffff16908060040160009054906101000a900473ffffffffffffffffffffffffffffffffffffffff16905085565b60008060009054906101000a900473ffffffffffffffffffffffffffffffffffffffff16905090565b600061147d82600160008681526020019081526020016000206000016121d590919063ffffffff16565b905092915050565b60006114af82600160008681526020019081526020016000206000016121ef90919063ffffffff16565b905092915050565b6114bf6120a5565b73ffffffffffffffffffffffffffffffffffffffff166114dd61142a565b73ffffffffffffffffffffffffffffffffffffffff1614611566576040517f08c379a00000000000000000000000000000000000000000000000000000000081526004018080602001828103825260208152602001807f4f776e61626c653a2063616c6c6572206973206e6f7420746865206f776e657281525060200191505060405180910390fd5b6115a560405180807f4c4f54544552595f524f4c450000000000000000000000000000000000000000815250600c01905060405180910390208261221f565b50565b6000801b81565b600047905090565b60008060008060008090505b600b805490508110156116ec57856fffffffffffffffffffffffffffffffff16600b82815481106115f057fe5b906000526020600020906005020160030160009054906101000a90046fffffffffffffffffffffffffffffffff166fffffffffffffffffffffffffffffffff1614156116df576001600b828154811061164557fe5b906000526020600020906005020160030160009054906101000a90046fffffffffffffffffffffffffffffffff16600b838154811061168057fe5b906000526020600020906005020160040160009054906101000a900473ffffffffffffffffffffffffffffffffffffffff16600b84815481106116bf57fe5b9060005260206000209060050201600001549450945094509450506116ff565b80806001019150506115c3565b5060008060008081915093509350935093505b9193509193565b61174560405180807f4c4f54544552595f524f4c450000000000000000000000000000000000000000815250600c019050604051809103902033611485565b6117b7576040517f08c379a000000000000000000000000000000000000000000000000000000000815260040180806020018281038252601d8152602001807f43616c6c6572206973206e6f742061206c6f747465727920726f6c652e00000081525060200191505060405180910390fd5b6117c08161222d565b50565b60006117e3600160008481526020019081526020016000206000016125b5565b9050919050565b611811600160008481526020019081526020016000206002015461180c6120a5565b611485565b611866576040517f08c379a000000000000000000000000000000000000000000000000000000000815260040180806020018281038252603081526020018061311d6030913960400191505060405180910390fd5b6118708282612141565b5050565b6118b360405180807f4c4f54544552595f524f4c450000000000000000000000000000000000000000815250600c019050604051809103902033611485565b611925576040517f08c379a000000000000000000000000000000000000000000000000000000000815260040180806020018281038252601d8152602001807f43616c6c6572206973206e6f742061206c6f747465727920726f6c652e00000081525060200191505060405180910390fd5b61192f82826125ca565b5050565b61193b6120a5565b73ffffffffffffffffffffffffffffffffffffffff1661195961142a565b73ffffffffffffffffffffffffffffffffffffffff16146119e2576040517f08c379a00000000000000000000000000000000000000000000000000000000081526004018080602001828103825260208152602001807f4f776e61626c653a2063616c6c6572206973206e6f7420746865206f776e657281525060200191505060405180910390fd5b6119ec82826125ca565b5050565b600a5481565b60085481565b6009543414611a56576040517f08c379a000000000000000000000000000000000000000000000000000000000815260040180806020018281038252602281526020018061316e6022913960400191505060405180910390fd5b60006002811115611a6357fe5b600260009054906101000a900460ff166002811115611a7e57fe5b14611af1576040517f08c379a00000000000000000000000000000000000000000000000000000000081526004018080602001828103825260208152602001807f546865206c6f7474657279206861736e2774206576656e20737461727465642181525060200191505060405180910390fd5b6003339080600181540180825580915050600190039060005260206000200160009091909190916101000a81548173ffffffffffffffffffffffffffffffffffffffff021916908373ffffffffffffffffffffffffffffffffffffffff16021790555060046040518060a0016040528034815260200160065481526020016007548152602001436fffffffffffffffffffffffffffffffff1681526020013373ffffffffffffffffffffffffffffffffffffffff16815250908060018154018082558091505060019003906000526020600020906005020160009091909190915060008201518160000155602082015181600101556040820151816002015560608201518160030160006101000a8154816fffffffffffffffffffffffffffffffff02191690836fffffffffffffffffffffffffffffffff16021790555060808201518160040160006101000a81548173ffffffffffffffffffffffffffffffffffffffff021916908373ffffffffffffffffffffffffffffffffffffffff1602179055505050565b611c826120a5565b73ffffffffffffffffffffffffffffffffffffffff16611ca061142a565b73ffffffffffffffffffffffffffffffffffffffff1614611d29576040517f08c379a00000000000000000000000000000000000000000000000000000000081526004018080602001828103825260208152602001807f4f776e61626c653a2063616c6c6572206973206e6f7420746865206f776e657281525060200191505060405180910390fd5b600073ffffffffffffffffffffffffffffffffffffffff168173ffffffffffffffffffffffffffffffffffffffff161415611daf576040517f08c379a00000000000000000000000000000000000000000000000000000000081526004018080602001828103825260268152602001806130f76026913960400191505060405180910390fd5b8073ffffffffffffffffffffffffffffffffffffffff166000809054906101000a900473ffffffffffffffffffffffffffffffffffffffff1673ffffffffffffffffffffffffffffffffffffffff167f8be0079c531659141344cd1fd0a4f28419497f9722a3daafe3b4186f6b6457e060405160405180910390a3806000806101000a81548173ffffffffffffffffffffffffffffffffffffffff021916908373ffffffffffffffffffffffffffffffffffffffff16021790555050565b60038181548110611e7a57fe5b906000526020600020016000915054906101000a900473ffffffffffffffffffffffffffffffffffffffff1681565b611eb16120a5565b73ffffffffffffffffffffffffffffffffffffffff16611ecf61142a565b73ffffffffffffffffffffffffffffffffffffffff1614611f58576040517f08c379a00000000000000000000000000000000000000000000000000000000081526004018080602001828103825260208152602001807f4f776e61626c653a2063616c6c6572206973206e6f7420746865206f776e657281525060200191505060405180910390fd5b611f618161222d565b50565b6000806000806000600b80549050111561208d57611f80612fa0565b600b6001600b805490500381548110611f9557fe5b90600052602060002090600502016040518060a00160405290816000820154815260200160018201548152602001600282015481526020016003820160009054906101000a90046fffffffffffffffffffffffffffffffff166fffffffffffffffffffffffffffffffff166fffffffffffffffffffffffffffffffff1681526020016004820160009054906101000a900473ffffffffffffffffffffffffffffffffffffffff1673ffffffffffffffffffffffffffffffffffffffff1673ffffffffffffffffffffffffffffffffffffffff16815250509050600181606001518260800151836000015194509450945094505061209f565b60008060008081915093509350935093505b90919293565b600033905090565b6120d581600160008581526020019081526020016000206000016126e890919063ffffffff16565b1561213d576120e26120a5565b73ffffffffffffffffffffffffffffffffffffffff168173ffffffffffffffffffffffffffffffffffffffff16837f2f8788117e7eff1d82e926ec794901d17c78024a50270940304540a733656f0d60405160405180910390a45b5050565b612169816001600085815260200190815260200160002060000161271890919063ffffffff16565b156121d1576121766120a5565b73ffffffffffffffffffffffffffffffffffffffff168173ffffffffffffffffffffffffffffffffffffffff16837ff6391f5c32d9c69d2a47ea670b442974b53935d1edc7fd64eb21e047a839171b60405160405180910390a45b5050565b60006121e48360000183612748565b60001c905092915050565b6000612217836000018373ffffffffffffffffffffffffffffffffffffffff1660001b6127cb565b905092915050565b61222982826120ad565b5050565b6000600281111561223a57fe5b600260009054906101000a900460ff16600281111561225557fe5b146122c8576040517f08c379a00000000000000000000000000000000000000000000000000000000081526004018080602001828103825260208152602001807f546865206c6f7474657279206861736e2774206576656e20737461727465642181525060200191505060405180910390fd5b6002808111156122d457fe5b600260009054906101000a900460ff1660028111156122ef57fe5b1415612346576040517f08c379a00000000000000000000000000000000000000000000000000000000081526004018080602001828103825260228152602001806131906022913960400191505060405180910390fd5b60028060006101000a81548160ff0219169083600281111561236457fe5b02179055507f4909f6329a582e86a81d1f0a21d9a6444c05e80f5d7fe983f89490645a5e1543600654600754604051808381526020018281526020019250505060405180910390a160606123bc6006546007546127ee565b90506123cc6001825103836129bd565b6008819055506123da612ff7565b81600854815181106123e857fe5b60200260200101519050600560009054906101000a900473ffffffffffffffffffffffffffffffffffffffff1673ffffffffffffffffffffffffffffffffffffffff166108fc612436612a39565b9081150290604051600060405180830381858888f19350505050158015612461573d6000803e3d6000fd5b506124778160800151612472612a53565b612a5b565b7f7187cdfe23735dcb26032ab8143903c4825da0e90fc54c079ff191e396398ff781608001516124a5612a53565b600654600754604051808573ffffffffffffffffffffffffffffffffffffffff1673ffffffffffffffffffffffffffffffffffffffff16815260200184815260200183815260200182815260200194505050505060405180910390a1806080015173ffffffffffffffffffffffffffffffffffffffff166108fc612527612a53565b9081150290604051600060405180830381858888f19350505050158015612552573d6000803e3d6000fd5b506001600260006101000a81548160ff0219169083600281111561257257fe5b02179055507f4e6364ba131593b08a3a1d651d77997d48a9df9c40bb681c8fb1088caa10acca6007546040518082815260200191505060405180910390a1505050565b60006125c382600001612c20565b9050919050565b600160028111156125d757fe5b600260009054906101000a900460ff1660028111156125f257fe5b14612665576040517f08c379a000000000000000000000000000000000000000000000000000000000815260040180806020018281038252601d8152602001807f43616e27742073746172742061206e6577206c6f74746572792079657400000081525060200191505060405180910390fd5b6000600260006101000a81548160ff0219169083600281111561268457fe5b021790555081600681905550806007819055507ff0543a89795cff517d42c396ed640669ebd342bcc948898dfbfec95ee2b5266760095460065460075460405180848152602001838152602001828152602001935050505060405180910390a15050565b6000612710836000018373ffffffffffffffffffffffffffffffffffffffff1660001b612c31565b905092915050565b6000612740836000018373ffffffffffffffffffffffffffffffffffffffff1660001b612ca1565b905092915050565b6000818360000180549050116127a9576040517f08c379a00000000000000000000000000000000000000000000000000000000081526004018080602001828103825260228152602001806130a66022913960400191505060405180910390fd5b8260000182815481106127b857fe5b9060005260206000200154905092915050565b600080836001016000848152602001908152602001600020541415905092915050565b6060806127fb8484612d89565b60405190808252806020026020018201604052801561283457816020015b61282161304e565b8152602001906001900390816128195790505b509050600080905060008090505b6004805490508110156129b157856004828154811061285d57fe5b9060005260206000209060050201600101541015801561289b5750846004828154811061288657fe5b90600052602060002090600502016002015411155b156129a457600481815481106128ad57fe5b90600052602060002090600502016040518060a00160405290816000820154815260200160018201548152602001600282015481526020016003820160009054906101000a90046fffffffffffffffffffffffffffffffff166fffffffffffffffffffffffffffffffff166fffffffffffffffffffffffffffffffff1681526020016004820160009054906101000a900473ffffffffffffffffffffffffffffffffffffffff1673ffffffffffffffffffffffffffffffffffffffff1673ffffffffffffffffffffffffffffffffffffffff168152505083838151811061299057fe5b602002602001018190525081806001019250505b8080600101915050612842565b50819250505092915050565b600082423384604051602001808481526020018373ffffffffffffffffffffffffffffffffffffffff1673ffffffffffffffffffffffffffffffffffffffff1660601b815260140182815260200193505050506040516020818303038152906040528051906020012060001c81612a3057fe5b06905092915050565b6000612a4e600a54612a49612a53565b612e5c565b905090565b600047905090565b600b6040518060a0016040528083815260200160065481526020016007548152602001600143036fffffffffffffffffffffffffffffffff1681526020018473ffffffffffffffffffffffffffffffffffffffff16815250908060018154018082558091505060019003906000526020600020906005020160009091909190915060008201518160000155602082015181600101556040820151816002015560608201518160030160006101000a8154816fffffffffffffffffffffffffffffffff02191690836fffffffffffffffffffffffffffffffff16021790555060808201518160040160006101000a81548173ffffffffffffffffffffffffffffffffffffffff021916908373ffffffffffffffffffffffffffffffffffffffff16021790555050507faa17b54b0149ffcb9131f40d990c831b0614d347cfbf00f9eb541b772a417ecd60014303838360405180846fffffffffffffffffffffffffffffffff166fffffffffffffffffffffffffffffffff1681526020018373ffffffffffffffffffffffffffffffffffffffff1673ffffffffffffffffffffffffffffffffffffffff168152602001828152602001935050505060405180910390a15050565b600081600001805490509050919050565b6000612c3d83836127cb565b612c96578260000182908060018154018082558091505060019003906000526020600020016000909190919091505582600001805490508360010160008481526020019081526020016000208190555060019050612c9b565b600090505b92915050565b60008083600101600084815260200190815260200160002054905060008114612d7d5760006001820390506000600186600001805490500390506000866000018281548110612cec57fe5b9060005260206000200154905080876000018481548110612d0957fe5b9060005260206000200181905550600183018760010160008381526020019081526020016000208190555086600001805480612d4157fe5b60019003818190600052602060002001600090559055866001016000878152602001908152602001600020600090556001945050505050612d83565b60009150505b92915050565b6000806000905060008090505b600480549050811015612e0a578460048281548110612db157fe5b90600052602060002090600502016001015410158015612def57508360048281548110612dda57fe5b90600052602060002090600502016002015411155b15612dfd5781806001019250505b8080600101915050612d96565b507f6f23683476c583c75f779c888c65cb8aeeb07d114d6226e0d7d6cbb782c50abf81858560405180848152602001838152602001828152602001935050505060405180910390a18091505092915050565b600080612e728484612e9190919063ffffffff16565b9050612e88606482612f1790919063ffffffff16565b91505092915050565b600080831415612ea45760009050612f11565b6000828402905082848281612eb557fe5b0414612f0c576040517f08c379a000000000000000000000000000000000000000000000000000000000815260040180806020018281038252602181526020018061314d6021913960400191505060405180910390fd5b809150505b92915050565b6000808211612f8e576040517f08c379a000000000000000000000000000000000000000000000000000000000815260040180806020018281038252601a8152602001807f536166654d6174683a206469766973696f6e206279207a65726f00000000000081525060200191505060405180910390fd5b818381612f9757fe5b04905092915050565b6040518060a0016040528060008152602001600081526020016000815260200160006fffffffffffffffffffffffffffffffff168152602001600073ffffffffffffffffffffffffffffffffffffffff1681525090565b6040518060a0016040528060008152602001600081526020016000815260200160006fffffffffffffffffffffffffffffffff168152602001600073ffffffffffffffffffffffffffffffffffffffff1681525090565b6040518060a0016040528060008152602001600081526020016000815260200160006fffffffffffffffffffffffffffffffff168152602001600073ffffffffffffffffffffffffffffffffffffffff168152509056fe456e756d657261626c655365743a20696e646578206f7574206f6620626f756e6473416363657373436f6e74726f6c3a2073656e646572206d75737420626520616e2061646d696e20746f206772616e744f776e61626c653a206e6577206f776e657220697320746865207a65726f2061646472657373416363657373436f6e74726f6c3a2073656e646572206d75737420626520616e2061646d696e20746f207265766f6b65536166654d6174683a206d756c7469706c69636174696f6e206f766572666c6f7754686520707269636520746f20656e746572206973206e6f7420636f72726563742e497320616c72656164792063616c63756c6174696e67207468652077696e6e65722e416363657373436f6e74726f6c3a2063616e206f6e6c792072656e6f756e636520726f6c657320666f722073656c66a2646970667358221220d59effafaac23074ce966b4d256ea5e94134899f55a3694e573e5275f03f82e864736f6c634300060200334f776e61626c653a206e6577206f776e657220697320746865207a65726f2061646472657373",
  "source": "// SPDX-License-Identifier: MIT\npragma solidity >=0.6.0 <0.8.0;\nimport \"@openzeppelin/contracts/math/SafeMath.sol\";\nimport \"@openzeppelin/contracts/access/Ownable.sol\";\nimport \"@openzeppelin/contracts/access/AccessControl.sol\";\n\ncontract Lottery is Ownable, AccessControl {\n    enum LOTTERY_STATE { OPEN, CLOSED, CALCULATING_WINNER }\n    LOTTERY_STATE public lottery_state;\n    address payable[] public players;\n    CheckpointLotteryPlayer[] public lotery_players;\n    address payable private owner_beneficiary;\n    uint256 startDate;\n    uint256 endDate; \n    uint256 public lotteryId;\n    uint256 public ENTER_PRICE;\n    uint256 public percentageLessPriceResult;\n    bytes32 public constant LOTTERY_ROLE = keccak256(\"LOTTERY_ROLE\");\n    using SafeMath for uint256;\n\n    struct  CheckpointWinner {\n        uint256 value;\n        uint256 startDate;\n        uint256 endDate; \n        uint128 fromBlock;\n        address winner;\n        \n    }\n\n    struct CheckpointLotteryPlayer {\n        uint256 value;\n        uint256 startDate;\n        uint256 endDate; \n        uint128 fromBlock;\n        address player;\n    }\n    event NewWinnerAdded(uint128 fromBlock, address owner, uint amount);\n    event LotteryHasEnded(uint256 endDate);\n    event CalculatingWinner( uint256 startDate, uint256 endDate);\n    event LotteryHasStarted(uint256 enter_price, uint256 startDate, uint256 endDate);\n    event WinnerSelectedInDate(address winner, uint256 amount, uint256 startDate, uint256 endDate);\n    event PlayersFoundInRangeDate( uint256 resultCount, uint256 _startDate,  uint256 _endDate);\n    event DebugValue( uint256 resultCount );\n    CheckpointWinner[] public winnersHistory;\n\n    constructor(address _owner_contract, address _owner_beneficiary, uint256 _enter_price) public {\n        owner_beneficiary = payable(address(_owner_beneficiary));\n        lotteryId = 0;\n        lottery_state = LOTTERY_STATE.CLOSED;  \n        ENTER_PRICE = _enter_price;\n        percentageLessPriceResult = uint256(20);\n        transferOwnership(_owner_contract);\n    }\n    \n    function start_new_lottery(uint256 _startDate, uint256 _endDate) external onlyOwner {\n        start_lottery(_startDate, _endDate);       \n    }\n\n    function start_new_lottery_with(uint256 _startDate, uint256 _endDate) external {\n        require(hasRole(LOTTERY_ROLE, msg.sender), \"Caller is not a lottery role.\");\n        start_lottery(_startDate, _endDate);\n    }\n    \n    function start_lottery(uint256 _startDate, uint256 _endDate) private {\n        require(lottery_state == LOTTERY_STATE.CLOSED, \"Can't start a new lottery yet\");\n        lottery_state = LOTTERY_STATE.OPEN;\n        startDate = _startDate;\n        endDate = _endDate; \n        emit LotteryHasStarted(ENTER_PRICE, startDate, endDate);\n    }\n\n    function add_lottery_worker(address user_with_role_to_add) external onlyOwner {\n        _setupRole(LOTTERY_ROLE, user_with_role_to_add);\n    }\n\n    function enter() external payable {\n        require(uint256(msg.value) == ENTER_PRICE, \"The price to enter is not correct.\");\n        require(lottery_state == LOTTERY_STATE.OPEN, \"The lottery hasn't even started!\");\n        players.push(msg.sender);\n        lotery_players.push(CheckpointLotteryPlayer({\n            value: uint256(msg.value),\n            fromBlock: uint128(block.number),\n            player: msg.sender,\n            startDate: startDate,\n            endDate: endDate\n        }));\n    } \n    \n    function pickWinner(uint _saltRandomNumber) external onlyOwner {\n        pick_winner_action(_saltRandomNumber);\n    }\n\n    function pick_winner_with(uint _saltRandomNumber) external {\n        require(hasRole(LOTTERY_ROLE, msg.sender), \"Caller is not a lottery role.\");\n        pick_winner_action(_saltRandomNumber);\n    }\n\n    function pick_winner_action(uint _saltRandomNumber) private {\n        require(lottery_state == LOTTERY_STATE.OPEN, \"The lottery hasn't even started!\");\n        require(lottery_state != LOTTERY_STATE.CALCULATING_WINNER, \"Is already calculating the winner.\");\n        lottery_state = LOTTERY_STATE.CALCULATING_WINNER;\n        emit CalculatingWinner( startDate, endDate);\n        CheckpointLotteryPlayer[] memory playersFounded = getPlayersFromToDate( startDate, endDate);\n        lotteryId = getRandomWinner(playersFounded.length - 1, _saltRandomNumber);\n        CheckpointLotteryPlayer memory winnerSelected = playersFounded[lotteryId];\n        payable(owner_beneficiary).transfer(calculateBenefitResult());\n        updateWinnerHistory(winnerSelected.player, getBalance());\n        emit WinnerSelectedInDate(winnerSelected.player, getBalance(), startDate, endDate);\n        payable(winnerSelected.player).transfer(getBalance());\n        lottery_state = LOTTERY_STATE.CLOSED;\n        emit LotteryHasEnded(endDate);\n    }\n\n    function getLastWinner() external view returns( bool, uint128, address, uint256){\n        if(winnersHistory.length > 0){\n            CheckpointWinner memory winner = winnersHistory[winnersHistory.length - 1];\n            return (true, winner.fromBlock, winner.winner, winner.value);\n        }\n        return(false, uint128(0), address(0),uint256(0));\n    }\n    function debugValue(uint256 valueDebug) private {\n        emit DebugValue(valueDebug);\n    }\n\n    function getLast40Winners() external view returns( \n        uint256 [] memory,\n        uint256 [] memory,\n        uint256 [] memory,\n        uint128 [] memory,\n        address [] memory\n        ){\n        uint limit = 40;\n        uint256 [] memory value_r = new uint256[](limit);\n        uint256 [] memory startDate_r = new uint256[](limit);\n        uint256 [] memory endDate_r = new uint256[](limit); \n        uint128 [] memory fromBlock_r = new uint128[](limit);\n        address [] memory winner_r = new address[](limit);\n        \n        if(winnersHistory.length > 0){\n            uint j = 0;\n            for(uint i = winnersHistory.length - 1; (i >= 0 && i < winnersHistory.length) && (j < limit ); i--) {\n                value_r[j] = winnersHistory[i].value;\n                startDate_r[j] = winnersHistory[i].startDate;\n                endDate_r[j] = winnersHistory[i].endDate;\n                fromBlock_r[j] = winnersHistory[i].fromBlock;\n                winner_r[j] = winnersHistory[i].winner;\n                j++;\n            }\n        }\n        return (value_r, startDate_r, endDate_r, fromBlock_r, winner_r);\n    }\n\n    function getWinnerAtBlock(uint128 _fromBlock) external view returns(bool,uint128, address, uint256){\n        for(uint i = 0; i<winnersHistory.length; i++){\n            if(winnersHistory[i].fromBlock == _fromBlock){\n                return (true,winnersHistory[i].fromBlock, winnersHistory[i].winner, winnersHistory[i].value);\n            }\n        }\n        return(false, uint128(0), address(0),uint256(0));\n    }\n\n    function getPlayersFromToDate( uint256 _startDate, uint256 _endDate) private returns(CheckpointLotteryPlayer[] memory){\n        CheckpointLotteryPlayer[] memory playersFound =  new CheckpointLotteryPlayer[](getPlayersFromToDateCount(\n            _startDate, \n            _endDate \n        ));\n        uint j = 0;\n        for(uint i = 0; i < lotery_players.length; i++) {\n            if(lotery_players[i].startDate >= _startDate && lotery_players[i].endDate <= _endDate){\n                playersFound[j] = lotery_players[i];\n                j++;\n            }\n        }\n        return playersFound;\n    }\n\n    function getPlayersFromToDateCount( uint256 _startDate, uint256 _endDate) private returns(uint256){\n        uint256 resultCount = 0;\n        for(uint i = 0; i < lotery_players.length; i++){\n            if(lotery_players[i].startDate >= _startDate && lotery_players[i].endDate <= _endDate){\n                resultCount++;\n            }\n        }\n        emit PlayersFoundInRangeDate( resultCount, _startDate,  _endDate);\n        return resultCount;\n    }\n\n    function getMainBalance() external view returns (uint){\n        return address(this).balance;\n    }\n\n    function getStatus() external view returns (LOTTERY_STATE){\n        return lottery_state;\n    }\n\n    // TODO: In the future could use Chainlink VRF to generate decentralize random numbers, on this implementation is solydity but needs to go Chainlink VRF some day is just a suggestion.\n    function getRandomWinner(uint _modulus, uint randNonce) private view returns (uint256) {\n        return uint256(keccak256(abi.encodePacked(block.timestamp,  \n                                          msg.sender,  \n                                          randNonce))) % _modulus;\n    }\n\n    function updateWinnerHistory(address _address, uint256 _amount) private {\n        winnersHistory.push(CheckpointWinner(\n            {\n                fromBlock: uint128(block.number - 1),\n                value: _amount,\n                winner: _address,\n                startDate: startDate,\n                endDate: endDate\n            }\n        ));\n        emit NewWinnerAdded(uint128(block.number - 1), _address, _amount);\n    }\n\n    function calculateBenefitResult() private view returns(uint256) {\n        return getPercentageValueOf(percentageLessPriceResult, getBalance());\n    }\n\n    function getPercentageValueOf(uint256 _percentageNumber, uint256 _totalNumber) private pure returns(uint256){\n        uint256 result = _totalNumber.mul(_percentageNumber);\n        return result.div(uint256(100)) ;\n    }\n\n    function getBalance() private view returns (uint256){\n        return address(this).balance;\n    }\n\n}",
  "sourcePath": "/Users/ismaelterreno/Documents/Repository/lottery/contracts/Lottery.sol",
  "compiler": {
    "name": "solc",
    "version": "0.6.2+commit.bacdbe57.Emscripten.clang"
  },
  "schemaVersion": "3.3.4",
  "updatedAt": "2021-03-01T17:49:20.698Z",
  "networkType": "ethereum",
  "devdoc": {
    "methods": {
      "getRoleAdmin(bytes32)": {
        "details": "Returns the admin role that controls `role`. See {grantRole} and {revokeRole}.     * To change a role's admin, use {_setRoleAdmin}."
      },
      "getRoleMember(bytes32,uint256)": {
        "details": "Returns one of the accounts that have `role`. `index` must be a value between 0 and {getRoleMemberCount}, non-inclusive.     * Role bearers are not sorted in any particular way, and their ordering may change at any point.     * WARNING: When using {getRoleMember} and {getRoleMemberCount}, make sure you perform all queries on the same block. See the following https://forum.openzeppelin.com/t/iterating-over-elements-on-enumerableset-in-openzeppelin-contracts/2296[forum post] for more information."
      },
      "getRoleMemberCount(bytes32)": {
        "details": "Returns the number of accounts that have `role`. Can be used together with {getRoleMember} to enumerate all bearers of a role."
      },
      "grantRole(bytes32,address)": {
        "details": "Grants `role` to `account`.     * If `account` had not been already granted `role`, emits a {RoleGranted} event.     * Requirements:     * - the caller must have ``role``'s admin role."
      },
      "hasRole(bytes32,address)": {
        "details": "Returns `true` if `account` has been granted `role`."
      },
      "owner()": {
        "details": "Returns the address of the current owner."
      },
      "renounceOwnership()": {
        "details": "Leaves the contract without owner. It will not be possible to call `onlyOwner` functions anymore. Can only be called by the current owner.     * NOTE: Renouncing ownership will leave the contract without an owner, thereby removing any functionality that is only available to the owner."
      },
      "renounceRole(bytes32,address)": {
        "details": "Revokes `role` from the calling account.     * Roles are often managed via {grantRole} and {revokeRole}: this function's purpose is to provide a mechanism for accounts to lose their privileges if they are compromised (such as when a trusted device is misplaced).     * If the calling account had been granted `role`, emits a {RoleRevoked} event.     * Requirements:     * - the caller must be `account`."
      },
      "revokeRole(bytes32,address)": {
        "details": "Revokes `role` from `account`.     * If `account` had been granted `role`, emits a {RoleRevoked} event.     * Requirements:     * - the caller must have ``role``'s admin role."
      },
      "transferOwnership(address)": {
        "details": "Transfers ownership of the contract to a new account (`newOwner`). Can only be called by the current owner."
      }
    }
  },
  "userdoc": {
    "methods": {}
  }
}