{
  "contractName": "Lottery",
  "abi": [
    {
      "inputs": [
        {
          "internalType": "address",
          "name": "_owner_beneficiary",
          "type": "address"
        },
        {
          "internalType": "uint256",
          "name": "enter_price",
          "type": "uint256"
        }
      ],
      "stateMutability": "nonpayable",
      "type": "constructor"
    },
    {
      "anonymous": false,
      "inputs": [],
      "name": "CalculatingWinner",
      "type": "event"
    },
    {
      "anonymous": false,
      "inputs": [],
      "name": "LotteryHasEnded",
      "type": "event"
    },
    {
      "anonymous": false,
      "inputs": [
        {
          "indexed": false,
          "internalType": "uint256",
          "name": "enter_price",
          "type": "uint256"
        }
      ],
      "name": "LotteryHasStarted",
      "type": "event"
    },
    {
      "anonymous": false,
      "inputs": [
        {
          "indexed": false,
          "internalType": "uint128",
          "name": "fromBlock",
          "type": "uint128"
        },
        {
          "indexed": false,
          "internalType": "address",
          "name": "owner",
          "type": "address"
        },
        {
          "indexed": false,
          "internalType": "uint256",
          "name": "amount",
          "type": "uint256"
        }
      ],
      "name": "NewWinnerAdded",
      "type": "event"
    },
    {
      "inputs": [],
      "name": "ENTER_PRICE",
      "outputs": [
        {
          "internalType": "uint256",
          "name": "",
          "type": "uint256"
        }
      ],
      "stateMutability": "view",
      "type": "function",
      "constant": true
    },
    {
      "inputs": [],
      "name": "lotteryId",
      "outputs": [
        {
          "internalType": "uint256",
          "name": "",
          "type": "uint256"
        }
      ],
      "stateMutability": "view",
      "type": "function",
      "constant": true
    },
    {
      "inputs": [],
      "name": "lottery_state",
      "outputs": [
        {
          "internalType": "enum Lottery.LOTTERY_STATE",
          "name": "",
          "type": "uint8"
        }
      ],
      "stateMutability": "view",
      "type": "function",
      "constant": true
    },
    {
      "inputs": [],
      "name": "percentageLessPriceResult",
      "outputs": [
        {
          "internalType": "uint256",
          "name": "",
          "type": "uint256"
        }
      ],
      "stateMutability": "view",
      "type": "function",
      "constant": true
    },
    {
      "inputs": [
        {
          "internalType": "uint256",
          "name": "",
          "type": "uint256"
        }
      ],
      "name": "players",
      "outputs": [
        {
          "internalType": "address payable",
          "name": "",
          "type": "address"
        }
      ],
      "stateMutability": "view",
      "type": "function",
      "constant": true
    },
    {
      "inputs": [],
      "name": "start_new_lottery",
      "outputs": [],
      "stateMutability": "nonpayable",
      "type": "function"
    },
    {
      "inputs": [],
      "name": "enter",
      "outputs": [],
      "stateMutability": "payable",
      "type": "function",
      "payable": true
    },
    {
      "inputs": [],
      "name": "pickWinner",
      "outputs": [],
      "stateMutability": "nonpayable",
      "type": "function"
    },
    {
      "inputs": [],
      "name": "getLastWinner",
      "outputs": [
        {
          "internalType": "uint128",
          "name": "",
          "type": "uint128"
        },
        {
          "internalType": "address",
          "name": "",
          "type": "address"
        },
        {
          "internalType": "uint256",
          "name": "",
          "type": "uint256"
        }
      ],
      "stateMutability": "view",
      "type": "function",
      "constant": true
    },
    {
      "inputs": [
        {
          "internalType": "uint128",
          "name": "_fromBlock",
          "type": "uint128"
        }
      ],
      "name": "getWinnerAtBlock",
      "outputs": [
        {
          "internalType": "bool",
          "name": "",
          "type": "bool"
        },
        {
          "internalType": "uint128",
          "name": "",
          "type": "uint128"
        },
        {
          "internalType": "address",
          "name": "",
          "type": "address"
        },
        {
          "internalType": "uint256",
          "name": "",
          "type": "uint256"
        }
      ],
      "stateMutability": "view",
      "type": "function",
      "constant": true
    },
    {
      "inputs": [],
      "name": "getMainBalance",
      "outputs": [
        {
          "internalType": "uint256",
          "name": "",
          "type": "uint256"
        }
      ],
      "stateMutability": "view",
      "type": "function",
      "constant": true
    },
    {
      "inputs": [],
      "name": "getStatus",
      "outputs": [
        {
          "internalType": "enum Lottery.LOTTERY_STATE",
          "name": "",
          "type": "uint8"
        }
      ],
      "stateMutability": "view",
      "type": "function",
      "constant": true
    }
  ],
  "bytecode": "0x608060405234801561001057600080fd5b506040516110bc3803806110bc8339818101604052604081101561003357600080fd5b81019080805190602001909291908051906020019092919050505081600260006101000a81548173ffffffffffffffffffffffffffffffffffffffff021916908373ffffffffffffffffffffffffffffffffffffffff160217905550600060038190555060016000806101000a81548160ff021916908360028111156100b557fe5b02179055508060048190555060146005819055505050610fe2806100da6000396000f3fe6080604052600436106100a75760003560e01c8063b218689411610064578063b2186894146101a2578063dd90f0061461026c578063e580f47b14610297578063e97dcb62146102c2578063f71d96cb146102cc578063f88649a114610347576100a7565b8063390ed6a6146100ac578063475f3de1146100d75780634e69d560146100ee5780635d495aea14610127578063814479991461013e578063a22dff2c14610177575b600080fd5b3480156100b857600080fd5b506100c16103d0565b6040518082815260200191505060405180910390f35b3480156100e357600080fd5b506100ec6103d6565b005b3480156100fa57600080fd5b506101036104ce565b6040518082600281111561011357fe5b60ff16815260200191505060405180910390f35b34801561013357600080fd5b5061013c6104e4565b005b34801561014a57600080fd5b506101536107e9565b6040518082600281111561016357fe5b60ff16815260200191505060405180910390f35b34801561018357600080fd5b5061018c6107fb565b6040518082815260200191505060405180910390f35b3480156101ae57600080fd5b506101ed600480360360208110156101c557600080fd5b8101908080356fffffffffffffffffffffffffffffffff169060200190929190505050610803565b6040518085151515158152602001846fffffffffffffffffffffffffffffffff166fffffffffffffffffffffffffffffffff1681526020018373ffffffffffffffffffffffffffffffffffffffff1673ffffffffffffffffffffffffffffffffffffffff16815260200182815260200194505050505060405180910390f35b34801561027857600080fd5b50610281610952565b6040518082815260200191505060405180910390f35b3480156102a357600080fd5b506102ac610958565b6040518082815260200191505060405180910390f35b6102ca61095e565b005b3480156102d857600080fd5b50610305600480360360208110156102ef57600080fd5b8101908080359060200190929190505050610ab7565b604051808273ffffffffffffffffffffffffffffffffffffffff1673ffffffffffffffffffffffffffffffffffffffff16815260200191505060405180910390f35b34801561035357600080fd5b5061035c610af3565b60405180846fffffffffffffffffffffffffffffffff166fffffffffffffffffffffffffffffffff1681526020018373ffffffffffffffffffffffffffffffffffffffff1673ffffffffffffffffffffffffffffffffffffffff168152602001828152602001935050505060405180910390f35b60045481565b600160028111156103e357fe5b6000809054906101000a900460ff1660028111156103fd57fe5b14610470576040517f08c379a000000000000000000000000000000000000000000000000000000000815260040180806020018281038252601d8152602001807f43616e27742073746172742061206e6577206c6f74746572792079657400000081525060200191505060405180910390fd5b60008060006101000a81548160ff0219169083600281111561048e57fe5b02179055507f36b1026f8e09aff4574610bc212c24ee8a02a8e8a5677f7546792714008ee5966004546040518082815260200191505060405180910390a1565b60008060009054906101000a900460ff16905090565b600060028111156104f157fe5b6000809054906101000a900460ff16600281111561050b57fe5b1461057e576040517f08c379a00000000000000000000000000000000000000000000000000000000081526004018080602001828103825260208152602001807f546865206c6f7474657279206861736e2774206576656e20737461727465642181525060200191505060405180910390fd5b60026000806101000a81548160ff0219169083600281111561059c57fe5b02179055507f6cdcd8c3b9a193341bfc2484506aa120da70a80a3ced1dd4b50cca163eaacaf860405160405180910390a16002808111156105d957fe5b6000809054906101000a900460ff1660028111156105f357fe5b14610649576040517f08c379a0000000000000000000000000000000000000000000000000000000008152600401808060200182810382526022815260200180610f8b6022913960400191505060405180910390fd5b610651610bf5565b600381905550600260009054906101000a900473ffffffffffffffffffffffffffffffffffffffff1673ffffffffffffffffffffffffffffffffffffffff166108fc61069b610bfd565b9081150290604051600060405180830381858888f193505050501580156106c6573d6000803e3d6000fd5b506107116001600354815481106106d957fe5b9060005260206000200160009054906101000a900473ffffffffffffffffffffffffffffffffffffffff1661070c610c17565b610c1f565b60016003548154811061072057fe5b9060005260206000200160009054906101000a900473ffffffffffffffffffffffffffffffffffffffff1673ffffffffffffffffffffffffffffffffffffffff166108fc61076c610c17565b9081150290604051600060405180830381858888f19350505050158015610797573d6000803e3d6000fd5b5060016000806101000a81548160ff021916908360028111156107b657fe5b02179055507f34f0c2219300df32ab0f8464e81fa001d927aa9f5db584dafc684a2d1a2f3e6260405160405180910390a1565b6000809054906101000a900460ff1681565b600047905090565b60008060008060008090505b60068054905081101561093857856fffffffffffffffffffffffffffffffff166006828154811061083c57fe5b906000526020600020906003020160010160009054906101000a90046fffffffffffffffffffffffffffffffff166fffffffffffffffffffffffffffffffff16141561092b5760016006828154811061089157fe5b906000526020600020906003020160010160009054906101000a90046fffffffffffffffffffffffffffffffff16600683815481106108cc57fe5b906000526020600020906003020160020160009054906101000a900473ffffffffffffffffffffffffffffffffffffffff166006848154811061090b57fe5b90600052602060002090600302016000015494509450945094505061094b565b808060010191505061080f565b5060008060008081915093509350935093505b9193509193565b60055481565b60035481565b60045434146109b8576040517f08c379a0000000000000000000000000000000000000000000000000000000008152600401808060200182810382526022815260200180610f696022913960400191505060405180910390fd5b600060028111156109c557fe5b6000809054906101000a900460ff1660028111156109df57fe5b14610a52576040517f08c379a00000000000000000000000000000000000000000000000000000000081526004018080602001828103825260208152602001807f546865206c6f7474657279206861736e2774206576656e20737461727465642181525060200191505060405180910390fd5b6001339080600181540180825580915050600190039060005260206000200160009091909190916101000a81548173ffffffffffffffffffffffffffffffffffffffff021916908373ffffffffffffffffffffffffffffffffffffffff160217905550565b60018181548110610ac457fe5b906000526020600020016000915054906101000a900473ffffffffffffffffffffffffffffffffffffffff1681565b6000806000610b00610efe565b600660016006805490500381548110610b1557fe5b9060005260206000209060030201604051806060016040529081600082015481526020016001820160009054906101000a90046fffffffffffffffffffffffffffffffff166fffffffffffffffffffffffffffffffff166fffffffffffffffffffffffffffffffff1681526020016002820160009054906101000a900473ffffffffffffffffffffffffffffffffffffffff1673ffffffffffffffffffffffffffffffffffffffff1673ffffffffffffffffffffffffffffffffffffffff1681525050905080602001518160400151826000015193509350935050909192565b600080905090565b6000610c12600554610c0d610c17565b610dba565b905090565b600047905090565b60066040518060600160405280838152602001436fffffffffffffffffffffffffffffffff1681526020018473ffffffffffffffffffffffffffffffffffffffff1681525090806001815401808255809150506001900390600052602060002090600302016000909190919091506000820151816000015560208201518160010160006101000a8154816fffffffffffffffffffffffffffffffff02191690836fffffffffffffffffffffffffffffffff16021790555060408201518160020160006101000a81548173ffffffffffffffffffffffffffffffffffffffff021916908373ffffffffffffffffffffffffffffffffffffffff16021790555050507faa17b54b0149ffcb9131f40d990c831b0614d347cfbf00f9eb541b772a417ecd43838360405180846fffffffffffffffffffffffffffffffff166fffffffffffffffffffffffffffffffff1681526020018373ffffffffffffffffffffffffffffffffffffffff1673ffffffffffffffffffffffffffffffffffffffff168152602001828152602001935050505060405180910390a15050565b600080610dd08484610def90919063ffffffff16565b9050610de6606482610e7590919063ffffffff16565b91505092915050565b600080831415610e025760009050610e6f565b6000828402905082848281610e1357fe5b0414610e6a576040517f08c379a0000000000000000000000000000000000000000000000000000000008152600401808060200182810382526021815260200180610f486021913960400191505060405180910390fd5b809150505b92915050565b6000808211610eec576040517f08c379a000000000000000000000000000000000000000000000000000000000815260040180806020018281038252601a8152602001807f536166654d6174683a206469766973696f6e206279207a65726f00000000000081525060200191505060405180910390fd5b818381610ef557fe5b04905092915050565b60405180606001604052806000815260200160006fffffffffffffffffffffffffffffffff168152602001600073ffffffffffffffffffffffffffffffffffffffff168152509056fe536166654d6174683a206d756c7469706c69636174696f6e206f766572666c6f7754686520707269636520746f20656e746572206973206e6f7420636f72726563742e497320616c72656164792063616c63756c6174696e67207468652077696e6e65722ea2646970667358221220d0f17d37d2d87b6b0dc6ec9ae3583c0a4e306b378c4b262715d9db10755b200864736f6c63430006000033",
  "source": "// SPDX-License-Identifier: MIT\npragma solidity >=0.6.0 <0.8.0;\nimport \"@openzeppelin/contracts/math/SafeMath.sol\";\n\ncontract Lottery {\n    enum LOTTERY_STATE { OPEN, CLOSED, CALCULATING_WINNER }\n    LOTTERY_STATE public lottery_state;\n    address payable[] public players;\n    address payable private owner_beneficiary;\n    uint256 public lotteryId;\n    uint256 public ENTER_PRICE;\n    uint256 public percentageLessPriceResult; \n    using SafeMath for uint256;\n\n    struct  CheckpointWinner {\n        uint256 value;\n        uint128 fromBlock;\n        address winner;\n    }\n\n    event NewWinnerAdded(uint128 fromBlock, address owner, uint amount);\n    event LotteryHasEnded();\n    event CalculatingWinner();\n    event LotteryHasStarted(uint256 enter_price);\n\n    CheckpointWinner[] winnersHistory;\n\n    constructor(address _owner_beneficiary, uint256 enter_price) public {\n        owner_beneficiary = payable(address(_owner_beneficiary));\n        lotteryId = 0;\n        lottery_state = LOTTERY_STATE.CLOSED;  \n        ENTER_PRICE = enter_price;\n        percentageLessPriceResult = uint256(20);\n    }\n    \n    function start_new_lottery() external {\n        require(lottery_state == LOTTERY_STATE.CLOSED, \"Can't start a new lottery yet\");\n        lottery_state = LOTTERY_STATE.OPEN;\n        emit LotteryHasStarted(ENTER_PRICE);\n    }\n\n    function enter() external payable {\n        require(uint256(msg.value) == ENTER_PRICE, \"The price to enter is not correct.\");\n        require(lottery_state == LOTTERY_STATE.OPEN, \"The lottery hasn't even started!\");\n        players.push(msg.sender);\n    } \n    \n    function pickWinner() external {\n        require(lottery_state == LOTTERY_STATE.OPEN, \"The lottery hasn't even started!\");\n        lottery_state = LOTTERY_STATE.CALCULATING_WINNER;\n        emit CalculatingWinner();\n        require(lottery_state == LOTTERY_STATE.CALCULATING_WINNER, \"Is already calculating the winner.\");\n        lotteryId = getRandomWinner();\n        payable(owner_beneficiary).transfer(calculateBenefitResult());\n        updateWinnerHistory(players[lotteryId], getBalance());\n        players[lotteryId].transfer(getBalance());\n        lottery_state = LOTTERY_STATE.CLOSED;\n        emit LotteryHasEnded();\n    }\n\n    function getLastWinner() external view returns(uint128, address, uint256){\n        CheckpointWinner memory winner = winnersHistory[winnersHistory.length - 1];\n        return (winner.fromBlock, winner.winner, winner.value);\n    }\n\n    function getWinnerAtBlock(uint128 _fromBlock) external view returns(bool,uint128, address, uint256){\n        for(uint i = 0; i<winnersHistory.length; i++){\n            if(winnersHistory[i].fromBlock == _fromBlock){\n                return (true,winnersHistory[i].fromBlock, winnersHistory[i].winner, winnersHistory[i].value);\n            }\n        }\n        return(false, uint128(0), address(0),uint256(0));\n    }\n\n    function getMainBalance() external view returns (uint){\n        return address(this).balance;\n    }\n\n    function getStatus() external view returns (LOTTERY_STATE){\n        return lottery_state;\n    }\n\n    // TODO: Use Chainlink VRF to generate real random nubers.\n    function getRandomWinner() private pure returns (uint256) {\n        return 0;\n    }\n\n    function updateWinnerHistory(address _address, uint256 amount) private {\n        winnersHistory.push(CheckpointWinner(\n            {\n                fromBlock: uint128(block.number),\n                value: amount,\n                winner: _address\n            }\n        ));\n        emit NewWinnerAdded(uint128(block.number), _address, amount);\n    }\n\n    function calculateBenefitResult() private view returns(uint256) {\n        return getPercentageValueOf(percentageLessPriceResult, getBalance());\n    }\n\n    function getPercentageValueOf(uint256 _percentageNumber, uint256 _totalNumber) private pure returns(uint256){\n        uint256 result = _totalNumber.mul(_percentageNumber);\n        return result.div(uint256(100)) ;\n    }\n\n    function getBalance() private view returns (uint256){\n        return address(this).balance;\n    }\n\n}",
  "sourcePath": "/Users/ismaelterreno/Documents/Repository/lottery/contracts/Lottery.sol",
  "compiler": {
    "name": "solc",
    "version": "0.6.0+commit.26b70077.Emscripten.clang"
  },
  "schemaVersion": "3.3.4",
  "updatedAt": "2021-02-23T19:23:10.481Z",
  "networkType": "ethereum",
  "devdoc": {
    "methods": {}
  },
  "userdoc": {
    "methods": {}
  }
}