{
  "contractName": "Lottery",
  "abi": [
    {
      "inputs": [
        {
          "internalType": "address",
          "name": "_owner_beneficiary",
          "type": "address"
        },
        {
          "internalType": "uint256",
          "name": "enter_price",
          "type": "uint256"
        }
      ],
      "stateMutability": "nonpayable",
      "type": "constructor"
    },
    {
      "anonymous": false,
      "inputs": [],
      "name": "CalculatingWinner",
      "type": "event"
    },
    {
      "anonymous": false,
      "inputs": [],
      "name": "LotteryHasEnded",
      "type": "event"
    },
    {
      "anonymous": false,
      "inputs": [
        {
          "indexed": false,
          "internalType": "uint256",
          "name": "enter_price",
          "type": "uint256"
        }
      ],
      "name": "LotteryHasStarted",
      "type": "event"
    },
    {
      "anonymous": false,
      "inputs": [
        {
          "indexed": false,
          "internalType": "uint128",
          "name": "fromBlock",
          "type": "uint128"
        },
        {
          "indexed": false,
          "internalType": "address",
          "name": "owner",
          "type": "address"
        },
        {
          "indexed": false,
          "internalType": "uint256",
          "name": "amount",
          "type": "uint256"
        }
      ],
      "name": "NewWinnerAdded",
      "type": "event"
    },
    {
      "inputs": [],
      "name": "ENTER_PRICE",
      "outputs": [
        {
          "internalType": "uint256",
          "name": "",
          "type": "uint256"
        }
      ],
      "stateMutability": "view",
      "type": "function",
      "constant": true
    },
    {
      "inputs": [
        {
          "internalType": "uint256",
          "name": "",
          "type": "uint256"
        }
      ],
      "name": "lotery_players",
      "outputs": [
        {
          "internalType": "uint256",
          "name": "value",
          "type": "uint256"
        },
        {
          "internalType": "uint128",
          "name": "fromBlock",
          "type": "uint128"
        },
        {
          "internalType": "address",
          "name": "player",
          "type": "address"
        },
        {
          "internalType": "uint256",
          "name": "startDate",
          "type": "uint256"
        },
        {
          "internalType": "uint256",
          "name": "endDate",
          "type": "uint256"
        }
      ],
      "stateMutability": "view",
      "type": "function",
      "constant": true
    },
    {
      "inputs": [],
      "name": "lotteryId",
      "outputs": [
        {
          "internalType": "uint256",
          "name": "",
          "type": "uint256"
        }
      ],
      "stateMutability": "view",
      "type": "function",
      "constant": true
    },
    {
      "inputs": [],
      "name": "lottery_state",
      "outputs": [
        {
          "internalType": "enum Lottery.LOTTERY_STATE",
          "name": "",
          "type": "uint8"
        }
      ],
      "stateMutability": "view",
      "type": "function",
      "constant": true
    },
    {
      "inputs": [],
      "name": "percentageLessPriceResult",
      "outputs": [
        {
          "internalType": "uint256",
          "name": "",
          "type": "uint256"
        }
      ],
      "stateMutability": "view",
      "type": "function",
      "constant": true
    },
    {
      "inputs": [
        {
          "internalType": "uint256",
          "name": "",
          "type": "uint256"
        }
      ],
      "name": "players",
      "outputs": [
        {
          "internalType": "address payable",
          "name": "",
          "type": "address"
        }
      ],
      "stateMutability": "view",
      "type": "function",
      "constant": true
    },
    {
      "inputs": [],
      "name": "start_new_lottery",
      "outputs": [],
      "stateMutability": "nonpayable",
      "type": "function"
    },
    {
      "inputs": [],
      "name": "enter",
      "outputs": [],
      "stateMutability": "payable",
      "type": "function",
      "payable": true
    },
    {
      "inputs": [],
      "name": "pickWinner",
      "outputs": [],
      "stateMutability": "nonpayable",
      "type": "function"
    },
    {
      "inputs": [],
      "name": "getLastWinner",
      "outputs": [
        {
          "internalType": "uint128",
          "name": "",
          "type": "uint128"
        },
        {
          "internalType": "address",
          "name": "",
          "type": "address"
        },
        {
          "internalType": "uint256",
          "name": "",
          "type": "uint256"
        }
      ],
      "stateMutability": "view",
      "type": "function",
      "constant": true
    },
    {
      "inputs": [
        {
          "internalType": "uint128",
          "name": "_fromBlock",
          "type": "uint128"
        }
      ],
      "name": "getWinnerAtBlock",
      "outputs": [
        {
          "internalType": "bool",
          "name": "",
          "type": "bool"
        },
        {
          "internalType": "uint128",
          "name": "",
          "type": "uint128"
        },
        {
          "internalType": "address",
          "name": "",
          "type": "address"
        },
        {
          "internalType": "uint256",
          "name": "",
          "type": "uint256"
        }
      ],
      "stateMutability": "view",
      "type": "function",
      "constant": true
    },
    {
      "inputs": [],
      "name": "getMainBalance",
      "outputs": [
        {
          "internalType": "uint256",
          "name": "",
          "type": "uint256"
        }
      ],
      "stateMutability": "view",
      "type": "function",
      "constant": true
    },
    {
      "inputs": [],
      "name": "getStatus",
      "outputs": [
        {
          "internalType": "enum Lottery.LOTTERY_STATE",
          "name": "",
          "type": "uint8"
        }
      ],
      "stateMutability": "view",
      "type": "function",
      "constant": true
    }
  ],
  "bytecode": "0x608060405234801561001057600080fd5b506040516116133803806116138339818101604052604081101561003357600080fd5b81019080805190602001909291908051906020019092919050505081600360006101000a81548173ffffffffffffffffffffffffffffffffffffffff021916908373ffffffffffffffffffffffffffffffffffffffff160217905550600060048190555060016000806101000a81548160ff021916908360028111156100b557fe5b02179055508060058190555060146006819055505050611539806100da6000396000f3fe6080604052600436106100c25760003560e01c8063a22dff2c1161007f578063e580f47b11610059578063e580f47b1461036d578063e97dcb6214610398578063f71d96cb146103a2578063f88649a11461041d576100c2565b8063a22dff2c1461024d578063b218689414610278578063dd90f00614610342576100c2565b8063390ed6a6146100c757806346b62ae0146100f2578063475f3de1146101ad5780634e69d560146101c45780635d495aea146101fd5780638144799914610214575b600080fd5b3480156100d357600080fd5b506100dc6104a6565b6040518082815260200191505060405180910390f35b3480156100fe57600080fd5b5061012b6004803603602081101561011557600080fd5b81019080803590602001909291905050506104ac565b60405180868152602001856fffffffffffffffffffffffffffffffff166fffffffffffffffffffffffffffffffff1681526020018473ffffffffffffffffffffffffffffffffffffffff1673ffffffffffffffffffffffffffffffffffffffff1681526020018381526020018281526020019550505050505060405180910390f35b3480156101b957600080fd5b506101c261052b565b005b3480156101d057600080fd5b506101d961062a565b604051808260028111156101e957fe5b60ff16815260200191505060405180910390f35b34801561020957600080fd5b50610212610640565b005b34801561022057600080fd5b506102296108e9565b6040518082600281111561023957fe5b60ff16815260200191505060405180910390f35b34801561025957600080fd5b506102626108fb565b6040518082815260200191505060405180910390f35b34801561028457600080fd5b506102c36004803603602081101561029b57600080fd5b8101908080356fffffffffffffffffffffffffffffffff169060200190929190505050610903565b6040518085151515158152602001846fffffffffffffffffffffffffffffffff166fffffffffffffffffffffffffffffffff1681526020018373ffffffffffffffffffffffffffffffffffffffff1673ffffffffffffffffffffffffffffffffffffffff16815260200182815260200194505050505060405180910390f35b34801561034e57600080fd5b50610357610a52565b6040518082815260200191505060405180910390f35b34801561037957600080fd5b50610382610a58565b6040518082815260200191505060405180910390f35b6103a0610a5e565b005b3480156103ae57600080fd5b506103db600480360360208110156103c557600080fd5b8101908080359060200190929190505050610cdb565b604051808273ffffffffffffffffffffffffffffffffffffffff1673ffffffffffffffffffffffffffffffffffffffff16815260200191505060405180910390f35b34801561042957600080fd5b50610432610d17565b60405180846fffffffffffffffffffffffffffffffff166fffffffffffffffffffffffffffffffff1681526020018373ffffffffffffffffffffffffffffffffffffffff1673ffffffffffffffffffffffffffffffffffffffff168152602001828152602001935050505060405180910390f35b60055481565b600281815481106104b957fe5b90600052602060002090600502016000915090508060000154908060010160009054906101000a90046fffffffffffffffffffffffffffffffff16908060020160009054906101000a900473ffffffffffffffffffffffffffffffffffffffff16908060030154908060040154905085565b6001600281111561053857fe5b6000809054906101000a900460ff16600281111561055257fe5b146105c5576040517f08c379a000000000000000000000000000000000000000000000000000000000815260040180806020018281038252601d8152602001807f43616e27742073746172742061206e6577206c6f74746572792079657400000081525060200191505060405180910390fd5b60008060006101000a81548160ff021916908360028111156105e357fe5b0217905550426007819055507f36b1026f8e09aff4574610bc212c24ee8a02a8e8a5677f7546792714008ee5966005546040518082815260200191505060405180910390a1565b60008060009054906101000a900460ff16905090565b6000600281111561064d57fe5b6000809054906101000a900460ff16600281111561066757fe5b146106da576040517f08c379a00000000000000000000000000000000000000000000000000000000081526004018080602001828103825260208152602001807f546865206c6f7474657279206861736e2774206576656e20737461727465642181525060200191505060405180910390fd5b60026000806101000a81548160ff021916908360028111156106f857fe5b02179055507f6cdcd8c3b9a193341bfc2484506aa120da70a80a3ced1dd4b50cca163eaacaf860405160405180910390a1426008819055506060610740600754600854610e2d565b905061075060018251034261106b565b600481905550600360009054906101000a900473ffffffffffffffffffffffffffffffffffffffff1673ffffffffffffffffffffffffffffffffffffffff166108fc61079a6110e7565b9081150290604051600060405180830381858888f193505050501580156107c5573d6000803e3d6000fd5b506108106001600454815481106107d857fe5b9060005260206000200160009054906101000a900473ffffffffffffffffffffffffffffffffffffffff1661080b611101565b611109565b60016004548154811061081f57fe5b9060005260206000200160009054906101000a900473ffffffffffffffffffffffffffffffffffffffff1673ffffffffffffffffffffffffffffffffffffffff166108fc61086b611101565b9081150290604051600060405180830381858888f19350505050158015610896573d6000803e3d6000fd5b5060016000806101000a81548160ff021916908360028111156108b557fe5b02179055507f34f0c2219300df32ab0f8464e81fa001d927aa9f5db584dafc684a2d1a2f3e6260405160405180910390a150565b6000809054906101000a900460ff1681565b600047905090565b60008060008060008090505b600980549050811015610a3857856fffffffffffffffffffffffffffffffff166009828154811061093c57fe5b906000526020600020906005020160010160009054906101000a90046fffffffffffffffffffffffffffffffff166fffffffffffffffffffffffffffffffff161415610a2b5760016009828154811061099157fe5b906000526020600020906005020160010160009054906101000a90046fffffffffffffffffffffffffffffffff16600983815481106109cc57fe5b906000526020600020906005020160020160009054906101000a900473ffffffffffffffffffffffffffffffffffffffff1660098481548110610a0b57fe5b906000526020600020906005020160000154945094509450945050610a4b565b808060010191505061090f565b5060008060008081915093509350935093505b9193509193565b60065481565b60045481565b6005543414610ab8576040517f08c379a00000000000000000000000000000000000000000000000000000000081526004018080602001828103825260228152602001806114e26022913960400191505060405180910390fd5b60006002811115610ac557fe5b6000809054906101000a900460ff166002811115610adf57fe5b14610b52576040517f08c379a00000000000000000000000000000000000000000000000000000000081526004018080602001828103825260208152602001807f546865206c6f7474657279206861736e2774206576656e20737461727465642181525060200191505060405180910390fd5b6001339080600181540180825580915050600190039060005260206000200160009091909190916101000a81548173ffffffffffffffffffffffffffffffffffffffff021916908373ffffffffffffffffffffffffffffffffffffffff16021790555060026040518060a00160405280348152602001436fffffffffffffffffffffffffffffffff1681526020013373ffffffffffffffffffffffffffffffffffffffff168152602001600754815260200160085481525090806001815401808255809150506001900390600052602060002090600502016000909190919091506000820151816000015560208201518160010160006101000a8154816fffffffffffffffffffffffffffffffff02191690836fffffffffffffffffffffffffffffffff16021790555060408201518160020160006101000a81548173ffffffffffffffffffffffffffffffffffffffff021916908373ffffffffffffffffffffffffffffffffffffffff16021790555060608201518160030155608082015181600401555050565b60018181548110610ce857fe5b906000526020600020016000915054906101000a900473ffffffffffffffffffffffffffffffffffffffff1681565b6000806000610d24611412565b600960016009805490500381548110610d3957fe5b90600052602060002090600502016040518060a0016040529081600082015481526020016001820160009054906101000a90046fffffffffffffffffffffffffffffffff166fffffffffffffffffffffffffffffffff166fffffffffffffffffffffffffffffffff1681526020016002820160009054906101000a900473ffffffffffffffffffffffffffffffffffffffff1673ffffffffffffffffffffffffffffffffffffffff1673ffffffffffffffffffffffffffffffffffffffff16815260200160038201548152602001600482015481525050905080602001518160400151826000015193509350935050909192565b6060600080905060008090505b600280549050811015610eae578460028281548110610e5557fe5b90600052602060002090600502016003015410158015610e9357508360028281548110610e7e57fe5b90600052602060002090600502016004015411155b15610ea15781806001019250505b8080600101915050610e3a565b50606081604051908082528060200260200182016040528015610eeb57816020015b610ed8611469565b815260200190600190039081610ed05790505b5090506000915060008090505b60028054905081101561105f578560028281548110610f1357fe5b90600052602060002090600502016003015410158015610f5157508460028281548110610f3c57fe5b90600052602060002090600502016004015411155b156110525760028181548110610f6357fe5b90600052602060002090600502016040518060a0016040529081600082015481526020016001820160009054906101000a90046fffffffffffffffffffffffffffffffff166fffffffffffffffffffffffffffffffff166fffffffffffffffffffffffffffffffff1681526020016002820160009054906101000a900473ffffffffffffffffffffffffffffffffffffffff1673ffffffffffffffffffffffffffffffffffffffff1673ffffffffffffffffffffffffffffffffffffffff1681526020016003820154815260200160048201548152505082848151811061104657fe5b60200260200101819052505b8080600101915050610ef8565b50809250505092915050565b600082423384604051602001808481526020018373ffffffffffffffffffffffffffffffffffffffff1673ffffffffffffffffffffffffffffffffffffffff1660601b815260140182815260200193505050506040516020818303038152906040528051906020012060001c816110de57fe5b06905092915050565b60006110fc6006546110f7611101565b6112ce565b905090565b600047905090565b60096040518060a00160405280838152602001600143036fffffffffffffffffffffffffffffffff1681526020018473ffffffffffffffffffffffffffffffffffffffff168152602001600754815260200160085481525090806001815401808255809150506001900390600052602060002090600502016000909190919091506000820151816000015560208201518160010160006101000a8154816fffffffffffffffffffffffffffffffff02191690836fffffffffffffffffffffffffffffffff16021790555060408201518160020160006101000a81548173ffffffffffffffffffffffffffffffffffffffff021916908373ffffffffffffffffffffffffffffffffffffffff160217905550606082015181600301556080820151816004015550507faa17b54b0149ffcb9131f40d990c831b0614d347cfbf00f9eb541b772a417ecd60014303838360405180846fffffffffffffffffffffffffffffffff166fffffffffffffffffffffffffffffffff1681526020018373ffffffffffffffffffffffffffffffffffffffff1673ffffffffffffffffffffffffffffffffffffffff168152602001828152602001935050505060405180910390a15050565b6000806112e4848461130390919063ffffffff16565b90506112fa60648261138990919063ffffffff16565b91505092915050565b6000808314156113165760009050611383565b600082840290508284828161132757fe5b041461137e576040517f08c379a00000000000000000000000000000000000000000000000000000000081526004018080602001828103825260218152602001806114c16021913960400191505060405180910390fd5b809150505b92915050565b6000808211611400576040517f08c379a000000000000000000000000000000000000000000000000000000000815260040180806020018281038252601a8152602001807f536166654d6174683a206469766973696f6e206279207a65726f00000000000081525060200191505060405180910390fd5b81838161140957fe5b04905092915050565b6040518060a001604052806000815260200160006fffffffffffffffffffffffffffffffff168152602001600073ffffffffffffffffffffffffffffffffffffffff16815260200160008152602001600081525090565b6040518060a001604052806000815260200160006fffffffffffffffffffffffffffffffff168152602001600073ffffffffffffffffffffffffffffffffffffffff1681526020016000815260200160008152509056fe536166654d6174683a206d756c7469706c69636174696f6e206f766572666c6f7754686520707269636520746f20656e746572206973206e6f7420636f72726563742ea2646970667358221220c955e3d6f3fb009e23a45176765745e770b763fa5bcb38e1b1a8f615b147f27364736f6c63430006000033",
  "source": "// SPDX-License-Identifier: MIT\npragma solidity >=0.6.0 <0.8.0;\nimport \"@openzeppelin/contracts/math/SafeMath.sol\";\n\ncontract Lottery {\n    enum LOTTERY_STATE { OPEN, CLOSED, CALCULATING_WINNER }\n    LOTTERY_STATE public lottery_state;\n    address payable[] public players;\n    CheckpointLotteryPlayer[] public lotery_players;\n    address payable private owner_beneficiary;\n    uint256 public lotteryId;\n    uint256 public ENTER_PRICE;\n    uint256 public percentageLessPriceResult;\n    uint startDate;\n    uint endDate; \n    using SafeMath for uint256;\n\n    struct CheckpointWinner {\n        uint256 value;\n        uint128 fromBlock;\n        address winner;\n        uint startDate;\n        uint endDate; \n    }\n\n    struct CheckpointLotteryPlayer {\n        uint256 value;\n        uint128 fromBlock;\n        address player;\n        uint startDate;\n        uint endDate; \n    }\n    event NewWinnerAdded(uint128 fromBlock, address owner, uint amount);\n    event LotteryHasEnded();\n    event CalculatingWinner();\n    event LotteryHasStarted(uint256 enter_price);\n\n    CheckpointWinner[] winnersHistory;\n\n    constructor(address _owner_beneficiary, uint256 enter_price) public {\n        owner_beneficiary = payable(address(_owner_beneficiary));\n        lotteryId = 0;\n        lottery_state = LOTTERY_STATE.CLOSED;  \n        ENTER_PRICE = enter_price;\n        percentageLessPriceResult = uint256(20);\n    }\n    \n    function start_new_lottery() external {\n        require(lottery_state == LOTTERY_STATE.CLOSED, \"Can't start a new lottery yet\");\n        lottery_state = LOTTERY_STATE.OPEN;\n        startDate = block.timestamp;\n        emit LotteryHasStarted(ENTER_PRICE);\n    }\n\n    function enter() external payable {\n        require(uint256(msg.value) == ENTER_PRICE, \"The price to enter is not correct.\");\n        require(lottery_state == LOTTERY_STATE.OPEN, \"The lottery hasn't even started!\");\n        players.push(msg.sender);\n        lotery_players.push(CheckpointLotteryPlayer({\n            value: uint256(msg.value),\n            fromBlock: uint128(block.number),\n            player: msg.sender,\n            startDate: startDate,\n            endDate: endDate \n        }));\n    } \n    \n    function pickWinner() external {\n        require(lottery_state == LOTTERY_STATE.OPEN, \"The lottery hasn't even started!\");\n        //require(lottery_state == LOTTERY_STATE.CALCULATING_WINNER, \"Is already calculating the winner.\");\n        lottery_state = LOTTERY_STATE.CALCULATING_WINNER;\n        emit CalculatingWinner();\n        endDate = block.timestamp;\n        CheckpointLotteryPlayer[] memory playersFounded = getPlayersFromToDate( startDate, endDate);\n        lotteryId = getRandomWinner(playersFounded.length - 1, block.timestamp);\n        payable(owner_beneficiary).transfer(calculateBenefitResult());\n        updateWinnerHistory(players[lotteryId], getBalance());\n        players[lotteryId].transfer(getBalance());\n        lottery_state = LOTTERY_STATE.CLOSED;\n        emit LotteryHasEnded();\n    }\n\n    function getLastWinner() external view returns(uint128, address, uint256){\n        CheckpointWinner memory winner = winnersHistory[winnersHistory.length - 1];\n        return (winner.fromBlock, winner.winner, winner.value);\n    }\n\n    function getWinnerAtBlock(uint128 _fromBlock) external view returns(bool,uint128, address, uint256){\n        for(uint i = 0; i<winnersHistory.length; i++){\n            if(winnersHistory[i].fromBlock == _fromBlock){\n                return (true,winnersHistory[i].fromBlock, winnersHistory[i].winner, winnersHistory[i].value);\n            }\n        }\n        return(false, uint128(0), address(0),uint256(0));\n    }\n\n    function getPlayersFromToDate( uint _startDate, uint _endDate) private view returns(CheckpointLotteryPlayer[] memory){\n        uint resultCount = 0;\n        for(uint i = 0; i<lotery_players.length; i++){\n            if(lotery_players[i].startDate >= _startDate && lotery_players[i].endDate <= _endDate){\n                resultCount++;\n            }\n        }\n        CheckpointLotteryPlayer[] memory playersFound =  new CheckpointLotteryPlayer[](resultCount);\n        resultCount = 0;\n        for(uint i = 0; i<lotery_players.length; i++){\n            if(lotery_players[i].startDate >= _startDate && lotery_players[i].endDate <= _endDate){\n                playersFound[resultCount] = lotery_players[i];\n            }\n        }\n        return playersFound;\n    }\n\n    function getMainBalance() external view returns (uint){\n        return address(this).balance;\n    }\n\n    function getStatus() external view returns (LOTTERY_STATE){\n        return lottery_state;\n    }\n\n    // TODO: Use Chainlink VRF to generate real random nubers, on this implementation is solydity but needs to go Chainlink VRF.\n    function getRandomWinner(uint _modulus, uint randNonce) private view returns (uint256) {\n        return uint256(keccak256(abi.encodePacked(block.timestamp,  \n                                          msg.sender,  \n                                          randNonce))) % _modulus;\n    }\n\n    function updateWinnerHistory(address _address, uint256 amount) private {\n        winnersHistory.push(CheckpointWinner(\n            {\n                fromBlock: uint128(block.number - 1),\n                value: amount,\n                winner: _address,\n                startDate: startDate,\n                endDate: endDate\n            }\n        ));\n        emit NewWinnerAdded(uint128(block.number - 1), _address, amount);\n    }\n\n    function calculateBenefitResult() private view returns(uint256) {\n        return getPercentageValueOf(percentageLessPriceResult, getBalance());\n    }\n\n    function getPercentageValueOf(uint256 _percentageNumber, uint256 _totalNumber) private pure returns(uint256){\n        uint256 result = _totalNumber.mul(_percentageNumber);\n        return result.div(uint256(100)) ;\n    }\n\n    function getBalance() private view returns (uint256){\n        return address(this).balance;\n    }\n\n}",
  "sourcePath": "/Users/ismaelterreno/Documents/Repository/lottery/contracts/Lottery.sol",
  "compiler": {
    "name": "solc",
    "version": "0.6.0+commit.26b70077.Emscripten.clang"
  },
  "schemaVersion": "3.3.4",
  "updatedAt": "2021-02-24T19:25:02.046Z",
  "networkType": "ethereum",
  "devdoc": {
    "methods": {}
  },
  "userdoc": {
    "methods": {}
  }
}