{
  "contractName": "Lottery",
  "abi": [
    {
      "inputs": [
        {
          "internalType": "address",
          "name": "_owner_contract",
          "type": "address"
        },
        {
          "internalType": "address",
          "name": "_owner_beneficiary",
          "type": "address"
        },
        {
          "internalType": "uint256",
          "name": "_enter_price",
          "type": "uint256"
        }
      ],
      "stateMutability": "nonpayable",
      "type": "constructor"
    },
    {
      "anonymous": false,
      "inputs": [
        {
          "indexed": false,
          "internalType": "uint256",
          "name": "startDate",
          "type": "uint256"
        },
        {
          "indexed": false,
          "internalType": "uint256",
          "name": "endDate",
          "type": "uint256"
        }
      ],
      "name": "CalculatingWinner",
      "type": "event"
    },
    {
      "anonymous": false,
      "inputs": [
        {
          "indexed": false,
          "internalType": "uint256",
          "name": "resultCount",
          "type": "uint256"
        }
      ],
      "name": "DebugValue",
      "type": "event"
    },
    {
      "anonymous": false,
      "inputs": [
        {
          "indexed": false,
          "internalType": "uint256",
          "name": "endDate",
          "type": "uint256"
        }
      ],
      "name": "LotteryHasEnded",
      "type": "event"
    },
    {
      "anonymous": false,
      "inputs": [
        {
          "indexed": false,
          "internalType": "uint256",
          "name": "enter_price",
          "type": "uint256"
        },
        {
          "indexed": false,
          "internalType": "uint256",
          "name": "startDate",
          "type": "uint256"
        },
        {
          "indexed": false,
          "internalType": "uint256",
          "name": "endDate",
          "type": "uint256"
        }
      ],
      "name": "LotteryHasStarted",
      "type": "event"
    },
    {
      "anonymous": false,
      "inputs": [
        {
          "indexed": false,
          "internalType": "uint128",
          "name": "fromBlock",
          "type": "uint128"
        },
        {
          "indexed": false,
          "internalType": "address",
          "name": "owner",
          "type": "address"
        },
        {
          "indexed": false,
          "internalType": "uint256",
          "name": "amount",
          "type": "uint256"
        }
      ],
      "name": "NewPlayerTicketAdded",
      "type": "event"
    },
    {
      "anonymous": false,
      "inputs": [
        {
          "indexed": false,
          "internalType": "uint128",
          "name": "fromBlock",
          "type": "uint128"
        },
        {
          "indexed": false,
          "internalType": "address",
          "name": "owner",
          "type": "address"
        },
        {
          "indexed": false,
          "internalType": "uint256",
          "name": "amount",
          "type": "uint256"
        }
      ],
      "name": "NewWinnerAdded",
      "type": "event"
    },
    {
      "anonymous": false,
      "inputs": [
        {
          "indexed": true,
          "internalType": "address",
          "name": "previousOwner",
          "type": "address"
        },
        {
          "indexed": true,
          "internalType": "address",
          "name": "newOwner",
          "type": "address"
        }
      ],
      "name": "OwnershipTransferred",
      "type": "event"
    },
    {
      "anonymous": false,
      "inputs": [
        {
          "indexed": false,
          "internalType": "uint256",
          "name": "resultCount",
          "type": "uint256"
        },
        {
          "indexed": false,
          "internalType": "uint256",
          "name": "_startDate",
          "type": "uint256"
        },
        {
          "indexed": false,
          "internalType": "uint256",
          "name": "_endDate",
          "type": "uint256"
        }
      ],
      "name": "PlayersFoundInRangeDate",
      "type": "event"
    },
    {
      "anonymous": false,
      "inputs": [
        {
          "indexed": true,
          "internalType": "bytes32",
          "name": "role",
          "type": "bytes32"
        },
        {
          "indexed": true,
          "internalType": "bytes32",
          "name": "previousAdminRole",
          "type": "bytes32"
        },
        {
          "indexed": true,
          "internalType": "bytes32",
          "name": "newAdminRole",
          "type": "bytes32"
        }
      ],
      "name": "RoleAdminChanged",
      "type": "event"
    },
    {
      "anonymous": false,
      "inputs": [
        {
          "indexed": true,
          "internalType": "bytes32",
          "name": "role",
          "type": "bytes32"
        },
        {
          "indexed": true,
          "internalType": "address",
          "name": "account",
          "type": "address"
        },
        {
          "indexed": true,
          "internalType": "address",
          "name": "sender",
          "type": "address"
        }
      ],
      "name": "RoleGranted",
      "type": "event"
    },
    {
      "anonymous": false,
      "inputs": [
        {
          "indexed": true,
          "internalType": "bytes32",
          "name": "role",
          "type": "bytes32"
        },
        {
          "indexed": true,
          "internalType": "address",
          "name": "account",
          "type": "address"
        },
        {
          "indexed": true,
          "internalType": "address",
          "name": "sender",
          "type": "address"
        }
      ],
      "name": "RoleRevoked",
      "type": "event"
    },
    {
      "anonymous": false,
      "inputs": [
        {
          "indexed": false,
          "internalType": "address",
          "name": "winner",
          "type": "address"
        },
        {
          "indexed": false,
          "internalType": "uint256",
          "name": "amount",
          "type": "uint256"
        },
        {
          "indexed": false,
          "internalType": "uint256",
          "name": "startDate",
          "type": "uint256"
        },
        {
          "indexed": false,
          "internalType": "uint256",
          "name": "endDate",
          "type": "uint256"
        }
      ],
      "name": "WinnerSelectedInDate",
      "type": "event"
    },
    {
      "inputs": [],
      "name": "DEFAULT_ADMIN_ROLE",
      "outputs": [
        {
          "internalType": "bytes32",
          "name": "",
          "type": "bytes32"
        }
      ],
      "stateMutability": "view",
      "type": "function",
      "constant": true
    },
    {
      "inputs": [
        {
          "internalType": "bytes32",
          "name": "role",
          "type": "bytes32"
        }
      ],
      "name": "getRoleAdmin",
      "outputs": [
        {
          "internalType": "bytes32",
          "name": "",
          "type": "bytes32"
        }
      ],
      "stateMutability": "view",
      "type": "function",
      "constant": true
    },
    {
      "inputs": [
        {
          "internalType": "bytes32",
          "name": "role",
          "type": "bytes32"
        },
        {
          "internalType": "uint256",
          "name": "index",
          "type": "uint256"
        }
      ],
      "name": "getRoleMember",
      "outputs": [
        {
          "internalType": "address",
          "name": "",
          "type": "address"
        }
      ],
      "stateMutability": "view",
      "type": "function",
      "constant": true
    },
    {
      "inputs": [
        {
          "internalType": "bytes32",
          "name": "role",
          "type": "bytes32"
        }
      ],
      "name": "getRoleMemberCount",
      "outputs": [
        {
          "internalType": "uint256",
          "name": "",
          "type": "uint256"
        }
      ],
      "stateMutability": "view",
      "type": "function",
      "constant": true
    },
    {
      "inputs": [
        {
          "internalType": "bytes32",
          "name": "role",
          "type": "bytes32"
        },
        {
          "internalType": "address",
          "name": "account",
          "type": "address"
        }
      ],
      "name": "grantRole",
      "outputs": [],
      "stateMutability": "nonpayable",
      "type": "function"
    },
    {
      "inputs": [
        {
          "internalType": "bytes32",
          "name": "role",
          "type": "bytes32"
        },
        {
          "internalType": "address",
          "name": "account",
          "type": "address"
        }
      ],
      "name": "hasRole",
      "outputs": [
        {
          "internalType": "bool",
          "name": "",
          "type": "bool"
        }
      ],
      "stateMutability": "view",
      "type": "function",
      "constant": true
    },
    {
      "inputs": [],
      "name": "owner",
      "outputs": [
        {
          "internalType": "address",
          "name": "",
          "type": "address"
        }
      ],
      "stateMutability": "view",
      "type": "function",
      "constant": true
    },
    {
      "inputs": [],
      "name": "renounceOwnership",
      "outputs": [],
      "stateMutability": "nonpayable",
      "type": "function"
    },
    {
      "inputs": [
        {
          "internalType": "bytes32",
          "name": "role",
          "type": "bytes32"
        },
        {
          "internalType": "address",
          "name": "account",
          "type": "address"
        }
      ],
      "name": "renounceRole",
      "outputs": [],
      "stateMutability": "nonpayable",
      "type": "function"
    },
    {
      "inputs": [
        {
          "internalType": "bytes32",
          "name": "role",
          "type": "bytes32"
        },
        {
          "internalType": "address",
          "name": "account",
          "type": "address"
        }
      ],
      "name": "revokeRole",
      "outputs": [],
      "stateMutability": "nonpayable",
      "type": "function"
    },
    {
      "inputs": [
        {
          "internalType": "address",
          "name": "newOwner",
          "type": "address"
        }
      ],
      "name": "transferOwnership",
      "outputs": [],
      "stateMutability": "nonpayable",
      "type": "function"
    },
    {
      "inputs": [
        {
          "internalType": "uint256",
          "name": "_startDate",
          "type": "uint256"
        },
        {
          "internalType": "uint256",
          "name": "_endDate",
          "type": "uint256"
        }
      ],
      "name": "start_new_lottery",
      "outputs": [],
      "stateMutability": "nonpayable",
      "type": "function"
    },
    {
      "inputs": [
        {
          "internalType": "uint256",
          "name": "_startDate",
          "type": "uint256"
        },
        {
          "internalType": "uint256",
          "name": "_endDate",
          "type": "uint256"
        }
      ],
      "name": "start_new_lottery_with",
      "outputs": [],
      "stateMutability": "nonpayable",
      "type": "function"
    },
    {
      "inputs": [
        {
          "internalType": "address",
          "name": "user_with_role_to_add",
          "type": "address"
        }
      ],
      "name": "add_lottery_worker",
      "outputs": [],
      "stateMutability": "nonpayable",
      "type": "function"
    },
    {
      "inputs": [],
      "name": "isLotteryAdmin",
      "outputs": [
        {
          "internalType": "bool",
          "name": "",
          "type": "bool"
        }
      ],
      "stateMutability": "nonpayable",
      "type": "function"
    },
    {
      "inputs": [],
      "name": "enter",
      "outputs": [],
      "stateMutability": "payable",
      "type": "function",
      "payable": true
    },
    {
      "inputs": [
        {
          "internalType": "uint256",
          "name": "_saltRandomNumber",
          "type": "uint256"
        }
      ],
      "name": "pickWinner",
      "outputs": [],
      "stateMutability": "nonpayable",
      "type": "function"
    },
    {
      "inputs": [
        {
          "internalType": "uint256",
          "name": "_saltRandomNumber",
          "type": "uint256"
        }
      ],
      "name": "pick_winner_with",
      "outputs": [],
      "stateMutability": "nonpayable",
      "type": "function"
    },
    {
      "inputs": [],
      "name": "getLastWinner",
      "outputs": [
        {
          "internalType": "bool",
          "name": "",
          "type": "bool"
        },
        {
          "internalType": "uint128",
          "name": "",
          "type": "uint128"
        },
        {
          "internalType": "address",
          "name": "",
          "type": "address"
        },
        {
          "internalType": "uint256",
          "name": "",
          "type": "uint256"
        }
      ],
      "stateMutability": "view",
      "type": "function",
      "constant": true
    },
    {
      "inputs": [],
      "name": "getLast40Winners",
      "outputs": [
        {
          "internalType": "uint256[]",
          "name": "",
          "type": "uint256[]"
        },
        {
          "internalType": "uint256[]",
          "name": "",
          "type": "uint256[]"
        },
        {
          "internalType": "uint256[]",
          "name": "",
          "type": "uint256[]"
        },
        {
          "internalType": "uint128[]",
          "name": "",
          "type": "uint128[]"
        },
        {
          "internalType": "address[]",
          "name": "",
          "type": "address[]"
        }
      ],
      "stateMutability": "view",
      "type": "function",
      "constant": true
    },
    {
      "inputs": [
        {
          "internalType": "uint128",
          "name": "_fromBlock",
          "type": "uint128"
        }
      ],
      "name": "getWinnerAtBlock",
      "outputs": [
        {
          "internalType": "bool",
          "name": "",
          "type": "bool"
        },
        {
          "internalType": "uint128",
          "name": "",
          "type": "uint128"
        },
        {
          "internalType": "address",
          "name": "",
          "type": "address"
        },
        {
          "internalType": "uint256",
          "name": "",
          "type": "uint256"
        }
      ],
      "stateMutability": "view",
      "type": "function",
      "constant": true
    },
    {
      "inputs": [],
      "name": "getMainBalance",
      "outputs": [
        {
          "internalType": "uint256",
          "name": "",
          "type": "uint256"
        }
      ],
      "stateMutability": "view",
      "type": "function",
      "constant": true
    },
    {
      "inputs": [],
      "name": "getStatus",
      "outputs": [
        {
          "internalType": "enum Lottery.LOTTERY_STATE",
          "name": "",
          "type": "uint8"
        }
      ],
      "stateMutability": "view",
      "type": "function",
      "constant": true
    },
    {
      "inputs": [],
      "name": "getLotteryInfo",
      "outputs": [
        {
          "internalType": "uint256",
          "name": "",
          "type": "uint256"
        },
        {
          "internalType": "uint256",
          "name": "",
          "type": "uint256"
        },
        {
          "internalType": "uint256",
          "name": "",
          "type": "uint256"
        },
        {
          "internalType": "uint256",
          "name": "",
          "type": "uint256"
        },
        {
          "internalType": "uint256",
          "name": "",
          "type": "uint256"
        }
      ],
      "stateMutability": "view",
      "type": "function",
      "constant": true
    },
    {
      "inputs": [
        {
          "internalType": "address",
          "name": "_address",
          "type": "address"
        },
        {
          "internalType": "uint256",
          "name": "_startDate",
          "type": "uint256"
        },
        {
          "internalType": "uint256",
          "name": "_endDate",
          "type": "uint256"
        }
      ],
      "name": "getPositionsFromToDate",
      "outputs": [
        {
          "internalType": "uint256[]",
          "name": "",
          "type": "uint256[]"
        },
        {
          "internalType": "uint256[]",
          "name": "",
          "type": "uint256[]"
        },
        {
          "internalType": "uint256[]",
          "name": "",
          "type": "uint256[]"
        },
        {
          "internalType": "uint128[]",
          "name": "",
          "type": "uint128[]"
        },
        {
          "internalType": "address[]",
          "name": "",
          "type": "address[]"
        }
      ],
      "stateMutability": "nonpayable",
      "type": "function"
    },
    {
      "inputs": [],
      "name": "countCurrentAddressLotteryPositions",
      "outputs": [
        {
          "internalType": "uint256",
          "name": "",
          "type": "uint256"
        }
      ],
      "stateMutability": "nonpayable",
      "type": "function"
    },
    {
      "inputs": [],
      "name": "getCurrentAddressLotteryPositions",
      "outputs": [
        {
          "internalType": "uint256[]",
          "name": "",
          "type": "uint256[]"
        },
        {
          "internalType": "uint256[]",
          "name": "",
          "type": "uint256[]"
        },
        {
          "internalType": "uint256[]",
          "name": "",
          "type": "uint256[]"
        },
        {
          "internalType": "uint128[]",
          "name": "",
          "type": "uint128[]"
        },
        {
          "internalType": "address[]",
          "name": "",
          "type": "address[]"
        }
      ],
      "stateMutability": "nonpayable",
      "type": "function"
    },
    {
      "inputs": [],
      "name": "countAllCurrentLotteryPositions",
      "outputs": [
        {
          "internalType": "uint256",
          "name": "",
          "type": "uint256"
        }
      ],
      "stateMutability": "nonpayable",
      "type": "function"
    }
  ],
  "bytecode": "0x60806040523480156200001157600080fd5b5060405162003d2f38038062003d2f833981810160405260608110156200003757600080fd5b8101908080519060200190929190805190602001909291908051906020019092919050505060006200006e620001a360201b60201c565b9050806000806101000a81548173ffffffffffffffffffffffffffffffffffffffff021916908373ffffffffffffffffffffffffffffffffffffffff1602179055508073ffffffffffffffffffffffffffffffffffffffff16600073ffffffffffffffffffffffffffffffffffffffff167f8be0079c531659141344cd1fd0a4f28419497f9722a3daafe3b4186f6b6457e060405160405180910390a35081600560006101000a81548173ffffffffffffffffffffffffffffffffffffffff021916908373ffffffffffffffffffffffffffffffffffffffff16021790555060006008819055506001600260006101000a81548160ff021916908360028111156200017557fe5b0217905550806009819055506014600a819055506200019a83620001ab60201b60201c565b505050620003da565b600033905090565b620001bb620001a360201b60201c565b73ffffffffffffffffffffffffffffffffffffffff16620001e1620003b160201b60201c565b73ffffffffffffffffffffffffffffffffffffffff16146200026b576040517f08c379a00000000000000000000000000000000000000000000000000000000081526004018080602001828103825260208152602001807f4f776e61626c653a2063616c6c6572206973206e6f7420746865206f776e657281525060200191505060405180910390fd5b600073ffffffffffffffffffffffffffffffffffffffff168173ffffffffffffffffffffffffffffffffffffffff161415620002f3576040517f08c379a000000000000000000000000000000000000000000000000000000000815260040180806020018281038252602681526020018062003d096026913960400191505060405180910390fd5b8073ffffffffffffffffffffffffffffffffffffffff166000809054906101000a900473ffffffffffffffffffffffffffffffffffffffff1673ffffffffffffffffffffffffffffffffffffffff167f8be0079c531659141344cd1fd0a4f28419497f9722a3daafe3b4186f6b6457e060405160405180910390a3806000806101000a81548173ffffffffffffffffffffffffffffffffffffffff021916908373ffffffffffffffffffffffffffffffffffffffff16021790555050565b60008060009054906101000a900473ffffffffffffffffffffffffffffffffffffffff16905090565b61391f80620003ea6000396000f3fe6080604052600436106101b75760003560e01c8063a217fddf116100ec578063d7ce9b401161008a578063f0d9bff011610064578063f0d9bff014610cd9578063f2fde38b14610d08578063f737d21d14610d59578063f88649a114610d94576101b7565b8063d7ce9b4014610c45578063dd1ac6ee14610c8a578063e97dcb6214610ccf576101b7565b8063b5015944116100c6578063b501594414610b35578063c5728aec14610b60578063ca15c87314610b9b578063d547741f14610bea576101b7565b8063a217fddf14610a15578063a22dff2c14610a40578063b218689414610a6b576101b7565b8063715018a6116101595780638da5cb5b116101335780638da5cb5b146108755780639010d07c146108cc57806391d14854146109515780639dd85e89146109c4576101b7565b8063715018a6146106a75780637808e271146106be5780637f0d72e51461084a576101b7565b80632f2ff15d116101955780632f2ff15d1461042c57806336568abe146104875780634e69d560146104e25780634fff6d251461051b576101b7565b806308609ac3146101bc578063101c5ce914610396578063248a9ca3146103dd575b600080fd5b3480156101c857600080fd5b5061021f600480360360608110156101df57600080fd5b81019080803573ffffffffffffffffffffffffffffffffffffffff1690602001909291908035906020019092919080359060200190929190505050610e28565b60405180806020018060200180602001806020018060200186810386528b818151815260200191508051906020019060200280838360005b83811015610272578082015181840152602081019050610257565b5050505090500186810385528a818151815260200191508051906020019060200280838360005b838110156102b4578082015181840152602081019050610299565b50505050905001868103845289818151815260200191508051906020019060200280838360005b838110156102f65780820151818401526020810190506102db565b50505050905001868103835288818151815260200191508051906020019060200280838360005b8381101561033857808201518184015260208101905061031d565b50505050905001868103825287818151815260200191508051906020019060200280838360005b8381101561037a57808201518184015260208101905061035f565b505050509050019a505050505050505050505060405180910390f35b3480156103a257600080fd5b506103ab611281565b604051808681526020018581526020018481526020018381526020018281526020019550505050505060405180910390f35b3480156103e957600080fd5b506104166004803603602081101561040057600080fd5b81019080803590602001909291905050506112bf565b6040518082815260200191505060405180910390f35b34801561043857600080fd5b506104856004803603604081101561044f57600080fd5b8101908080359060200190929190803573ffffffffffffffffffffffffffffffffffffffff1690602001909291905050506112df565b005b34801561049357600080fd5b506104e0600480360360408110156104aa57600080fd5b8101908080359060200190929190803573ffffffffffffffffffffffffffffffffffffffff169060200190929190505050611369565b005b3480156104ee57600080fd5b506104f7611402565b6040518082600281111561050757fe5b60ff16815260200191505060405180910390f35b34801561052757600080fd5b50610530611419565b60405180806020018060200180602001806020018060200186810386528b818151815260200191508051906020019060200280838360005b83811015610583578082015181840152602081019050610568565b5050505090500186810385528a818151815260200191508051906020019060200280838360005b838110156105c55780820151818401526020810190506105aa565b50505050905001868103845289818151815260200191508051906020019060200280838360005b838110156106075780820151818401526020810190506105ec565b50505050905001868103835288818151815260200191508051906020019060200280838360005b8381101561064957808201518184015260208101905061062e565b50505050905001868103825287818151815260200191508051906020019060200280838360005b8381101561068b578082015181840152602081019050610670565b505050509050019a505050505050505050505060405180910390f35b3480156106b357600080fd5b506106bc611749565b005b3480156106ca57600080fd5b506106d36118b7565b60405180806020018060200180602001806020018060200186810386528b818151815260200191508051906020019060200280838360005b8381101561072657808201518184015260208101905061070b565b5050505090500186810385528a818151815260200191508051906020019060200280838360005b8381101561076857808201518184015260208101905061074d565b50505050905001868103845289818151815260200191508051906020019060200280838360005b838110156107aa57808201518184015260208101905061078f565b50505050905001868103835288818151815260200191508051906020019060200280838360005b838110156107ec5780820151818401526020810190506107d1565b50505050905001868103825287818151815260200191508051906020019060200280838360005b8381101561082e578082015181840152602081019050610813565b505050509050019a505050505050505050505060405180910390f35b34801561085657600080fd5b5061085f6118df565b6040518082815260200191505060405180910390f35b34801561088157600080fd5b5061088a6118f5565b604051808273ffffffffffffffffffffffffffffffffffffffff1673ffffffffffffffffffffffffffffffffffffffff16815260200191505060405180910390f35b3480156108d857600080fd5b5061090f600480360360408110156108ef57600080fd5b81019080803590602001909291908035906020019092919050505061191e565b604051808273ffffffffffffffffffffffffffffffffffffffff1673ffffffffffffffffffffffffffffffffffffffff16815260200191505060405180910390f35b34801561095d57600080fd5b506109aa6004803603604081101561097457600080fd5b8101908080359060200190929190803573ffffffffffffffffffffffffffffffffffffffff169060200190929190505050611950565b604051808215151515815260200191505060405180910390f35b3480156109d057600080fd5b50610a13600480360360208110156109e757600080fd5b81019080803573ffffffffffffffffffffffffffffffffffffffff169060200190929190505050611982565b005b348015610a2157600080fd5b50610a2a611a73565b6040518082815260200191505060405180910390f35b348015610a4c57600080fd5b50610a55611a7a565b6040518082815260200191505060405180910390f35b348015610a7757600080fd5b50610ab660048036036020811015610a8e57600080fd5b8101908080356fffffffffffffffffffffffffffffffff169060200190929190505050611a82565b6040518085151515158152602001846fffffffffffffffffffffffffffffffff166fffffffffffffffffffffffffffffffff1681526020018373ffffffffffffffffffffffffffffffffffffffff1673ffffffffffffffffffffffffffffffffffffffff16815260200182815260200194505050505060405180910390f35b348015610b4157600080fd5b50610b4a611bd1565b6040518082815260200191505060405180910390f35b348015610b6c57600080fd5b50610b9960048036036020811015610b8357600080fd5b8101908080359060200190929190505050611be6565b005b348015610ba757600080fd5b50610bd460048036036020811015610bbe57600080fd5b8101908080359060200190929190505050611ca3565b6040518082815260200191505060405180910390f35b348015610bf657600080fd5b50610c4360048036036040811015610c0d57600080fd5b8101908080359060200190929190803573ffffffffffffffffffffffffffffffffffffffff169060200190929190505050611cca565b005b348015610c5157600080fd5b50610c8860048036036040811015610c6857600080fd5b810190808035906020019092919080359060200190929190505050611d54565b005b348015610c9657600080fd5b50610ccd60048036036040811015610cad57600080fd5b810190808035906020019092919080359060200190929190505050611e13565b005b610cd7611ed0565b005b348015610ce557600080fd5b50610cee6121e5565b604051808215151515815260200191505060405180910390f35b348015610d1457600080fd5b50610d5760048036036020811015610d2b57600080fd5b81019080803573ffffffffffffffffffffffffffffffffffffffff16906020019092919050505061222b565b005b348015610d6557600080fd5b50610d9260048036036020811015610d7c57600080fd5b810190808035906020019092919050505061241e565b005b348015610da057600080fd5b50610da96124d9565b6040518085151515158152602001846fffffffffffffffffffffffffffffffff166fffffffffffffffffffffffffffffffff1681526020018373ffffffffffffffffffffffffffffffffffffffff1673ffffffffffffffffffffffffffffffffffffffff16815260200182815260200194505050505060405180910390f35b60608060608060606000610e3d33898961261a565b905061012d8110610e99576040517f08c379a000000000000000000000000000000000000000000000000000000000815260040180806020018281038252604e815260200180613829604e913960600191505060405180910390fd5b606081604051908082528060200260200182016040528015610eca5781602001602082028038833980820191505090505b509050606082604051908082528060200260200182016040528015610efe5781602001602082028038833980820191505090505b509050606083604051908082528060200260200182016040528015610f325781602001602082028038833980820191505090505b509050606084604051908082528060200260200182016040528015610f665781602001602082028038833980820191505090505b509050606085604051908082528060200260200182016040528015610f9a5781602001602082028038833980820191505090505b5090506000861115611261576000809050600060016004805490500390505b60008110158015610fce575060048054905081105b8015610fd957508782105b1561125e578e60048281548110610fec57fe5b9060005260206000209060050201600101541015801561102a57508d6004828154811061101557fe5b90600052602060002090600502016002015411155b801561109f57508f73ffffffffffffffffffffffffffffffffffffffff166004828154811061105557fe5b906000526020600020906005020160040160009054906101000a900473ffffffffffffffffffffffffffffffffffffffff1673ffffffffffffffffffffffffffffffffffffffff16145b1561125057600481815481106110b157fe5b9060005260206000209060050201600001548783815181106110cf57fe5b602002602001018181525050600481815481106110e857fe5b90600052602060002090600502016001015486838151811061110657fe5b6020026020010181815250506004818154811061111f57fe5b90600052602060002090600502016002015485838151811061113d57fe5b6020026020010181815250506004818154811061115657fe5b906000526020600020906005020160030160009054906101000a90046fffffffffffffffffffffffffffffffff1684838151811061119057fe5b60200260200101906fffffffffffffffffffffffffffffffff1690816fffffffffffffffffffffffffffffffff1681525050600481815481106111cf57fe5b906000526020600020906005020160040160009054906101000a900473ffffffffffffffffffffffffffffffffffffffff1683838151811061120d57fe5b602002602001019073ffffffffffffffffffffffffffffffffffffffff16908173ffffffffffffffffffffffffffffffffffffffff168152505081806001019250505b808060019003915050610fb9565b50505b84848484849a509a509a509a509a50505050505050939792965093509350565b6000806000806000600260009054906101000a900460ff1660028111156112a457fe5b60065460075460095447945094509450945094509091929394565b600060016000838152602001908152602001600020600201549050919050565b6113066001600084815260200190815260200160002060020154611301612763565b611950565b61135b576040517f08c379a000000000000000000000000000000000000000000000000000000000815260040180806020018281038252602f815260200180613783602f913960400191505060405180910390fd5b611365828261276b565b5050565b611371612763565b73ffffffffffffffffffffffffffffffffffffffff168173ffffffffffffffffffffffffffffffffffffffff16146113f4576040517f08c379a000000000000000000000000000000000000000000000000000000000815260040180806020018281038252602f8152602001806138bb602f913960400191505060405180910390fd5b6113fe82826127ff565b5050565b6000600260009054906101000a900460ff16905090565b60608060608060606000602890506060816040519080825280602002602001820160405280156114585781602001602082028038833980820191505090505b50905060608260405190808252806020026020018201604052801561148c5781602001602082028038833980820191505090505b5090506060836040519080825280602002602001820160405280156114c05781602001602082028038833980820191505090505b5090506060846040519080825280602002602001820160405280156114f45781602001602082028038833980820191505090505b5090506060856040519080825280602002602001820160405280156115285781602001602082028038833980820191505090505b5090506000600b80549050111561172d57600080905060006001600b805490500390505b600081101580156115615750600b8054905081105b801561156c57508782105b1561172a57600b818154811061157e57fe5b90600052602060002090600502016000015487838151811061159c57fe5b602002602001018181525050600b81815481106115b557fe5b9060005260206000209060050201600101548683815181106115d357fe5b602002602001018181525050600b81815481106115ec57fe5b90600052602060002090600502016002015485838151811061160a57fe5b602002602001018181525050600b818154811061162357fe5b906000526020600020906005020160030160009054906101000a90046fffffffffffffffffffffffffffffffff1684838151811061165d57fe5b60200260200101906fffffffffffffffffffffffffffffffff1690816fffffffffffffffffffffffffffffffff1681525050600b818154811061169c57fe5b906000526020600020906005020160040160009054906101000a900473ffffffffffffffffffffffffffffffffffffffff168383815181106116da57fe5b602002602001019073ffffffffffffffffffffffffffffffffffffffff16908173ffffffffffffffffffffffffffffffffffffffff1681525050818060010192505080806001900391505061154c565b50505b84848484849a509a509a509a509a505050505050509091929394565b611751612763565b73ffffffffffffffffffffffffffffffffffffffff1661176f6118f5565b73ffffffffffffffffffffffffffffffffffffffff16146117f8576040517f08c379a00000000000000000000000000000000000000000000000000000000081526004018080602001828103825260208152602001807f4f776e61626c653a2063616c6c6572206973206e6f7420746865206f776e657281525060200191505060405180910390fd5b600073ffffffffffffffffffffffffffffffffffffffff166000809054906101000a900473ffffffffffffffffffffffffffffffffffffffff1673ffffffffffffffffffffffffffffffffffffffff167f8be0079c531659141344cd1fd0a4f28419497f9722a3daafe3b4186f6b6457e060405160405180910390a360008060006101000a81548173ffffffffffffffffffffffffffffffffffffffff021916908373ffffffffffffffffffffffffffffffffffffffff160217905550565b60608060608060606118ce33600654600754610e28565b945094509450945094509091929394565b60006118f03360065460075461261a565b905090565b60008060009054906101000a900473ffffffffffffffffffffffffffffffffffffffff16905090565b6000611948826001600086815260200190815260200160002060000161289390919063ffffffff16565b905092915050565b600061197a82600160008681526020019081526020016000206000016128ad90919063ffffffff16565b905092915050565b61198a612763565b73ffffffffffffffffffffffffffffffffffffffff166119a86118f5565b73ffffffffffffffffffffffffffffffffffffffff1614611a31576040517f08c379a00000000000000000000000000000000000000000000000000000000081526004018080602001828103825260208152602001807f4f776e61626c653a2063616c6c6572206973206e6f7420746865206f776e657281525060200191505060405180910390fd5b611a7060405180807f4c4f54544552595f524f4c450000000000000000000000000000000000000000815250600c0190506040518091039020826128dd565b50565b6000801b81565b600047905090565b60008060008060008090505b600b80549050811015611bb757856fffffffffffffffffffffffffffffffff16600b8281548110611abb57fe5b906000526020600020906005020160030160009054906101000a90046fffffffffffffffffffffffffffffffff166fffffffffffffffffffffffffffffffff161415611baa576001600b8281548110611b1057fe5b906000526020600020906005020160030160009054906101000a90046fffffffffffffffffffffffffffffffff16600b8381548110611b4b57fe5b906000526020600020906005020160040160009054906101000a900473ffffffffffffffffffffffffffffffffffffffff16600b8481548110611b8a57fe5b906000526020600020906005020160000154945094509450945050611bca565b8080600101915050611a8e565b5060008060008081915093509350935093505b9193509193565b6000611be16006546007546128eb565b905090565b611c2560405180807f4c4f54544552595f524f4c450000000000000000000000000000000000000000815250600c019050604051809103902033611950565b611c97576040517f08c379a000000000000000000000000000000000000000000000000000000000815260040180806020018281038252601d8152602001807f43616c6c6572206973206e6f742061206c6f747465727920726f6c652e00000081525060200191505060405180910390fd5b611ca0816129be565b50565b6000611cc360016000848152602001908152602001600020600001612d46565b9050919050565b611cf16001600084815260200190815260200160002060020154611cec612763565b611950565b611d46576040517f08c379a00000000000000000000000000000000000000000000000000000000081526004018080602001828103825260308152602001806137d86030913960400191505060405180910390fd5b611d5082826127ff565b5050565b611d9360405180807f4c4f54544552595f524f4c450000000000000000000000000000000000000000815250600c019050604051809103902033611950565b611e05576040517f08c379a000000000000000000000000000000000000000000000000000000000815260040180806020018281038252601d8152602001807f43616c6c6572206973206e6f742061206c6f747465727920726f6c652e00000081525060200191505060405180910390fd5b611e0f8282612d5b565b5050565b611e1b612763565b73ffffffffffffffffffffffffffffffffffffffff16611e396118f5565b73ffffffffffffffffffffffffffffffffffffffff1614611ec2576040517f08c379a00000000000000000000000000000000000000000000000000000000081526004018080602001828103825260208152602001807f4f776e61626c653a2063616c6c6572206973206e6f7420746865206f776e657281525060200191505060405180910390fd5b611ecc8282612d5b565b5050565b6009543414611f2a576040517f08c379a00000000000000000000000000000000000000000000000000000000081526004018080602001828103825260228152602001806138776022913960400191505060405180910390fd5b60006002811115611f3757fe5b600260009054906101000a900460ff166002811115611f5257fe5b14611fc5576040517f08c379a00000000000000000000000000000000000000000000000000000000081526004018080602001828103825260208152602001807f546865206c6f7474657279206861736e2774206576656e20737461727465642181525060200191505060405180910390fd5b6003339080600181540180825580915050600190039060005260206000200160009091909190916101000a81548173ffffffffffffffffffffffffffffffffffffffff021916908373ffffffffffffffffffffffffffffffffffffffff16021790555060046040518060a0016040528034815260200160065481526020016007548152602001436fffffffffffffffffffffffffffffffff1681526020013373ffffffffffffffffffffffffffffffffffffffff16815250908060018154018082558091505060019003906000526020600020906005020160009091909190915060008201518160000155602082015181600101556040820151816002015560608201518160030160006101000a8154816fffffffffffffffffffffffffffffffff02191690836fffffffffffffffffffffffffffffffff16021790555060808201518160040160006101000a81548173ffffffffffffffffffffffffffffffffffffffff021916908373ffffffffffffffffffffffffffffffffffffffff16021790555050507f0cd917ba075a2d6261798368e980c3da4b78db507b42af4ee750a6b58c99b80f43333460405180846fffffffffffffffffffffffffffffffff166fffffffffffffffffffffffffffffffff1681526020018373ffffffffffffffffffffffffffffffffffffffff1673ffffffffffffffffffffffffffffffffffffffff168152602001828152602001935050505060405180910390a1565b600061222660405180807f4c4f54544552595f524f4c450000000000000000000000000000000000000000815250600c019050604051809103902033611950565b905090565b612233612763565b73ffffffffffffffffffffffffffffffffffffffff166122516118f5565b73ffffffffffffffffffffffffffffffffffffffff16146122da576040517f08c379a00000000000000000000000000000000000000000000000000000000081526004018080602001828103825260208152602001807f4f776e61626c653a2063616c6c6572206973206e6f7420746865206f776e657281525060200191505060405180910390fd5b600073ffffffffffffffffffffffffffffffffffffffff168173ffffffffffffffffffffffffffffffffffffffff161415612360576040517f08c379a00000000000000000000000000000000000000000000000000000000081526004018080602001828103825260268152602001806137b26026913960400191505060405180910390fd5b8073ffffffffffffffffffffffffffffffffffffffff166000809054906101000a900473ffffffffffffffffffffffffffffffffffffffff1673ffffffffffffffffffffffffffffffffffffffff167f8be0079c531659141344cd1fd0a4f28419497f9722a3daafe3b4186f6b6457e060405160405180910390a3806000806101000a81548173ffffffffffffffffffffffffffffffffffffffff021916908373ffffffffffffffffffffffffffffffffffffffff16021790555050565b612426612763565b73ffffffffffffffffffffffffffffffffffffffff166124446118f5565b73ffffffffffffffffffffffffffffffffffffffff16146124cd576040517f08c379a00000000000000000000000000000000000000000000000000000000081526004018080602001828103825260208152602001807f4f776e61626c653a2063616c6c6572206973206e6f7420746865206f776e657281525060200191505060405180910390fd5b6124d6816129be565b50565b6000806000806000600b805490501115612602576124f561365b565b600b6001600b80549050038154811061250a57fe5b90600052602060002090600502016040518060a00160405290816000820154815260200160018201548152602001600282015481526020016003820160009054906101000a90046fffffffffffffffffffffffffffffffff166fffffffffffffffffffffffffffffffff166fffffffffffffffffffffffffffffffff1681526020016004820160009054906101000a900473ffffffffffffffffffffffffffffffffffffffff1673ffffffffffffffffffffffffffffffffffffffff1673ffffffffffffffffffffffffffffffffffffffff168152505090506001816060015182608001518360000151945094509450945050612614565b60008060008081915093509350935093505b90919293565b6000806000905060008090505b60048054905081101561271057846004828154811061264257fe5b906000526020600020906005020160010154101580156126805750836004828154811061266b57fe5b90600052602060002090600502016002015411155b80156126f557508573ffffffffffffffffffffffffffffffffffffffff16600482815481106126ab57fe5b906000526020600020906005020160040160009054906101000a900473ffffffffffffffffffffffffffffffffffffffff1673ffffffffffffffffffffffffffffffffffffffff16145b156127035781806001019250505b8080600101915050612627565b507f6f23683476c583c75f779c888c65cb8aeeb07d114d6226e0d7d6cbb782c50abf81858560405180848152602001838152602001828152602001935050505060405180910390a1809150509392505050565b600033905090565b6127938160016000858152602001908152602001600020600001612e7990919063ffffffff16565b156127fb576127a0612763565b73ffffffffffffffffffffffffffffffffffffffff168173ffffffffffffffffffffffffffffffffffffffff16837f2f8788117e7eff1d82e926ec794901d17c78024a50270940304540a733656f0d60405160405180910390a45b5050565b6128278160016000858152602001908152602001600020600001612ea990919063ffffffff16565b1561288f57612834612763565b73ffffffffffffffffffffffffffffffffffffffff168173ffffffffffffffffffffffffffffffffffffffff16837ff6391f5c32d9c69d2a47ea670b442974b53935d1edc7fd64eb21e047a839171b60405160405180910390a45b5050565b60006128a28360000183612ed9565b60001c905092915050565b60006128d5836000018373ffffffffffffffffffffffffffffffffffffffff1660001b612f5c565b905092915050565b6128e7828261276b565b5050565b6000806000905060008090505b60048054905081101561296c57846004828154811061291357fe5b906000526020600020906005020160010154101580156129515750836004828154811061293c57fe5b90600052602060002090600502016002015411155b1561295f5781806001019250505b80806001019150506128f8565b507f6f23683476c583c75f779c888c65cb8aeeb07d114d6226e0d7d6cbb782c50abf81858560405180848152602001838152602001828152602001935050505060405180910390a18091505092915050565b600060028111156129cb57fe5b600260009054906101000a900460ff1660028111156129e657fe5b14612a59576040517f08c379a00000000000000000000000000000000000000000000000000000000081526004018080602001828103825260208152602001807f546865206c6f7474657279206861736e2774206576656e20737461727465642181525060200191505060405180910390fd5b600280811115612a6557fe5b600260009054906101000a900460ff166002811115612a8057fe5b1415612ad7576040517f08c379a00000000000000000000000000000000000000000000000000000000081526004018080602001828103825260228152602001806138996022913960400191505060405180910390fd5b60028060006101000a81548160ff02191690836002811115612af557fe5b02179055507f4909f6329a582e86a81d1f0a21d9a6444c05e80f5d7fe983f89490645a5e1543600654600754604051808381526020018281526020019250505060405180910390a16060612b4d600654600754612f7f565b9050612b5d60018251038361314e565b600881905550612b6b6136b2565b8160085481518110612b7957fe5b60200260200101519050600560009054906101000a900473ffffffffffffffffffffffffffffffffffffffff1673ffffffffffffffffffffffffffffffffffffffff166108fc612bc76131ca565b9081150290604051600060405180830381858888f19350505050158015612bf2573d6000803e3d6000fd5b50612c088160800151612c036131e4565b6131ec565b7f7187cdfe23735dcb26032ab8143903c4825da0e90fc54c079ff191e396398ff78160800151612c366131e4565b600654600754604051808573ffffffffffffffffffffffffffffffffffffffff1673ffffffffffffffffffffffffffffffffffffffff16815260200184815260200183815260200182815260200194505050505060405180910390a1806080015173ffffffffffffffffffffffffffffffffffffffff166108fc612cb86131e4565b9081150290604051600060405180830381858888f19350505050158015612ce3573d6000803e3d6000fd5b506001600260006101000a81548160ff02191690836002811115612d0357fe5b02179055507f4e6364ba131593b08a3a1d651d77997d48a9df9c40bb681c8fb1088caa10acca6007546040518082815260200191505060405180910390a1505050565b6000612d54826000016133ae565b9050919050565b60016002811115612d6857fe5b600260009054906101000a900460ff166002811115612d8357fe5b14612df6576040517f08c379a000000000000000000000000000000000000000000000000000000000815260040180806020018281038252601d8152602001807f43616e27742073746172742061206e6577206c6f74746572792079657400000081525060200191505060405180910390fd5b6000600260006101000a81548160ff02191690836002811115612e1557fe5b021790555081600681905550806007819055507ff0543a89795cff517d42c396ed640669ebd342bcc948898dfbfec95ee2b5266760095460065460075460405180848152602001838152602001828152602001935050505060405180910390a15050565b6000612ea1836000018373ffffffffffffffffffffffffffffffffffffffff1660001b6133bf565b905092915050565b6000612ed1836000018373ffffffffffffffffffffffffffffffffffffffff1660001b61342f565b905092915050565b600081836000018054905011612f3a576040517f08c379a00000000000000000000000000000000000000000000000000000000081526004018080602001828103825260228152602001806137616022913960400191505060405180910390fd5b826000018281548110612f4957fe5b9060005260206000200154905092915050565b600080836001016000848152602001908152602001600020541415905092915050565b606080612f8c84846128eb565b604051908082528060200260200182016040528015612fc557816020015b612fb2613709565b815260200190600190039081612faa5790505b509050600080905060008090505b600480549050811015613142578560048281548110612fee57fe5b9060005260206000209060050201600101541015801561302c5750846004828154811061301757fe5b90600052602060002090600502016002015411155b15613135576004818154811061303e57fe5b90600052602060002090600502016040518060a00160405290816000820154815260200160018201548152602001600282015481526020016003820160009054906101000a90046fffffffffffffffffffffffffffffffff166fffffffffffffffffffffffffffffffff166fffffffffffffffffffffffffffffffff1681526020016004820160009054906101000a900473ffffffffffffffffffffffffffffffffffffffff1673ffffffffffffffffffffffffffffffffffffffff1673ffffffffffffffffffffffffffffffffffffffff168152505083838151811061312157fe5b602002602001018190525081806001019250505b8080600101915050612fd3565b50819250505092915050565b600082423384604051602001808481526020018373ffffffffffffffffffffffffffffffffffffffff1673ffffffffffffffffffffffffffffffffffffffff1660601b815260140182815260200193505050506040516020818303038152906040528051906020012060001c816131c157fe5b06905092915050565b60006131df600a546131da6131e4565b613517565b905090565b600047905090565b600b6040518060a0016040528083815260200160065481526020016007548152602001436fffffffffffffffffffffffffffffffff1681526020018473ffffffffffffffffffffffffffffffffffffffff16815250908060018154018082558091505060019003906000526020600020906005020160009091909190915060008201518160000155602082015181600101556040820151816002015560608201518160030160006101000a8154816fffffffffffffffffffffffffffffffff02191690836fffffffffffffffffffffffffffffffff16021790555060808201518160040160006101000a81548173ffffffffffffffffffffffffffffffffffffffff021916908373ffffffffffffffffffffffffffffffffffffffff16021790555050507faa17b54b0149ffcb9131f40d990c831b0614d347cfbf00f9eb541b772a417ecd60014303838360405180846fffffffffffffffffffffffffffffffff166fffffffffffffffffffffffffffffffff1681526020018373ffffffffffffffffffffffffffffffffffffffff1673ffffffffffffffffffffffffffffffffffffffff168152602001828152602001935050505060405180910390a15050565b600081600001805490509050919050565b60006133cb8383612f5c565b613424578260000182908060018154018082558091505060019003906000526020600020016000909190919091505582600001805490508360010160008481526020019081526020016000208190555060019050613429565b600090505b92915050565b6000808360010160008481526020019081526020016000205490506000811461350b576000600182039050600060018660000180549050039050600086600001828154811061347a57fe5b906000526020600020015490508087600001848154811061349757fe5b90600052602060002001819055506001830187600101600083815260200190815260200160002081905550866000018054806134cf57fe5b60019003818190600052602060002001600090559055866001016000878152602001908152602001600020600090556001945050505050613511565b60009150505b92915050565b60008061352d848461354c90919063ffffffff16565b90506135436064826135d290919063ffffffff16565b91505092915050565b60008083141561355f57600090506135cc565b600082840290508284828161357057fe5b04146135c7576040517f08c379a00000000000000000000000000000000000000000000000000000000081526004018080602001828103825260218152602001806138086021913960400191505060405180910390fd5b809150505b92915050565b6000808211613649576040517f08c379a000000000000000000000000000000000000000000000000000000000815260040180806020018281038252601a8152602001807f536166654d6174683a206469766973696f6e206279207a65726f00000000000081525060200191505060405180910390fd5b81838161365257fe5b04905092915050565b6040518060a0016040528060008152602001600081526020016000815260200160006fffffffffffffffffffffffffffffffff168152602001600073ffffffffffffffffffffffffffffffffffffffff1681525090565b6040518060a0016040528060008152602001600081526020016000815260200160006fffffffffffffffffffffffffffffffff168152602001600073ffffffffffffffffffffffffffffffffffffffff1681525090565b6040518060a0016040528060008152602001600081526020016000815260200160006fffffffffffffffffffffffffffffffff168152602001600073ffffffffffffffffffffffffffffffffffffffff168152509056fe456e756d657261626c655365743a20696e646578206f7574206f6620626f756e6473416363657373436f6e74726f6c3a2073656e646572206d75737420626520616e2061646d696e20746f206772616e744f776e61626c653a206e6577206f776e657220697320746865207a65726f2061646472657373416363657373436f6e74726f6c3a2073656e646572206d75737420626520616e2061646d696e20746f207265766f6b65536166654d6174683a206d756c7469706c69636174696f6e206f766572666c6f774c696d6974206f662033303020726573756c747320726561636865642e20506c656173652073656c65637420616e6f74686572206461746520746f207265647563652074686520726573756c742e54686520707269636520746f20656e746572206973206e6f7420636f72726563742e497320616c72656164792063616c63756c6174696e67207468652077696e6e65722e416363657373436f6e74726f6c3a2063616e206f6e6c792072656e6f756e636520726f6c657320666f722073656c66a264697066735822122028d1d426452a5ebcc435800e1ea1939da10f356559115e7fc75a48442d831d5b64736f6c634300060200334f776e61626c653a206e6577206f776e657220697320746865207a65726f2061646472657373",
  "source": "// SPDX-License-Identifier: MIT\npragma solidity >=0.6.0 <0.8.0;\nimport \"@openzeppelin/contracts/math/SafeMath.sol\";\nimport \"@openzeppelin/contracts/access/Ownable.sol\";\nimport \"@openzeppelin/contracts/access/AccessControl.sol\";\n\ncontract Lottery is Ownable, AccessControl {\n    enum LOTTERY_STATE { OPEN, CLOSED, CALCULATING_WINNER }\n    LOTTERY_STATE private lottery_state;\n    address payable[] private players;\n    CheckpointLotteryPlayer[] private lotery_players;\n    address payable private owner_beneficiary;\n    uint256 private startDate;\n    uint256 private endDate; \n    uint256 private lotteryId;\n    uint256 private ENTER_PRICE;\n    uint256 private percentageLessPriceResult;\n    bytes32 private constant LOTTERY_ROLE = keccak256(\"LOTTERY_ROLE\");\n    using SafeMath for uint256;\n\n    struct  CheckpointWinner {\n        uint256 value;\n        uint256 startDate;\n        uint256 endDate; \n        uint128 fromBlock;\n        address winner;\n        \n    }\n\n    struct CheckpointLotteryPlayer {\n        uint256 value;\n        uint256 startDate;\n        uint256 endDate; \n        uint128 fromBlock;\n        address player;\n    }\n    event NewPlayerTicketAdded(uint128 fromBlock, address owner, uint amount);\n    event NewWinnerAdded(uint128 fromBlock, address owner, uint amount);\n    event LotteryHasEnded(uint256 endDate);\n    event CalculatingWinner( uint256 startDate, uint256 endDate);\n    event LotteryHasStarted(uint256 enter_price, uint256 startDate, uint256 endDate);\n    event WinnerSelectedInDate(address winner, uint256 amount, uint256 startDate, uint256 endDate);\n    event PlayersFoundInRangeDate( uint256 resultCount, uint256 _startDate,  uint256 _endDate);\n    event DebugValue( uint256 resultCount );\n    CheckpointWinner[] private winnersHistory;\n\n    constructor(address _owner_contract, address _owner_beneficiary, uint256 _enter_price) public {\n        owner_beneficiary = payable(address(_owner_beneficiary));\n        lotteryId = 0;\n        lottery_state = LOTTERY_STATE.CLOSED;  \n        ENTER_PRICE = _enter_price;\n        percentageLessPriceResult = uint256(20);\n        transferOwnership(_owner_contract);\n    }\n    \n    function start_new_lottery(uint256 _startDate, uint256 _endDate) external onlyOwner {\n        start_lottery(_startDate, _endDate);       \n    }\n\n    function start_new_lottery_with(uint256 _startDate, uint256 _endDate) external {\n        require(hasRole(LOTTERY_ROLE, msg.sender), \"Caller is not a lottery role.\");\n        start_lottery(_startDate, _endDate);\n    }\n    \n    function start_lottery(uint256 _startDate, uint256 _endDate) private {\n        require(lottery_state == LOTTERY_STATE.CLOSED, \"Can't start a new lottery yet\");\n        lottery_state = LOTTERY_STATE.OPEN;\n        startDate = _startDate;\n        endDate = _endDate; \n        emit LotteryHasStarted(ENTER_PRICE, startDate, endDate);\n    }\n\n    function add_lottery_worker(address user_with_role_to_add) external onlyOwner {\n        _setupRole(LOTTERY_ROLE, user_with_role_to_add);\n    }\n\n    function isLotteryAdmin() external returns (bool) {\n        return hasRole(LOTTERY_ROLE, msg.sender);\n    }\n\n    function enter() external payable {\n        require(uint256(msg.value) == ENTER_PRICE, \"The price to enter is not correct.\");\n        require(lottery_state == LOTTERY_STATE.OPEN, \"The lottery hasn't even started!\");\n        players.push(msg.sender);\n        lotery_players.push(CheckpointLotteryPlayer({\n            value: uint256(msg.value),\n            fromBlock: uint128(block.number),\n            player: msg.sender,\n            startDate: startDate,\n            endDate: endDate\n        }));\n        emit NewPlayerTicketAdded(uint128(block.number), msg.sender, uint256(msg.value));\n    } \n    \n    function pickWinner(uint _saltRandomNumber) external onlyOwner {\n        pick_winner_action(_saltRandomNumber);\n    }\n\n    function pick_winner_with(uint _saltRandomNumber) external {\n        require(hasRole(LOTTERY_ROLE, msg.sender), \"Caller is not a lottery role.\");\n        pick_winner_action(_saltRandomNumber);\n    }\n\n    function pick_winner_action(uint _saltRandomNumber) private {\n        require(lottery_state == LOTTERY_STATE.OPEN, \"The lottery hasn't even started!\");\n        require(lottery_state != LOTTERY_STATE.CALCULATING_WINNER, \"Is already calculating the winner.\");\n        lottery_state = LOTTERY_STATE.CALCULATING_WINNER;\n        emit CalculatingWinner( startDate, endDate);\n        CheckpointLotteryPlayer[] memory playersFounded = getPlayersFromToDate( startDate, endDate);\n        lotteryId = getRandomWinner(playersFounded.length - 1, _saltRandomNumber);\n        CheckpointLotteryPlayer memory winnerSelected = playersFounded[lotteryId];\n        payable(owner_beneficiary).transfer(calculateBenefitResult());\n        updateWinnerHistory(winnerSelected.player, getBalance());\n        emit WinnerSelectedInDate(winnerSelected.player, getBalance(), startDate, endDate);\n        payable(winnerSelected.player).transfer(getBalance());\n        lottery_state = LOTTERY_STATE.CLOSED;\n        emit LotteryHasEnded(endDate);\n    }\n\n    function getLastWinner() external view returns( bool, uint128, address, uint256){\n        if(winnersHistory.length > 0){\n            CheckpointWinner memory winner = winnersHistory[winnersHistory.length - 1];\n            return (true, winner.fromBlock, winner.winner, winner.value);\n        }\n        return(false, uint128(0), address(0),uint256(0));\n    }\n\n    function getLast40Winners() external view returns( \n        uint256 [] memory,\n        uint256 [] memory,\n        uint256 [] memory,\n        uint128 [] memory,\n        address [] memory\n        ){\n        uint limit = 40;\n        uint256 [] memory value_r = new uint256[](limit);\n        uint256 [] memory startDate_r = new uint256[](limit);\n        uint256 [] memory endDate_r = new uint256[](limit); \n        uint128 [] memory fromBlock_r = new uint128[](limit);\n        address [] memory winner_r = new address[](limit);\n        \n        if(winnersHistory.length > 0){\n            uint j = 0;\n            for(uint i = winnersHistory.length - 1; (i >= 0 && i < winnersHistory.length) && (j < limit ); i--) {\n                value_r[j] = winnersHistory[i].value;\n                startDate_r[j] = winnersHistory[i].startDate;\n                endDate_r[j] = winnersHistory[i].endDate;\n                fromBlock_r[j] = winnersHistory[i].fromBlock;\n                winner_r[j] = winnersHistory[i].winner;\n                j++;\n            }\n        }\n        return (value_r, startDate_r, endDate_r, fromBlock_r, winner_r);\n    }\n\n    function getWinnerAtBlock(uint128 _fromBlock) external view returns(bool,uint128, address, uint256){\n        for(uint i = 0; i<winnersHistory.length; i++){\n            if(winnersHistory[i].fromBlock == _fromBlock){\n                return (true,winnersHistory[i].fromBlock, winnersHistory[i].winner, winnersHistory[i].value);\n            }\n        }\n        return(false, uint128(0), address(0),uint256(0));\n    }\n\n    function getPlayersFromToDate( uint256 _startDate, uint256 _endDate) private returns(CheckpointLotteryPlayer[] memory){\n        CheckpointLotteryPlayer[] memory playersFound =  new CheckpointLotteryPlayer[](getPlayersFromToDateCount(\n            _startDate, \n            _endDate \n        ));\n        uint j = 0;\n        for(uint i = 0; i < lotery_players.length; i++) {\n            if(lotery_players[i].startDate >= _startDate && lotery_players[i].endDate <= _endDate){\n                playersFound[j] = lotery_players[i];\n                j++;\n            }\n        }\n        return playersFound;\n    }\n\n    function getPlayersFromToDateCount( uint256 _startDate, uint256 _endDate) private returns(uint256){\n        uint256 resultCount = 0;\n        for(uint i = 0; i < lotery_players.length; i++){\n            if(lotery_players[i].startDate >= _startDate && lotery_players[i].endDate <= _endDate){\n                resultCount++;\n            }\n        }\n        emit PlayersFoundInRangeDate( resultCount, _startDate,  _endDate);\n        return resultCount;\n    }\n\n    function getMainBalance() external view returns (uint){\n        return address(this).balance;\n    }\n\n    function getStatus() external view returns (LOTTERY_STATE){\n        return lottery_state;\n    }\n\n    // TODO: In the future could use Chainlink VRF to generate decentralize random numbers, on this implementation is solydity but needs to go Chainlink VRF some day is just a suggestion.\n    function getRandomWinner(uint _modulus, uint randNonce) private view returns (uint256) {\n        return uint256(keccak256(abi.encodePacked(block.timestamp,  \n                                          msg.sender,  \n                                          randNonce))) % _modulus;\n    }\n\n    function updateWinnerHistory(address _address, uint256 _amount) private {\n        winnersHistory.push(CheckpointWinner(\n            {\n                fromBlock: uint128(block.number),\n                value: _amount,\n                winner: _address,\n                startDate: startDate,\n                endDate: endDate\n            }\n        ));\n        emit NewWinnerAdded(uint128(block.number - 1), _address, _amount);\n    }\n\n    function calculateBenefitResult() private view returns(uint256) {\n        return getPercentageValueOf(percentageLessPriceResult, getBalance());\n    }\n\n    function getPercentageValueOf(uint256 _percentageNumber, uint256 _totalNumber) private pure returns(uint256){\n        uint256 result = _totalNumber.mul(_percentageNumber);\n        return result.div(uint256(100)) ;\n    }\n\n    function getBalance() private view returns (uint256){\n        return address(this).balance;\n    }\n\n    function getLotteryInfo() public view returns (uint256, uint256, uint256, uint256, uint256){    \n        return (\n            uint256(lottery_state),\n            startDate,\n            endDate,\n            ENTER_PRICE,\n            address(this).balance\n        );  \n    }\n\n    function getPositionsFromToDateCount( address _address, uint256 _startDate, uint256 _endDate) private returns(uint256){\n        uint256 resultCount = 0;\n        for(uint i = 0; i < lotery_players.length; i++){\n            if(\n                lotery_players[i].startDate >= _startDate && \n                lotery_players[i].endDate <= _endDate &&\n                lotery_players[i].player == _address\n            ){\n                resultCount++;\n            }\n        }\n        emit PlayersFoundInRangeDate( resultCount, _startDate,  _endDate);\n        return resultCount;\n    }\n\n    function getPositionsFromToDate( address _address, uint256 _startDate, uint256 _endDate ) public returns( \n        uint256 [] memory,\n        uint256 [] memory,\n        uint256 [] memory,\n        uint128 [] memory,\n        address [] memory\n        ){\n        uint limit = getPositionsFromToDateCount(\n            msg.sender,\n            _startDate, \n            _endDate \n        );\n        require(limit < 301, \"Limit of 300 results reached. Please select another date to reduce the result.\");\n        uint256 [] memory value_r = new uint256[](limit);\n        uint256 [] memory startDate_r = new uint256[](limit);\n        uint256 [] memory endDate_r = new uint256[](limit); \n        uint128 [] memory fromBlock_r = new uint128[](limit);\n        address [] memory player_r = new address[](limit);\n        if(limit > 0){\n            uint j = 0;\n            for(\n                uint i = lotery_players.length - 1; \n                (i >= 0 && i < lotery_players.length) && (j < limit ); \n                i--\n            ) {\n                if(\n                lotery_players[i].startDate >= _startDate && \n                lotery_players[i].endDate <= _endDate &&\n                lotery_players[i].player == _address\n                ){\n                    value_r[j] = lotery_players[i].value;\n                    startDate_r[j] = lotery_players[i].startDate;\n                    endDate_r[j] = lotery_players[i].endDate;\n                    fromBlock_r[j] = lotery_players[i].fromBlock;\n                    player_r[j] = lotery_players[i].player;\n                    j++;\n                }\n            }\n        }\n        return (value_r, startDate_r, endDate_r, fromBlock_r, player_r);\n    }\n\n    function countCurrentAddressLotteryPositions() public returns (uint256){\n        return getPositionsFromToDateCount( msg.sender,  startDate, endDate );\n    }\n\n    function getCurrentAddressLotteryPositions() public returns( \n        uint256 [] memory,\n        uint256 [] memory,\n        uint256 [] memory,\n        uint128 [] memory,\n        address [] memory\n        ){\n        return getPositionsFromToDate( msg.sender,  startDate, endDate );\n    }\n\n    function countAllCurrentLotteryPositions() public returns (uint256) {\n        return getPlayersFromToDateCount(\n            startDate, \n            endDate \n        );\n    }\n\n}",
  "sourcePath": "/Users/ismaelterreno/Documents/Repository/lottery/contracts/Lottery.sol",
  "compiler": {
    "name": "solc",
    "version": "0.6.2+commit.bacdbe57.Emscripten.clang"
  },
  "schemaVersion": "3.3.4",
  "updatedAt": "2021-06-01T23:47:17.640Z",
  "networkType": "ethereum",
  "devdoc": {
    "methods": {
      "getRoleAdmin(bytes32)": {
        "details": "Returns the admin role that controls `role`. See {grantRole} and {revokeRole}.     * To change a role's admin, use {_setRoleAdmin}."
      },
      "getRoleMember(bytes32,uint256)": {
        "details": "Returns one of the accounts that have `role`. `index` must be a value between 0 and {getRoleMemberCount}, non-inclusive.     * Role bearers are not sorted in any particular way, and their ordering may change at any point.     * WARNING: When using {getRoleMember} and {getRoleMemberCount}, make sure you perform all queries on the same block. See the following https://forum.openzeppelin.com/t/iterating-over-elements-on-enumerableset-in-openzeppelin-contracts/2296[forum post] for more information."
      },
      "getRoleMemberCount(bytes32)": {
        "details": "Returns the number of accounts that have `role`. Can be used together with {getRoleMember} to enumerate all bearers of a role."
      },
      "grantRole(bytes32,address)": {
        "details": "Grants `role` to `account`.     * If `account` had not been already granted `role`, emits a {RoleGranted} event.     * Requirements:     * - the caller must have ``role``'s admin role."
      },
      "hasRole(bytes32,address)": {
        "details": "Returns `true` if `account` has been granted `role`."
      },
      "owner()": {
        "details": "Returns the address of the current owner."
      },
      "renounceOwnership()": {
        "details": "Leaves the contract without owner. It will not be possible to call `onlyOwner` functions anymore. Can only be called by the current owner.     * NOTE: Renouncing ownership will leave the contract without an owner, thereby removing any functionality that is only available to the owner."
      },
      "renounceRole(bytes32,address)": {
        "details": "Revokes `role` from the calling account.     * Roles are often managed via {grantRole} and {revokeRole}: this function's purpose is to provide a mechanism for accounts to lose their privileges if they are compromised (such as when a trusted device is misplaced).     * If the calling account had been granted `role`, emits a {RoleRevoked} event.     * Requirements:     * - the caller must be `account`."
      },
      "revokeRole(bytes32,address)": {
        "details": "Revokes `role` from `account`.     * If `account` had been granted `role`, emits a {RoleRevoked} event.     * Requirements:     * - the caller must have ``role``'s admin role."
      },
      "transferOwnership(address)": {
        "details": "Transfers ownership of the contract to a new account (`newOwner`). Can only be called by the current owner."
      }
    }
  },
  "userdoc": {
    "methods": {}
  }
}